{
  "_format": "hh-sol-artifact-1",
  "contractName": "ChipsToken",
  "sourceName": "contracts/ChipsToken.sol",
  "abi": [
    {
      "inputs": [
        {
          "internalType": "string",
          "name": "name_",
          "type": "string"
        },
        {
          "internalType": "string",
          "name": "symbol_",
          "type": "string"
        }
      ],
      "stateMutability": "nonpayable",
      "type": "constructor"
    },
    {
      "inputs": [],
      "name": "AccessControlBadConfirmation",
      "type": "error"
    },
    {
      "inputs": [
        {
          "internalType": "address",
          "name": "account",
          "type": "address"
        },
        {
          "internalType": "bytes32",
          "name": "neededRole",
          "type": "bytes32"
        }
      ],
      "name": "AccessControlUnauthorizedAccount",
      "type": "error"
    },
    {
      "inputs": [
        {
          "internalType": "address",
          "name": "spender",
          "type": "address"
        },
        {
          "internalType": "uint256",
          "name": "allowance",
          "type": "uint256"
        },
        {
          "internalType": "uint256",
          "name": "needed",
          "type": "uint256"
        }
      ],
      "name": "ERC20InsufficientAllowance",
      "type": "error"
    },
    {
      "inputs": [
        {
          "internalType": "address",
          "name": "sender",
          "type": "address"
        },
        {
          "internalType": "uint256",
          "name": "balance",
          "type": "uint256"
        },
        {
          "internalType": "uint256",
          "name": "needed",
          "type": "uint256"
        }
      ],
      "name": "ERC20InsufficientBalance",
      "type": "error"
    },
    {
      "inputs": [
        {
          "internalType": "address",
          "name": "approver",
          "type": "address"
        }
      ],
      "name": "ERC20InvalidApprover",
      "type": "error"
    },
    {
      "inputs": [
        {
          "internalType": "address",
          "name": "receiver",
          "type": "address"
        }
      ],
      "name": "ERC20InvalidReceiver",
      "type": "error"
    },
    {
      "inputs": [
        {
          "internalType": "address",
          "name": "sender",
          "type": "address"
        }
      ],
      "name": "ERC20InvalidSender",
      "type": "error"
    },
    {
      "inputs": [
        {
          "internalType": "address",
          "name": "spender",
          "type": "address"
        }
      ],
      "name": "ERC20InvalidSpender",
      "type": "error"
    },
    {
      "inputs": [
        {
          "internalType": "address",
          "name": "owner",
          "type": "address"
        }
      ],
      "name": "OwnableInvalidOwner",
      "type": "error"
    },
    {
      "inputs": [
        {
          "internalType": "address",
          "name": "account",
          "type": "address"
        }
      ],
      "name": "OwnableUnauthorizedAccount",
      "type": "error"
    },
    {
      "anonymous": false,
      "inputs": [
        {
          "indexed": true,
          "internalType": "address",
          "name": "owner",
          "type": "address"
        },
        {
          "indexed": true,
          "internalType": "address",
          "name": "spender",
          "type": "address"
        },
        {
          "indexed": false,
          "internalType": "uint256",
          "name": "value",
          "type": "uint256"
        }
      ],
      "name": "Approval",
      "type": "event"
    },
    {
      "anonymous": false,
      "inputs": [
        {
          "indexed": true,
          "internalType": "address",
          "name": "buyer",
          "type": "address"
        },
        {
          "indexed": false,
          "internalType": "uint256",
          "name": "ethAmount",
          "type": "uint256"
        },
        {
          "indexed": false,
          "internalType": "uint256",
          "name": "chipsAmount",
          "type": "uint256"
        },
        {
          "indexed": false,
          "internalType": "uint256",
          "name": "liquidityPoolEther",
          "type": "uint256"
        },
        {
          "indexed": false,
          "internalType": "uint256",
          "name": "liquidityPoolChips",
          "type": "uint256"
        },
        {
          "indexed": false,
          "internalType": "uint256",
          "name": "managerFee",
          "type": "uint256"
        }
      ],
      "name": "BuyChips",
      "type": "event"
    },
    {
      "anonymous": false,
      "inputs": [
        {
          "indexed": true,
          "internalType": "address",
          "name": "previousOwner",
          "type": "address"
        },
        {
          "indexed": true,
          "internalType": "address",
          "name": "newOwner",
          "type": "address"
        }
      ],
      "name": "OwnershipTransferred",
      "type": "event"
    },
    {
      "anonymous": false,
      "inputs": [
        {
          "indexed": true,
          "internalType": "bytes32",
          "name": "role",
          "type": "bytes32"
        },
        {
          "indexed": true,
          "internalType": "bytes32",
          "name": "previousAdminRole",
          "type": "bytes32"
        },
        {
          "indexed": true,
          "internalType": "bytes32",
          "name": "newAdminRole",
          "type": "bytes32"
        }
      ],
      "name": "RoleAdminChanged",
      "type": "event"
    },
    {
      "anonymous": false,
      "inputs": [
        {
          "indexed": true,
          "internalType": "bytes32",
          "name": "role",
          "type": "bytes32"
        },
        {
          "indexed": true,
          "internalType": "address",
          "name": "account",
          "type": "address"
        },
        {
          "indexed": true,
          "internalType": "address",
          "name": "sender",
          "type": "address"
        }
      ],
      "name": "RoleGranted",
      "type": "event"
    },
    {
      "anonymous": false,
      "inputs": [
        {
          "indexed": true,
          "internalType": "bytes32",
          "name": "role",
          "type": "bytes32"
        },
        {
          "indexed": true,
          "internalType": "address",
          "name": "account",
          "type": "address"
        },
        {
          "indexed": true,
          "internalType": "address",
          "name": "sender",
          "type": "address"
        }
      ],
      "name": "RoleRevoked",
      "type": "event"
    },
    {
      "anonymous": false,
      "inputs": [
        {
          "indexed": true,
          "internalType": "address",
          "name": "seller",
          "type": "address"
        },
        {
          "indexed": false,
          "internalType": "uint256",
          "name": "ethAmount",
          "type": "uint256"
        },
        {
          "indexed": false,
          "internalType": "uint256",
          "name": "chipsAmount",
          "type": "uint256"
        },
        {
          "indexed": false,
          "internalType": "uint256",
          "name": "liquidityPoolEther",
          "type": "uint256"
        },
        {
          "indexed": false,
          "internalType": "uint256",
          "name": "liquidityPoolChips",
          "type": "uint256"
        },
        {
          "indexed": false,
          "internalType": "uint256",
          "name": "managerFee",
          "type": "uint256"
        }
      ],
      "name": "SellChips",
      "type": "event"
    },
    {
      "anonymous": false,
      "inputs": [
        {
          "indexed": true,
          "internalType": "address",
          "name": "from",
          "type": "address"
        },
        {
          "indexed": true,
          "internalType": "address",
          "name": "to",
          "type": "address"
        },
        {
          "indexed": false,
          "internalType": "uint256",
          "name": "value",
          "type": "uint256"
        }
      ],
      "name": "Transfer",
      "type": "event"
    },
    {
      "inputs": [],
      "name": "CHIPS_PRICE_PER_ETHER",
      "outputs": [
        {
          "internalType": "uint256",
          "name": "",
          "type": "uint256"
        }
      ],
      "stateMutability": "view",
      "type": "function"
    },
    {
      "inputs": [],
      "name": "DEFAULT_ADMIN_ROLE",
      "outputs": [
        {
          "internalType": "bytes32",
          "name": "",
          "type": "bytes32"
        }
      ],
      "stateMutability": "view",
      "type": "function"
    },
    {
      "inputs": [],
      "name": "INITIAL_SUPPLY",
      "outputs": [
        {
          "internalType": "uint256",
          "name": "",
          "type": "uint256"
        }
      ],
      "stateMutability": "view",
      "type": "function"
    },
    {
      "inputs": [],
      "name": "MANAGER_FEE_RATE",
      "outputs": [
        {
          "internalType": "uint256",
          "name": "",
          "type": "uint256"
        }
      ],
      "stateMutability": "view",
      "type": "function"
    },
    {
      "inputs": [],
      "name": "MINTER_ROLE",
      "outputs": [
        {
          "internalType": "bytes32",
          "name": "",
          "type": "bytes32"
        }
      ],
      "stateMutability": "view",
      "type": "function"
    },
    {
      "inputs": [
        {
          "internalType": "address",
          "name": "minter",
          "type": "address"
        }
      ],
      "name": "addMinter",
      "outputs": [],
      "stateMutability": "nonpayable",
      "type": "function"
    },
    {
      "inputs": [
        {
          "internalType": "address",
          "name": "owner",
          "type": "address"
        },
        {
          "internalType": "address",
          "name": "spender",
          "type": "address"
        }
      ],
      "name": "allowance",
      "outputs": [
        {
          "internalType": "uint256",
          "name": "",
          "type": "uint256"
        }
      ],
      "stateMutability": "view",
      "type": "function"
    },
    {
      "inputs": [
        {
          "internalType": "address",
          "name": "spender",
          "type": "address"
        },
        {
          "internalType": "uint256",
          "name": "value",
          "type": "uint256"
        }
      ],
      "name": "approve",
      "outputs": [
        {
          "internalType": "bool",
          "name": "",
          "type": "bool"
        }
      ],
      "stateMutability": "nonpayable",
      "type": "function"
    },
    {
      "inputs": [
        {
          "internalType": "address",
          "name": "account",
          "type": "address"
        }
      ],
      "name": "balanceOf",
      "outputs": [
        {
          "internalType": "uint256",
          "name": "",
          "type": "uint256"
        }
      ],
      "stateMutability": "view",
      "type": "function"
    },
    {
      "inputs": [],
      "name": "buyChips",
      "outputs": [],
      "stateMutability": "payable",
      "type": "function"
    },
    {
      "inputs": [
        {
          "internalType": "uint256",
          "name": "chipsAmount",
          "type": "uint256"
        }
      ],
      "name": "calcSellPrice",
      "outputs": [
        {
          "internalType": "uint256",
          "name": "",
          "type": "uint256"
        },
        {
          "internalType": "uint256",
          "name": "",
          "type": "uint256"
        },
        {
          "internalType": "uint256",
          "name": "",
          "type": "uint256"
        },
        {
          "internalType": "uint256",
          "name": "",
          "type": "uint256"
        }
      ],
      "stateMutability": "view",
      "type": "function"
    },
    {
      "inputs": [],
      "name": "decimals",
      "outputs": [
        {
          "internalType": "uint8",
          "name": "",
          "type": "uint8"
        }
      ],
      "stateMutability": "view",
      "type": "function"
    },
    {
      "inputs": [
        {
          "internalType": "address",
          "name": "from",
          "type": "address"
        },
        {
          "internalType": "address",
          "name": "to",
          "type": "address"
        },
        {
          "internalType": "uint256",
          "name": "amount",
          "type": "uint256"
        }
      ],
      "name": "directTransferFrom",
      "outputs": [],
      "stateMutability": "nonpayable",
      "type": "function"
    },
    {
      "inputs": [
        {
          "internalType": "bytes32",
          "name": "role",
          "type": "bytes32"
        }
      ],
      "name": "getRoleAdmin",
      "outputs": [
        {
          "internalType": "bytes32",
          "name": "",
          "type": "bytes32"
        }
      ],
      "stateMutability": "view",
      "type": "function"
    },
    {
      "inputs": [
        {
          "internalType": "bytes32",
          "name": "role",
          "type": "bytes32"
        },
        {
          "internalType": "address",
          "name": "account",
          "type": "address"
        }
      ],
      "name": "grantRole",
      "outputs": [],
      "stateMutability": "nonpayable",
      "type": "function"
    },
    {
      "inputs": [
        {
          "internalType": "bytes32",
          "name": "role",
          "type": "bytes32"
        },
        {
          "internalType": "address",
          "name": "account",
          "type": "address"
        }
      ],
      "name": "hasRole",
      "outputs": [
        {
          "internalType": "bool",
          "name": "",
          "type": "bool"
        }
      ],
      "stateMutability": "view",
      "type": "function"
    },
    {
      "inputs": [],
      "name": "liquidityPoolChips",
      "outputs": [
        {
          "internalType": "uint256",
          "name": "",
          "type": "uint256"
        }
      ],
      "stateMutability": "view",
      "type": "function"
    },
    {
      "inputs": [],
      "name": "liquidityPoolEther",
      "outputs": [
        {
          "internalType": "uint256",
          "name": "",
          "type": "uint256"
        }
      ],
      "stateMutability": "view",
      "type": "function"
    },
    {
      "inputs": [
        {
          "internalType": "address",
          "name": "to",
          "type": "address"
        },
        {
          "internalType": "uint256",
          "name": "amount",
          "type": "uint256"
        }
      ],
      "name": "mint",
      "outputs": [],
      "stateMutability": "nonpayable",
      "type": "function"
    },
    {
      "inputs": [],
      "name": "name",
      "outputs": [
        {
          "internalType": "string",
          "name": "",
          "type": "string"
        }
      ],
      "stateMutability": "view",
      "type": "function"
    },
    {
      "inputs": [],
      "name": "owner",
      "outputs": [
        {
          "internalType": "address",
          "name": "",
          "type": "address"
        }
      ],
      "stateMutability": "view",
      "type": "function"
    },
    {
      "inputs": [
        {
          "internalType": "address",
          "name": "minter",
          "type": "address"
        }
      ],
      "name": "removeMinter",
      "outputs": [],
      "stateMutability": "nonpayable",
      "type": "function"
    },
    {
      "inputs": [],
      "name": "renounceOwnership",
      "outputs": [],
      "stateMutability": "nonpayable",
      "type": "function"
    },
    {
      "inputs": [
        {
          "internalType": "bytes32",
          "name": "role",
          "type": "bytes32"
        },
        {
          "internalType": "address",
          "name": "callerConfirmation",
          "type": "address"
        }
      ],
      "name": "renounceRole",
      "outputs": [],
      "stateMutability": "nonpayable",
      "type": "function"
    },
    {
      "inputs": [
        {
          "internalType": "bytes32",
          "name": "role",
          "type": "bytes32"
        },
        {
          "internalType": "address",
          "name": "account",
          "type": "address"
        }
      ],
      "name": "revokeRole",
      "outputs": [],
      "stateMutability": "nonpayable",
      "type": "function"
    },
    {
      "inputs": [
        {
          "internalType": "uint256",
          "name": "chipsAmount",
          "type": "uint256"
        }
      ],
      "name": "sellChips",
      "outputs": [],
      "stateMutability": "nonpayable",
      "type": "function"
    },
    {
      "inputs": [
        {
          "internalType": "bytes4",
          "name": "interfaceId",
          "type": "bytes4"
        }
      ],
      "name": "supportsInterface",
      "outputs": [
        {
          "internalType": "bool",
          "name": "",
          "type": "bool"
        }
      ],
      "stateMutability": "view",
      "type": "function"
    },
    {
      "inputs": [],
      "name": "symbol",
      "outputs": [
        {
          "internalType": "string",
          "name": "",
          "type": "string"
        }
      ],
      "stateMutability": "view",
      "type": "function"
    },
    {
      "inputs": [],
      "name": "totalSupply",
      "outputs": [
        {
          "internalType": "uint256",
          "name": "",
          "type": "uint256"
        }
      ],
      "stateMutability": "view",
      "type": "function"
    },
    {
      "inputs": [
        {
          "internalType": "address",
          "name": "to",
          "type": "address"
        },
        {
          "internalType": "uint256",
          "name": "value",
          "type": "uint256"
        }
      ],
      "name": "transfer",
      "outputs": [
        {
          "internalType": "bool",
          "name": "",
          "type": "bool"
        }
      ],
      "stateMutability": "nonpayable",
      "type": "function"
    },
    {
      "inputs": [
        {
          "internalType": "address",
          "name": "from",
          "type": "address"
        },
        {
          "internalType": "address",
          "name": "to",
          "type": "address"
        },
        {
          "internalType": "uint256",
          "name": "value",
          "type": "uint256"
        }
      ],
      "name": "transferFrom",
      "outputs": [
        {
          "internalType": "bool",
          "name": "",
          "type": "bool"
        }
      ],
      "stateMutability": "nonpayable",
      "type": "function"
    },
    {
      "inputs": [
        {
          "internalType": "address",
          "name": "newOwner",
          "type": "address"
        }
      ],
      "name": "transferOwnership",
      "outputs": [],
      "stateMutability": "nonpayable",
      "type": "function"
    }
  ],
  "bytecode": "0x6080604052600060075560006008553480156200001b57600080fd5b5060405162001c5538038062001c558339810160408190526200003e916200047f565b33828260036200004f83826200057a565b5060046200005e82826200057a565b5050506001600160a01b0381166200009157604051631e4fbdf760e01b8152600060048201526024015b60405180910390fd5b6200009c81620000f6565b50620000aa60003362000148565b50620000d87f9f2df0fed2c77648de5860a4cc508cd0818c85b8b8a1ab4ceeef8d981c8956a66000620001fb565b620000ee3369d3c21bcecceda100000062000246565b505062000668565b600680546001600160a01b038381166001600160a01b0319831681179093556040519116919082907f8be0079c531659141344cd1fd0a4f28419497f9722a3daafe3b4186f6b6457e090600090a35050565b60008281526005602090815260408083206001600160a01b038516845290915281205460ff16620001f15760008381526005602090815260408083206001600160a01b03861684529091529020805460ff19166001179055620001a83390565b6001600160a01b0316826001600160a01b0316847f2f8788117e7eff1d82e926ec794901d17c78024a50270940304540a733656f0d60405160405180910390a4506001620001f5565b5060005b92915050565b600082815260056020526040808220600101805490849055905190918391839186917fbd79b86ffe0ab8e8776151514217cd7cacd52c909f66475c3af44e129f0b00ff9190a4505050565b6001600160a01b038216620002725760405163ec442f0560e01b81526000600482015260240162000088565b620002806000838362000284565b5050565b6001600160a01b038316620002b3578060026000828254620002a7919062000646565b90915550620003279050565b6001600160a01b03831660009081526020819052604090205481811015620003085760405163391434e360e21b81526001600160a01b0385166004820152602481018290526044810183905260640162000088565b6001600160a01b03841660009081526020819052604090209082900390555b6001600160a01b038216620003455760028054829003905562000364565b6001600160a01b03821660009081526020819052604090208054820190555b816001600160a01b0316836001600160a01b03167fddf252ad1be2c89b69c2b068fc378daa952ba7f163c4a11628f55a4df523b3ef83604051620003aa91815260200190565b60405180910390a3505050565b634e487b7160e01b600052604160045260246000fd5b600082601f830112620003df57600080fd5b81516001600160401b0380821115620003fc57620003fc620003b7565b604051601f8301601f19908116603f01168101908282118183101715620004275762000427620003b7565b81604052838152602092508660208588010111156200044557600080fd5b600091505b838210156200046957858201830151818301840152908201906200044a565b6000602085830101528094505050505092915050565b600080604083850312156200049357600080fd5b82516001600160401b0380821115620004ab57600080fd5b620004b986838701620003cd565b93506020850151915080821115620004d057600080fd5b50620004df85828601620003cd565b9150509250929050565b600181811c90821680620004fe57607f821691505b6020821081036200051f57634e487b7160e01b600052602260045260246000fd5b50919050565b601f82111562000575576000816000526020600020601f850160051c81016020861015620005505750805b601f850160051c820191505b8181101562000571578281556001016200055c565b5050505b505050565b81516001600160401b03811115620005965762000596620003b7565b620005ae81620005a78454620004e9565b8462000525565b602080601f831160018114620005e65760008415620005cd5750858301515b600019600386901b1c1916600185901b17855562000571565b600085815260208120601f198616915b828110156200061757888601518255948401946001909101908401620005f6565b5085821015620006365787850151600019600388901b60f8161c191681555b5050505050600190811b01905550565b80820180821115620001f557634e487b7160e01b600052601160045260246000fd5b6115dd80620006786000396000f3fe6080604052600436106101e35760003560e01c8063715018a611610102578063a8721c2e11610095578063d547741f11610064578063d547741f1461054c578063dd62ed3e1461056c578063e20f5825146105b2578063f2fde38b146105f257600080fd5b8063a8721c2e146104ca578063a9059cbb146104ea578063d14fcf5a1461050a578063d53913931461052a57600080fd5b806395d89b41116100d157806395d89b4114610478578063983b2d561461048d5780639c3930ad146104ad578063a217fddf146104b557600080fd5b8063715018a614610405578063752f1a371461041a5780638da5cb5b1461043057806391d148541461045857600080fd5b80632ff2e9dc1161017a57806340c10f191161014957806340c10f19146103845780634886c366146103a4578063621c1c62146103ba57806370a08231146103cf57600080fd5b80632ff2e9dc1461030a5780633092afd514610328578063313ce5671461034857806336568abe1461036457600080fd5b806318160ddd116101b657806318160ddd1461028357806323b872dd14610298578063248a9ca3146102b85780632f2ff15d146102e857600080fd5b806301ffc9a7146101e857806306fdde031461021d578063095ea7b31461023f578063139453df1461025f575b600080fd5b3480156101f457600080fd5b5061020861020336600461134c565b610612565b60405190151581526020015b60405180910390f35b34801561022957600080fd5b50610232610649565b604051610214919061137d565b34801561024b57600080fd5b5061020861025a3660046113e8565b6106db565b34801561026b57600080fd5b506102756103e881565b604051908152602001610214565b34801561028f57600080fd5b50600254610275565b3480156102a457600080fd5b506102086102b3366004611412565b6106f3565b3480156102c457600080fd5b506102756102d336600461144e565b60009081526005602052604090206001015490565b3480156102f457600080fd5b50610308610303366004611467565b610717565b005b34801561031657600080fd5b5061027569d3c21bcecceda100000081565b34801561033457600080fd5b50610308610343366004611493565b610742565b34801561035457600080fd5b5060405160128152602001610214565b34801561037057600080fd5b5061030861037f366004611467565b610765565b34801561039057600080fd5b5061030861039f3660046113e8565b61079d565b3480156103b057600080fd5b5061027560085481565b3480156103c657600080fd5b50610275600181565b3480156103db57600080fd5b506102756103ea366004611493565b6001600160a01b031660009081526020819052604090205490565b34801561041157600080fd5b5061030861081e565b34801561042657600080fd5b5061027560075481565b34801561043c57600080fd5b506006546040516001600160a01b039091168152602001610214565b34801561046457600080fd5b50610208610473366004611467565b610832565b34801561048457600080fd5b5061023261085d565b34801561049957600080fd5b506103086104a8366004611493565b61086c565b6103086108db565b3480156104c157600080fd5b50610275600081565b3480156104d657600080fd5b506103086104e5366004611412565b610a3a565b3480156104f657600080fd5b506102086105053660046113e8565b610b30565b34801561051657600080fd5b5061030861052536600461144e565b610b3e565b34801561053657600080fd5b5061027560008051602061158883398151915281565b34801561055857600080fd5b50610308610567366004611467565b610d56565b34801561057857600080fd5b506102756105873660046114ae565b6001600160a01b03918216600090815260016020908152604080832093909416825291909152205490565b3480156105be57600080fd5b506105d26105cd36600461144e565b610d7b565b604080519485526020850193909352918301526060820152608001610214565b3480156105fe57600080fd5b5061030861060d366004611493565b610dff565b60006001600160e01b03198216637965db0b60e01b148061064357506301ffc9a760e01b6001600160e01b03198316145b92915050565b606060038054610658906114d8565b80601f0160208091040260200160405190810160405280929190818152602001828054610684906114d8565b80156106d15780601f106106a6576101008083540402835291602001916106d1565b820191906000526020600020905b8154815290600101906020018083116106b457829003601f168201915b5050505050905090565b6000336106e9818585610e3a565b5060019392505050565b600033610701858285610e47565b61070c858585610ebf565b506001949350505050565b60008281526005602052604090206001015461073281610f1e565b61073c8383610f28565b50505050565b61074a610fbc565b61076260008051602061158883398151915282610d56565b50565b6001600160a01b038116331461078e5760405163334bd91960e11b815260040160405180910390fd5b6107988282610fe9565b505050565b6107b560008051602061158883398151915233610832565b6108105760405162461bcd60e51b815260206004820152602160248201527f43616c6c6572206973206e6f74206120617574686f72697a6564206d696e74656044820152603960f91b60648201526084015b60405180910390fd5b61081a8282611056565b5050565b610826610fbc565b610830600061108c565b565b60009182526005602090815260408084206001600160a01b0393909316845291905290205460ff1690565b606060048054610658906114d8565b610874610fbc565b803b806108c35760405162461bcd60e51b815260206004820152601d60248201527f546865206d696e746572206d757374206265206120636f6e74726163740000006044820152606401610807565b61081a60008051602061158883398151915283610717565b600034116109375760405162461bcd60e51b8152602060048201526024808201527f546865206d73672e76616c7565206d75737420626520677265617465722074686044820152630616e20360e41b6064820152608401610807565b60006109456103e834611528565b90506109513382611056565b60006064610960600134611528565b61096a919061153f565b90506109768134611561565b600760008282546109879190611574565b9250508190555081600860008282546109a09190611574565b90915550506006546040516001600160a01b039091169082156108fc029083906000818181858888f193505050501580156109df573d6000803e3d6000fd5b5060075460085460408051348152602081018690529081019290925260608201526080810182905233907f8db6092f72a38534f7fd3030a7ebb76364fcab166209d1a436b3a21319a936539060a00160405180910390a25050565b326001600160a01b03841614610aaa5760405162461bcd60e51b815260206004820152602f60248201527f5468652066726f6d206163636f756e74206d757374206265207468652074726160448201526e3739b0b1ba34b7b71039b2b73232b960891b6064820152608401610807565b610ac260008051602061158883398151915233610832565b610b255760405162461bcd60e51b815260206004820152602e60248201527f43616c6c657220636f6e7472616374204d55535420626520616e20617574686f60448201526d1c9a5e99590818dbdb9d1c9858dd60921b6064820152608401610807565b610798838383610ebf565b6000336106e9818585610ebf565b60008111610b9a5760405162461bcd60e51b815260206004820152602360248201527f436869707320616d6f756e74206d75737420626520677265617465722074686160448201526206e20360ec1b6064820152608401610807565b33600090815260208190526040902054811115610c085760405162461bcd60e51b815260206004820152602660248201527f4e6f7420656e6f75676820636869707320696e207468652073656e646572206160448201526518d8dbdd5b9d60d21b6064820152608401610807565b600080600080610c1785610d7b565b93509350935093506007548385610c2e9190611574565b1115610c7c5760405162461bcd60e51b815260206004820152601a60248201527f4e6f7420656e6f7567682045544820696e2074686520706f6f6c0000000000006044820152606401610807565b60078290556008819055610c9033866110de565b6006546040516001600160a01b039091169084156108fc029085906000818181858888f19350505050158015610cca573d6000803e3d6000fd5b50604051339085156108fc029086906000818181858888f19350505050158015610cf8573d6000803e3d6000fd5b5060075460085460408051878152602081018990529081019290925260608201526080810184905233907f9887183ed1d196f0748f90115046e034e96c03291f12d42caedfadbea57e16539060a00160405180910390a25050505050565b600082815260056020526040902060010154610d7181610f1e565b61073c8383610fe9565b60008060008060006007549050600086600854610d989190611574565b905060008160085484610dab9190611528565b610db5919061153f565b90506000610dc38285611561565b905060006064610dd4600184611528565b610dde919061153f565b90506000610dec8284611561565b9b919a5092985092965091945050505050565b610e07610fbc565b6001600160a01b038116610e3157604051631e4fbdf760e01b815260006004820152602401610807565b6107628161108c565b6107988383836001611114565b6001600160a01b03838116600090815260016020908152604080832093861683529290522054600019811461073c5781811015610eb057604051637dc7a0d960e11b81526001600160a01b03841660048201526024810182905260448101839052606401610807565b61073c84848484036000611114565b6001600160a01b038316610ee957604051634b637e8f60e11b815260006004820152602401610807565b6001600160a01b038216610f135760405163ec442f0560e01b815260006004820152602401610807565b6107988383836111e9565b6107628133611313565b6000610f348383610832565b610fb45760008381526005602090815260408083206001600160a01b03861684529091529020805460ff19166001179055610f6c3390565b6001600160a01b0316826001600160a01b0316847f2f8788117e7eff1d82e926ec794901d17c78024a50270940304540a733656f0d60405160405180910390a4506001610643565b506000610643565b6006546001600160a01b031633146108305760405163118cdaa760e01b8152336004820152602401610807565b6000610ff58383610832565b15610fb45760008381526005602090815260408083206001600160a01b0386168085529252808320805460ff1916905551339286917ff6391f5c32d9c69d2a47ea670b442974b53935d1edc7fd64eb21e047a839171b9190a4506001610643565b6001600160a01b0382166110805760405163ec442f0560e01b815260006004820152602401610807565b61081a600083836111e9565b600680546001600160a01b038381166001600160a01b0319831681179093556040519116919082907f8be0079c531659141344cd1fd0a4f28419497f9722a3daafe3b4186f6b6457e090600090a35050565b6001600160a01b03821661110857604051634b637e8f60e11b815260006004820152602401610807565b61081a826000836111e9565b6001600160a01b03841661113e5760405163e602df0560e01b815260006004820152602401610807565b6001600160a01b03831661116857604051634a1406b160e11b815260006004820152602401610807565b6001600160a01b038085166000908152600160209081526040808320938716835292905220829055801561073c57826001600160a01b0316846001600160a01b03167f8c5be1e5ebec7d5bd14f71427d1e84f3dd0314c0f7b2291e5b200ac8c7c3b925846040516111db91815260200190565b60405180910390a350505050565b6001600160a01b0383166112145780600260008282546112099190611574565b909155506112869050565b6001600160a01b038316600090815260208190526040902054818110156112675760405163391434e360e21b81526001600160a01b03851660048201526024810182905260448101839052606401610807565b6001600160a01b03841660009081526020819052604090209082900390555b6001600160a01b0382166112a2576002805482900390556112c1565b6001600160a01b03821660009081526020819052604090208054820190555b816001600160a01b0316836001600160a01b03167fddf252ad1be2c89b69c2b068fc378daa952ba7f163c4a11628f55a4df523b3ef8360405161130691815260200190565b60405180910390a3505050565b61131d8282610832565b61081a5760405163e2517d3f60e01b81526001600160a01b038216600482015260248101839052604401610807565b60006020828403121561135e57600080fd5b81356001600160e01b03198116811461137657600080fd5b9392505050565b60006020808352835180602085015260005b818110156113ab5785810183015185820160400152820161138f565b506000604082860101526040601f19601f8301168501019250505092915050565b80356001600160a01b03811681146113e357600080fd5b919050565b600080604083850312156113fb57600080fd5b611404836113cc565b946020939093013593505050565b60008060006060848603121561142757600080fd5b611430846113cc565b925061143e602085016113cc565b9150604084013590509250925092565b60006020828403121561146057600080fd5b5035919050565b6000806040838503121561147a57600080fd5b8235915061148a602084016113cc565b90509250929050565b6000602082840312156114a557600080fd5b611376826113cc565b600080604083850312156114c157600080fd5b6114ca836113cc565b915061148a602084016113cc565b600181811c908216806114ec57607f821691505b60208210810361150c57634e487b7160e01b600052602260045260246000fd5b50919050565b634e487b7160e01b600052601160045260246000fd5b808202811582820484141761064357610643611512565b60008261155c57634e487b7160e01b600052601260045260246000fd5b500490565b8181038181111561064357610643611512565b808201808211156106435761064361151256fe9f2df0fed2c77648de5860a4cc508cd0818c85b8b8a1ab4ceeef8d981c8956a6a264697066735822122037ee4727af1a9e753c449c181837f0b1a959aeb60b550c4d31c45f90690afd8e64736f6c63430008180033",
  "linkReferences": {},
  "deployedLinkReferences": {}
}