{
  "_format": "hh-sol-artifact-1",
  "contractName": "RefundableLottery",
  "sourceName": "contracts/RefundableLottery.sol",
  "abi": [
    {
      "inputs": [
        {
          "internalType": "uint256",
          "name": "_subscriptionId",
          "type": "uint256"
        },
        {
          "internalType": "address",
          "name": "_vrf",
          "type": "address"
        },
        {
          "internalType": "bytes32",
          "name": "_keyHash",
          "type": "bytes32"
        },
        {
          "internalType": "address",
          "name": "_chipsToken",
          "type": "address"
        }
      ],
      "stateMutability": "nonpayable",
      "type": "constructor"
    },
    {
      "inputs": [
        {
          "internalType": "address",
          "name": "have",
          "type": "address"
        },
        {
          "internalType": "address",
          "name": "want",
          "type": "address"
        }
      ],
      "name": "OnlyCoordinatorCanFulfill",
      "type": "error"
    },
    {
      "inputs": [
        {
          "internalType": "address",
          "name": "have",
          "type": "address"
        },
        {
          "internalType": "address",
          "name": "owner",
          "type": "address"
        },
        {
          "internalType": "address",
          "name": "coordinator",
          "type": "address"
        }
      ],
      "name": "OnlyOwnerOrCoordinator",
      "type": "error"
    },
    {
      "inputs": [],
      "name": "ZeroAddress",
      "type": "error"
    },
    {
      "anonymous": false,
      "inputs": [
        {
          "indexed": true,
          "internalType": "uint256",
          "name": "roundNumber",
          "type": "uint256"
        },
        {
          "indexed": true,
          "internalType": "address",
          "name": "player",
          "type": "address"
        },
        {
          "indexed": false,
          "internalType": "uint256",
          "name": "ticketNumber",
          "type": "uint256"
        },
        {
          "indexed": false,
          "internalType": "uint256",
          "name": "amount",
          "type": "uint256"
        },
        {
          "indexed": false,
          "internalType": "bool",
          "name": "inChips",
          "type": "bool"
        }
      ],
      "name": "BuyTicket",
      "type": "event"
    },
    {
      "anonymous": false,
      "inputs": [
        {
          "indexed": false,
          "internalType": "address",
          "name": "vrfCoordinator",
          "type": "address"
        }
      ],
      "name": "CoordinatorSet",
      "type": "event"
    },
    {
      "anonymous": false,
      "inputs": [
        {
          "indexed": true,
          "internalType": "uint256",
          "name": "roundNumber",
          "type": "uint256"
        },
        {
          "indexed": false,
          "internalType": "uint256",
          "name": "jackpotNumber",
          "type": "uint256"
        },
        {
          "indexed": false,
          "internalType": "address",
          "name": "winner",
          "type": "address"
        },
        {
          "indexed": false,
          "internalType": "uint256",
          "name": "etherAmount",
          "type": "uint256"
        },
        {
          "indexed": false,
          "internalType": "uint256",
          "name": "chipsAmount",
          "type": "uint256"
        }
      ],
      "name": "DrawLottery",
      "type": "event"
    },
    {
      "anonymous": false,
      "inputs": [
        {
          "indexed": true,
          "internalType": "uint256",
          "name": "roundNumber",
          "type": "uint256"
        },
        {
          "indexed": false,
          "internalType": "uint256",
          "name": "requestId",
          "type": "uint256"
        },
        {
          "indexed": false,
          "internalType": "uint256",
          "name": "chainlinkResult",
          "type": "uint256"
        },
        {
          "indexed": false,
          "internalType": "uint256",
          "name": "jackpotNumber",
          "type": "uint256"
        }
      ],
      "name": "LotteryDrawing",
      "type": "event"
    },
    {
      "anonymous": false,
      "inputs": [
        {
          "indexed": true,
          "internalType": "uint256",
          "name": "roundNumber",
          "type": "uint256"
        },
        {
          "indexed": false,
          "internalType": "uint256",
          "name": "requestId",
          "type": "uint256"
        },
        {
          "indexed": false,
          "internalType": "address",
          "name": "roller",
          "type": "address"
        }
      ],
      "name": "LotteryRolling",
      "type": "event"
    },
    {
      "anonymous": false,
      "inputs": [
        {
          "indexed": true,
          "internalType": "address",
          "name": "from",
          "type": "address"
        },
        {
          "indexed": true,
          "internalType": "address",
          "name": "to",
          "type": "address"
        }
      ],
      "name": "OwnershipTransferRequested",
      "type": "event"
    },
    {
      "anonymous": false,
      "inputs": [
        {
          "indexed": true,
          "internalType": "address",
          "name": "from",
          "type": "address"
        },
        {
          "indexed": true,
          "internalType": "address",
          "name": "to",
          "type": "address"
        }
      ],
      "name": "OwnershipTransferred",
      "type": "event"
    },
    {
      "anonymous": false,
      "inputs": [
        {
          "indexed": true,
          "internalType": "uint256",
          "name": "roundNumber",
          "type": "uint256"
        },
        {
          "indexed": true,
          "internalType": "address",
          "name": "player",
          "type": "address"
        },
        {
          "indexed": false,
          "internalType": "uint256",
          "name": "refundEtherAmount",
          "type": "uint256"
        },
        {
          "indexed": false,
          "internalType": "uint256",
          "name": "refundChipsAmount",
          "type": "uint256"
        }
      ],
      "name": "Refund",
      "type": "event"
    },
    {
      "anonymous": false,
      "inputs": [
        {
          "indexed": true,
          "internalType": "uint256",
          "name": "roundNumber",
          "type": "uint256"
        },
        {
          "indexed": false,
          "internalType": "uint256",
          "name": "jackpotNumber",
          "type": "uint256"
        },
        {
          "indexed": false,
          "internalType": "uint256",
          "name": "winnerCount",
          "type": "uint256"
        }
      ],
      "name": "RoundEnded",
      "type": "event"
    },
    {
      "anonymous": false,
      "inputs": [
        {
          "indexed": true,
          "internalType": "uint256",
          "name": "roundNumber",
          "type": "uint256"
        }
      ],
      "name": "RoundStarted",
      "type": "event"
    },
    {
      "inputs": [],
      "name": "CHIPS_PRICE_PER_ETHER",
      "outputs": [
        {
          "internalType": "uint256",
          "name": "",
          "type": "uint256"
        }
      ],
      "stateMutability": "view",
      "type": "function"
    },
    {
      "inputs": [],
      "name": "DISCOUNT_RATE",
      "outputs": [
        {
          "internalType": "uint256",
          "name": "",
          "type": "uint256"
        }
      ],
      "stateMutability": "view",
      "type": "function"
    },
    {
      "inputs": [],
      "name": "MANAGEMENT_FEE_RATE",
      "outputs": [
        {
          "internalType": "uint256",
          "name": "",
          "type": "uint256"
        }
      ],
      "stateMutability": "view",
      "type": "function"
    },
    {
      "inputs": [],
      "name": "MAX_PARTICIPATE_RATE_USING_CHIPS",
      "outputs": [
        {
          "internalType": "uint256",
          "name": "",
          "type": "uint256"
        }
      ],
      "stateMutability": "view",
      "type": "function"
    },
    {
      "inputs": [],
      "name": "REWARD_CHIPS_FOR_OPERATOR",
      "outputs": [
        {
          "internalType": "uint256",
          "name": "",
          "type": "uint256"
        }
      ],
      "stateMutability": "view",
      "type": "function"
    },
    {
      "inputs": [],
      "name": "ROUND_PERIOD",
      "outputs": [
        {
          "internalType": "uint256",
          "name": "",
          "type": "uint256"
        }
      ],
      "stateMutability": "view",
      "type": "function"
    },
    {
      "inputs": [],
      "name": "TICKET_NUMBER_RANGE",
      "outputs": [
        {
          "internalType": "uint256",
          "name": "",
          "type": "uint256"
        }
      ],
      "stateMutability": "view",
      "type": "function"
    },
    {
      "inputs": [],
      "name": "TICKET_PRICE_IN_CHIPS",
      "outputs": [
        {
          "internalType": "uint256",
          "name": "",
          "type": "uint256"
        }
      ],
      "stateMutability": "view",
      "type": "function"
    },
    {
      "inputs": [],
      "name": "TICKET_PRICE_IN_ETHER",
      "outputs": [
        {
          "internalType": "uint256",
          "name": "",
          "type": "uint256"
        }
      ],
      "stateMutability": "view",
      "type": "function"
    },
    {
      "inputs": [],
      "name": "acceptOwnership",
      "outputs": [],
      "stateMutability": "nonpayable",
      "type": "function"
    },
    {
      "inputs": [
        {
          "internalType": "uint256",
          "name": "_ticketNumber",
          "type": "uint256"
        }
      ],
      "name": "buyTicketWithChips",
      "outputs": [],
      "stateMutability": "nonpayable",
      "type": "function"
    },
    {
      "inputs": [
        {
          "internalType": "uint256",
          "name": "_ticketNumber",
          "type": "uint256"
        }
      ],
      "name": "buyTicketWithEther",
      "outputs": [],
      "stateMutability": "payable",
      "type": "function"
    },
    {
      "inputs": [],
      "name": "callbackGasLimit",
      "outputs": [
        {
          "internalType": "uint32",
          "name": "",
          "type": "uint32"
        }
      ],
      "stateMutability": "view",
      "type": "function"
    },
    {
      "inputs": [
        {
          "internalType": "uint256",
          "name": "",
          "type": "uint256"
        }
      ],
      "name": "chipsPurchaseCount",
      "outputs": [
        {
          "internalType": "uint256",
          "name": "",
          "type": "uint256"
        }
      ],
      "stateMutability": "view",
      "type": "function"
    },
    {
      "inputs": [],
      "name": "chipsToken",
      "outputs": [
        {
          "internalType": "contract IChipsToken",
          "name": "",
          "type": "address"
        }
      ],
      "stateMutability": "view",
      "type": "function"
    },
    {
      "inputs": [],
      "name": "drawLottery",
      "outputs": [],
      "stateMutability": "nonpayable",
      "type": "function"
    },
    {
      "inputs": [
        {
          "internalType": "uint256",
          "name": "",
          "type": "uint256"
        }
      ],
      "name": "etherPurchaseCount",
      "outputs": [
        {
          "internalType": "uint256",
          "name": "",
          "type": "uint256"
        }
      ],
      "stateMutability": "view",
      "type": "function"
    },
    {
      "inputs": [],
      "name": "getCurRoundState",
      "outputs": [
        {
          "internalType": "enum RefundableLottery.RoundState",
          "name": "",
          "type": "uint8"
        }
      ],
      "stateMutability": "view",
      "type": "function"
    },
    {
      "inputs": [],
      "name": "getDiscountedPriceInChips",
      "outputs": [
        {
          "internalType": "uint256",
          "name": "",
          "type": "uint256"
        }
      ],
      "stateMutability": "pure",
      "type": "function"
    },
    {
      "inputs": [],
      "name": "getGlobalConfig",
      "outputs": [
        {
          "internalType": "uint256",
          "name": "",
          "type": "uint256"
        },
        {
          "internalType": "uint256",
          "name": "",
          "type": "uint256"
        },
        {
          "internalType": "uint256",
          "name": "",
          "type": "uint256"
        },
        {
          "internalType": "uint256",
          "name": "",
          "type": "uint256"
        },
        {
          "internalType": "uint256",
          "name": "",
          "type": "uint256"
        },
        {
          "internalType": "uint256",
          "name": "",
          "type": "uint256"
        },
        {
          "internalType": "uint256",
          "name": "",
          "type": "uint256"
        },
        {
          "internalType": "uint256",
          "name": "",
          "type": "uint256"
        },
        {
          "internalType": "uint256",
          "name": "",
          "type": "uint256"
        },
        {
          "internalType": "uint256",
          "name": "",
          "type": "uint256"
        }
      ],
      "stateMutability": "pure",
      "type": "function"
    },
    {
      "inputs": [
        {
          "internalType": "uint256",
          "name": "_roundNumber",
          "type": "uint256"
        }
      ],
      "name": "getRoundDetail",
      "outputs": [
        {
          "components": [
            {
              "internalType": "uint256",
              "name": "roundNumber",
              "type": "uint256"
            },
            {
              "internalType": "enum RefundableLottery.RoundState",
              "name": "realtimeState",
              "type": "uint8"
            },
            {
              "components": [
                {
                  "internalType": "enum RefundableLottery.RoundState",
                  "name": "state",
                  "type": "uint8"
                },
                {
                  "internalType": "uint256",
                  "name": "startBlockNumber",
                  "type": "uint256"
                },
                {
                  "internalType": "uint256",
                  "name": "chainlinkResult",
                  "type": "uint256"
                },
                {
                  "internalType": "uint256",
                  "name": "jackpotNumber",
                  "type": "uint256"
                },
                {
                  "internalType": "uint256",
                  "name": "requestId",
                  "type": "uint256"
                },
                {
                  "internalType": "uint256",
                  "name": "winnerCount",
                  "type": "uint256"
                }
              ],
              "internalType": "struct RefundableLottery.RoundInfo",
              "name": "info",
              "type": "tuple"
            },
            {
              "internalType": "uint256",
              "name": "etherPurchaseCount",
              "type": "uint256"
            },
            {
              "internalType": "uint256",
              "name": "chipsPurchaseCount",
              "type": "uint256"
            },
            {
              "internalType": "uint256",
              "name": "playerEtherPurchaseCount",
              "type": "uint256"
            },
            {
              "internalType": "uint256",
              "name": "playerChipsPurchaseCount",
              "type": "uint256"
            },
            {
              "internalType": "uint256",
              "name": "roundEtherBalance",
              "type": "uint256"
            },
            {
              "internalType": "uint256",
              "name": "roundChipsBalance",
              "type": "uint256"
            }
          ],
          "internalType": "struct RefundableLottery.RoundDetail",
          "name": "",
          "type": "tuple"
        }
      ],
      "stateMutability": "view",
      "type": "function"
    },
    {
      "inputs": [],
      "name": "keyHash",
      "outputs": [
        {
          "internalType": "bytes32",
          "name": "",
          "type": "bytes32"
        }
      ],
      "stateMutability": "view",
      "type": "function"
    },
    {
      "inputs": [],
      "name": "manager",
      "outputs": [
        {
          "internalType": "address payable",
          "name": "",
          "type": "address"
        }
      ],
      "stateMutability": "view",
      "type": "function"
    },
    {
      "inputs": [],
      "name": "owner",
      "outputs": [
        {
          "internalType": "address",
          "name": "",
          "type": "address"
        }
      ],
      "stateMutability": "view",
      "type": "function"
    },
    {
      "inputs": [
        {
          "internalType": "uint256",
          "name": "",
          "type": "uint256"
        },
        {
          "internalType": "address",
          "name": "",
          "type": "address"
        }
      ],
      "name": "playerChipsPurchaseCount",
      "outputs": [
        {
          "internalType": "uint256",
          "name": "",
          "type": "uint256"
        }
      ],
      "stateMutability": "view",
      "type": "function"
    },
    {
      "inputs": [
        {
          "internalType": "uint256",
          "name": "",
          "type": "uint256"
        },
        {
          "internalType": "address",
          "name": "",
          "type": "address"
        }
      ],
      "name": "playerEtherPurchaseCount",
      "outputs": [
        {
          "internalType": "uint256",
          "name": "",
          "type": "uint256"
        }
      ],
      "stateMutability": "view",
      "type": "function"
    },
    {
      "inputs": [
        {
          "internalType": "uint256",
          "name": "requestId",
          "type": "uint256"
        },
        {
          "internalType": "uint256[]",
          "name": "randomWords",
          "type": "uint256[]"
        }
      ],
      "name": "rawFulfillRandomWords",
      "outputs": [],
      "stateMutability": "nonpayable",
      "type": "function"
    },
    {
      "inputs": [
        {
          "internalType": "uint256",
          "name": "_previousRoundNumber",
          "type": "uint256"
        }
      ],
      "name": "refund",
      "outputs": [],
      "stateMutability": "nonpayable",
      "type": "function"
    },
    {
      "inputs": [],
      "name": "requestConfirmations",
      "outputs": [
        {
          "internalType": "uint16",
          "name": "",
          "type": "uint16"
        }
      ],
      "stateMutability": "view",
      "type": "function"
    },
    {
      "inputs": [
        {
          "internalType": "uint256",
          "name": "",
          "type": "uint256"
        }
      ],
      "name": "requestIdToRound",
      "outputs": [
        {
          "internalType": "uint256",
          "name": "",
          "type": "uint256"
        }
      ],
      "stateMutability": "view",
      "type": "function"
    },
    {
      "inputs": [],
      "name": "rollTheDice",
      "outputs": [
        {
          "internalType": "uint256",
          "name": "",
          "type": "uint256"
        }
      ],
      "stateMutability": "nonpayable",
      "type": "function"
    },
    {
      "inputs": [
        {
          "internalType": "uint256",
          "name": "",
          "type": "uint256"
        }
      ],
      "name": "roundChipsBalance",
      "outputs": [
        {
          "internalType": "uint256",
          "name": "",
          "type": "uint256"
        }
      ],
      "stateMutability": "view",
      "type": "function"
    },
    {
      "inputs": [
        {
          "internalType": "uint256",
          "name": "",
          "type": "uint256"
        }
      ],
      "name": "roundEtherBalance",
      "outputs": [
        {
          "internalType": "uint256",
          "name": "",
          "type": "uint256"
        }
      ],
      "stateMutability": "view",
      "type": "function"
    },
    {
      "inputs": [
        {
          "internalType": "uint256",
          "name": "",
          "type": "uint256"
        }
      ],
      "name": "roundInfos",
      "outputs": [
        {
          "internalType": "enum RefundableLottery.RoundState",
          "name": "state",
          "type": "uint8"
        },
        {
          "internalType": "uint256",
          "name": "startBlockNumber",
          "type": "uint256"
        },
        {
          "internalType": "uint256",
          "name": "chainlinkResult",
          "type": "uint256"
        },
        {
          "internalType": "uint256",
          "name": "jackpotNumber",
          "type": "uint256"
        },
        {
          "internalType": "uint256",
          "name": "requestId",
          "type": "uint256"
        },
        {
          "internalType": "uint256",
          "name": "winnerCount",
          "type": "uint256"
        }
      ],
      "stateMutability": "view",
      "type": "function"
    },
    {
      "inputs": [],
      "name": "roundNumber",
      "outputs": [
        {
          "internalType": "uint256",
          "name": "",
          "type": "uint256"
        }
      ],
      "stateMutability": "view",
      "type": "function"
    },
    {
      "inputs": [],
      "name": "s_vrfCoordinator",
      "outputs": [
        {
          "internalType": "contract IVRFCoordinatorV2Plus",
          "name": "",
          "type": "address"
        }
      ],
      "stateMutability": "view",
      "type": "function"
    },
    {
      "inputs": [
        {
          "internalType": "address",
          "name": "_vrfCoordinator",
          "type": "address"
        }
      ],
      "name": "setCoordinator",
      "outputs": [],
      "stateMutability": "nonpayable",
      "type": "function"
    },
    {
      "inputs": [],
      "name": "subscriptionId",
      "outputs": [
        {
          "internalType": "uint256",
          "name": "",
          "type": "uint256"
        }
      ],
      "stateMutability": "view",
      "type": "function"
    },
    {
      "inputs": [
        {
          "internalType": "uint256",
          "name": "",
          "type": "uint256"
        },
        {
          "internalType": "uint256",
          "name": "",
          "type": "uint256"
        },
        {
          "internalType": "uint256",
          "name": "",
          "type": "uint256"
        }
      ],
      "name": "ticketHolders",
      "outputs": [
        {
          "internalType": "address",
          "name": "",
          "type": "address"
        }
      ],
      "stateMutability": "view",
      "type": "function"
    },
    {
      "inputs": [
        {
          "internalType": "address",
          "name": "to",
          "type": "address"
        }
      ],
      "name": "transferOwnership",
      "outputs": [],
      "stateMutability": "nonpayable",
      "type": "function"
    }
  ],
  "bytecode": "0x60a0604052600f805465ffffffffffff19166403000186a01790553480156200002757600080fd5b5060405162002d7538038062002d758339810160408190526200004a9162000295565b823380600081620000a25760405162461bcd60e51b815260206004820152601860248201527f43616e6e6f7420736574206f776e657220746f207a65726f000000000000000060448201526064015b60405180910390fd5b600080546001600160a01b0319166001600160a01b0384811691909117909155811615620000d557620000d581620001cd565b5050506001600160a01b038116620001005760405163d92e233d60e01b815260040160405180910390fd5b600280546001600160a01b03199081166001600160a01b0393841617909155600e8490556010869055600d80549091169183169190911790553360805260016003819055600081815260046020527fabd6e7cb50984ff9c2f3e18a2660c3353dadf4e3291deeb275dae2cd1e44fe05805460ff191683179055437fabd6e7cb50984ff9c2f3e18a2660c3353dadf4e3291deeb275dae2cd1e44fe06556040517f33a701182892fd888ed152ca2ac23771a32e814469b7cd255965471e1af3a6599190a250505050620002e0565b336001600160a01b03821603620002275760405162461bcd60e51b815260206004820152601760248201527f43616e6e6f74207472616e7366657220746f2073656c66000000000000000000604482015260640162000099565b600180546001600160a01b0319166001600160a01b0383811691821790925560008054604051929316917fed8889f560326eb138920d842192f0eb3dd22b4f139c87a2c57538e05bae12789190a350565b80516001600160a01b03811681146200029057600080fd5b919050565b60008060008060808587031215620002ac57600080fd5b84519350620002be6020860162000278565b925060408501519150620002d56060860162000278565b905092959194509250565b608051612a6b6200030a600039600081816104c701528181611dc50152611e800152612a6b6000f3fe60806040526004361061023b5760003560e01c80636bbf1fb41161012e578063b16b2549116100ab578063cdd853611161006f578063cdd853611461075f578063ce2a29cc14610774578063cf134a1f146107a1578063d7c2a887146107b6578063f2fde38b146107cb57600080fd5b8063b16b254914610688578063b510c58914610280578063c82a874e146106b5578063c89fcf03146106ed578063cda92be41461070057600080fd5b806393b1e49d116100f257806393b1e49d146105c95780639eccacf6146105e5578063a830f47814610605578063a8504c8f14610625578063b0fb162f1461065257600080fd5b80636bbf1fb41461054c57806379ba5097146105615780637d789dee146105765780638da5cb5b1461058b5780638ea98117146105a957600080fd5b8063278ecde1116101bc578063481c6a7511610180578063481c6a75146104b55780634e2786fb146104e95780634f3ae9f5146104ff57806361728f391461052157806361c5e18e1461053757600080fd5b8063278ecde1146103d257806327e605ec146103f257806328caff91146104075780634077604b1461046d578063443640301461049a57600080fd5b8063139453df11610203578063139453df146103055780631be2963e1461031b5780631fe543e31461035357806323b629b01461037357806324f74697146103a057600080fd5b8063015841e91461024057806303e3c2511461028057806309c1ba2e146102955780630a54211e146102ab5780630ebd676f146102cd575b600080fd5b34801561024c57600080fd5b5061026d61025b366004612469565b600a6020526000908152604090205481565b6040519081526020015b60405180910390f35b34801561028c57600080fd5b5061026d603281565b3480156102a157600080fd5b5061026d60105481565b3480156102b757600080fd5b506102cb6102c6366004612469565b6107eb565b005b3480156102d957600080fd5b5061026d6102e8366004612499565b600860209081526000928352604080842090915290825290205481565b34801561031157600080fd5b5061026d6103e881565b34801561032757600080fd5b5061033b6103363660046124c5565b610bb5565b6040516001600160a01b039091168152602001610277565b34801561035f57600080fd5b506102cb61036e3660046124f1565b610bfa565b34801561037f57600080fd5b5061026d61038e366004612469565b600b6020526000908152604090205481565b3480156103ac57600080fd5b50600f546103bd9063ffffffff1681565b60405163ffffffff9091168152602001610277565b3480156103de57600080fd5b506102cb6103ed366004612469565b610c4a565b3480156103fe57600080fd5b506102cb610db8565b34801561041357600080fd5b5061045b610422366004612469565b600460208190526000918252604090912080546001820154600283015460038401549484015460059094015460ff909316949193909286565b604051610277969594939291906125a8565b34801561047957600080fd5b5061026d610488366004612469565b600c6020526000908152604090205481565b3480156104a657600080fd5b5061026d662386f26fc1000081565b3480156104c157600080fd5b5061033b7f000000000000000000000000000000000000000000000000000000000000000081565b3480156104f557600080fd5b5061026d60035481565b34801561050b57600080fd5b50610514610eca565b60405161027791906125de565b34801561052d57600080fd5b5061026d600e5481565b34801561054357600080fd5b5061026d600f81565b34801561055857600080fd5b5061026d610f31565b34801561056d57600080fd5b506102cb610f6c565b34801561058257600080fd5b5061026d611016565b34801561059757600080fd5b506000546001600160a01b031661033b565b3480156105b557600080fd5b506102cb6105c43660046125f2565b611252565b3480156105d557600080fd5b5061026d670de0b6b3a764000081565b3480156105f157600080fd5b5060025461033b906001600160a01b031681565b34801561061157600080fd5b50600d5461033b906001600160a01b031681565b34801561063157600080fd5b50610645610640366004612469565b611344565b6040516102779190612655565b34801561065e57600080fd5b50600f5461067590640100000000900461ffff1681565b60405161ffff9091168152602001610277565b34801561069457600080fd5b5061026d6106a3366004612469565b60066020526000908152604090205481565b3480156106c157600080fd5b5061026d6106d0366004612499565b600760209081526000928352604080842090915290825290205481565b6102cb6106fb366004612469565b61149a565b34801561070c57600080fd5b506107156116ef565b604080519a8b5260208b0199909952978901969096526060880194909452608087019290925260a086015260c085015260e084015261010083015261012082015261014001610277565b34801561076b57600080fd5b5061026d606481565b34801561078057600080fd5b5061026d61078f366004612469565b60056020526000908152604090205481565b3480156107ad57600080fd5b5061026d61174a565b3480156107c257600080fd5b5061026d600181565b3480156107d757600080fd5b506102cb6107e63660046125f2565b611760565b600160035460009081526004602052604090205460ff16600581111561081357610813612570565b146108655760405162461bcd60e51b815260206004820181905260248201527f5468652063757272656e7420726f756e64206973206e6f7420706c6179696e6760448201526064015b60405180910390fd5b6003546000908152600460205260409020600101544390610888906064906126e4565b116108a55760405162461bcd60e51b815260040161085c906126f7565b600f8111156108c65760405162461bcd60e51b815260040161085c90612754565b3332146108e55760405162461bcd60e51b815260040161085c906127a1565b60035460009081526006602052604081208054600192906109079084906126e4565b9091555050600354600090815260066020908152604080832054600590925290912054806109b15760405162461bcd60e51b815260206004820152604b60248201527f5468657265206973206e6f20706c61796572207573696e67204574686572206960448201527f6e207468697320726f756e642c20736f20796f752063616e206e6f742075736560648201526a1021b434b839aa37b5b2b760a91b608482015260a40161085c565b60326109bd82846126e4565b6109c88460646127fe565b6109d2919061282b565b1115610a625760405162461bcd60e51b815260206004820152605360248201527f546865206e756d626572206f6620706c6179657273207573696e67204368697060448201527f73546f6b656e2073686f756c64206265206c657373207468616e20353025206f606482015272662074686520746f74616c20706c617965727360681b608482015260a40161085c565b60035460009081526008602090815260408083203384529091528120805460019290610a8f9084906126e4565b909155505060035460009081526009602090815260408083208684528252822080546001810182559083529082200180546001600160a01b03191633179055610ad6610f31565b600d546040516354390e1760e11b8152336004820152306024820152604481018390529192506001600160a01b03169063a8721c2e90606401600060405180830381600087803b158015610b2957600080fd5b505af1158015610b3d573d6000803e3d6000fd5b50506003546000908152600b602052604081208054859450909250610b639084906126e4565b9091555050600354604080518681526020810184905260018183015290513392917ff471259fc541585bf572a377eaebdb27bdfa4b06bf84e0b1001daa5712e748bd919081900360600190a350505050565b60096020528260005260406000206020528160005260406000208181548110610bdd57600080fd5b6000918252602090912001546001600160a01b0316925083915050565b6002546001600160a01b03163314610c3a5760025460405163073e64fd60e21b81523360048201526001600160a01b03909116602482015260440161085c565b610c45838383611774565b505050565b600560008281526004602052604090205460ff166005811115610c6f57610c6f612570565b14610cd65760405162461bcd60e51b815260206004820152603160248201527f596f752063616e206e6f7420726566756e64206120726f756e64207768696368604482015270081a5cc81b9bdd0818dbdb5c1b195d1959607a1b606482015260840161085c565b60008181526004602052604090206005015415610d5b5760405162461bcd60e51b815260206004820152603c60248201527f546865207072697a6520706f6f6c206f66207468697320726f756e642068617360448201527f206265656e2074616b656e206279207468652077696e6e657228732900000000606482015260840161085c565b6000610d668261198e565b90506000610d7383611b56565b6040805184815260208101839052919250339185917faba4210cad11f1112f31ba136a61cdc0f6ab4c2b478da8c93eec1d9769e97a89910160405180910390a3505050565b600460035460009081526004602052604090205460ff166005811115610de057610de0612570565b14610e405760405162461bcd60e51b815260206004820152602a60248201527f5468652063757272656e7420726f756e64207374617465206973206e6f74205260448201526945414459544f4452415760b01b606482015260840161085c565b6003805460009081526004602052604090200154610e5d90611d4a565b600d546040516340c10f1960e01b8152336004820152670de0b6b3a764000060248201526001600160a01b03909116906340c10f1990604401600060405180830381600087803b158015610eb057600080fd5b505af1158015610ec4573d6000803e3d6000fd5b50505050565b60035460009081526004602052604081205460ff166001816005811115610ef357610ef3612570565b148015610f1f5750600354600090815260046020526040902060010154610f1c906064906126e4565b43115b15610f2c57600291505090565b919050565b60006064610f4060328261283f565b610f536103e8662386f26fc100006127fe565b610f5d91906127fe565b610f67919061282b565b905090565b6001546001600160a01b03163314610fbf5760405162461bcd60e51b815260206004820152601660248201527526bab9ba10313290383937b837b9b2b21037bbb732b960511b604482015260640161085c565b60008054336001600160a01b0319808316821784556001805490911690556040516001600160a01b0390921692909183917f8be0079c531659141344cd1fd0a4f28419497f9722a3daafe3b4186f6b6457e091a350565b60006002611022610eca565b600581111561103357611033612570565b1461108f5760405162461bcd60e51b815260206004820152602660248201527f5468652063757272656e7420726f756e64206973206e6f7420726561647920746044820152651bc81c9bdb1b60d21b606482015260840161085c565b600380546000908152600460209081526040808320805460ff1916909417909355600254835160c081018552600e54815260105481840152600f54640100000000810461ffff168287015263ffffffff16606082015260016080820152845192830190945282825291926001600160a01b0390921691639b1c385e9160a082019061111990612278565b8152506040518263ffffffff1660e01b81526004016111389190612852565b6020604051808303816000875af1158015611157573d6000803e3d6000fd5b505050506040513d601f19601f8201168201806040525081019061117b91906128f0565b6003805460009081526004602081815260408084209092018590559254848352600c84529181902082905580518481523393810193909352929350917e5cad569b235bccd21a222b2ca5705e7bcfc283436ec3ac0a0b17076cd5c70e910160405180910390a2600d546040516340c10f1960e01b8152336004820152670de0b6b3a764000060248201526001600160a01b03909116906340c10f1990604401600060405180830381600087803b15801561123457600080fd5b505af1158015611248573d6000803e3d6000fd5b5092949350505050565b6000546001600160a01b0316331480159061127857506002546001600160a01b03163314155b156112c957336112906000546001600160a01b031690565b60025460405163061db9c160e01b81526001600160a01b039384166004820152918316602483015291909116604482015260640161085c565b6001600160a01b0381166112f05760405163d92e233d60e01b815260040160405180910390fd5b600280546001600160a01b0319166001600160a01b0383169081179091556040519081527fd1a6a14209a385a964d036e404cb5cfb71f4000cdb03c9366292430787261be69060200160405180910390a150565b61134c6123e7565b8160000361135a5760035491505b604051806101200160405280838152602001611374610eca565b600581111561138557611385612570565b8152600084815260046020908152604091829020825160c081019093528054919093019290829060ff1660058111156113c0576113c0612570565b60058111156113d1576113d1612570565b8152600182015460208083019190915260028301546040808401919091526003840154606080850191909152600485015460808086019190915260059586015460a09586015295875260008a81529483528185205487840152898552600683528185205487830152898552600783528185203380875290845282862054918801919091528985526008835281852090855282528084205494860194909452878352600a81528383205491850191909152958152600b9095529093205460c0909301929092525090565b600160035460009081526004602052604090205460ff1660058111156114c2576114c2612570565b1461150f5760405162461bcd60e51b815260206004820181905260248201527f5468652063757272656e7420726f756e64206973206e6f7420706c6179696e67604482015260640161085c565b6003546000908152600460205260409020600101544390611532906064906126e4565b1161154f5760405162461bcd60e51b815260040161085c906126f7565b662386f26fc1000034146115b15760405162461bcd60e51b8152602060048201526024808201527f54686520707269636520666f722061207469636b657420697320302e303120656044820152633a3432b960e11b606482015260840161085c565b600f8111156115d25760405162461bcd60e51b815260040161085c90612754565b3332146115f15760405162461bcd60e51b815260040161085c906127a1565b6003546000908152600760209081526040808320338452909152812080546001929061161e9084906126e4565b9091555050600380546000908152600960209081526040808320858452825280832080546001810182559084528284200180546001600160a01b0319163317905592548252600a9052908120805434929061167a9084906126e4565b909155505060035460009081526005602052604081208054600192906116a19084906126e4565b90915550506003546040805183815234602082015260008183015290513392917ff471259fc541585bf572a377eaebdb27bdfa4b06bf84e0b1001daa5712e748bd919081900360600190a350565b60008080808080808080806001662386f26fc10000600f6103e8603261171582856127fe565b60326064670de0b6b3a764000061172a610f31565b995099509950995099509950995099509950995090919293949596979899565b61175d6103e8662386f26fc100006127fe565b81565b6117686122e9565b6117718161233e565b50565b6003546000848152600c6020526040902054146117e65760405162461bcd60e51b815260206004820152602a60248201527f54686520726571756573744964206973206e6f7420666f7220746865206375726044820152691c995b9d081c9bdd5b9960b21b606482015260840161085c565b6003805460009081526004602052604090205460ff16600581111561180d5761180d612570565b146118695760405162461bcd60e51b815260206004820152602660248201527f5468652063757272656e7420726f756e64207374617465206973206e6f7420526044820152654f4c4c494e4760d01b606482015260840161085c565b60035460009081526004602081905260408220805460ff19169091179055829082908161189857611898612909565b9050602002013560046000600354815260200190815260200160002060020181905550600f60016118c991906126e4565b828260008181106118dc576118dc612909565b905060200201356118ed919061291f565b600460006003548152602001908152602001600020600301819055506003547f6fa5a1670dd7f8ec3e75741cecdac98c388155b7fda5982a4877c317b23aa4fa848484600081811061194157611941612909565b9050602002013560046000600354815260200190815260200160002060030154604051611981939291909283526020830191909152604082015260600190565b60405180910390a2505050565b60008181526007602090815260408083203384529091528120548082036119b85750600092915050565b6000838152600760209081526040808320338452909152812081905560646119e160018261283f565b6119f2662386f26fc10000856127fe565b6119fc91906127fe565b611a06919061282b565b6000858152600a6020526040902054909150811115611a375760405162461bcd60e51b815260040161085c90612933565b80471015611a575760405162461bcd60e51b815260040161085c90612985565b6000848152600a602052604081208054839290611a7590849061283f565b9091555050604051339082156108fc029083906000818181858888f19350505050158015611aa7573d6000803e3d6000fd5b50600d546001600160a01b03166340c10f193360646103e86001611ad2662386f26fc10000896127fe565b611adc91906127fe565b611ae691906127fe565b611af0919061282b565b6040516001600160e01b031960e085901b1681526001600160a01b0390921660048301526024820152604401600060405180830381600087803b158015611b3657600080fd5b505af1158015611b4a573d6000803e3d6000fd5b50929695505050505050565b6000818152600860209081526040808320338452909152812054808203611b805750600092915050565b60008381526008602090815260408083203384529091528120819055611ba4610f31565b905060006064611bb560018261283f565b611bbf84866127fe565b611bc991906127fe565b611bd3919061282b565b6000868152600b6020526040902054909150811115611c045760405162461bcd60e51b815260040161085c90612933565b600d546040516370a0823160e01b815230600482015282916001600160a01b0316906370a0823190602401602060405180830381865afa158015611c4c573d6000803e3d6000fd5b505050506040513d601f19601f82011682018060405250810190611c7091906128f0565b1015611c8e5760405162461bcd60e51b815260040161085c90612985565b6000858152600b602052604081208054839290611cac90849061283f565b9091555050600d5460405163a9059cbb60e01b8152336004820152602481018390526001600160a01b039091169063a9059cbb906044016020604051808303816000875af1158015611d02573d6000803e3d6000fd5b505050506040513d601f19601f82011682018060405250810190611d2691906129d2565b611d425760405162461bcd60e51b815260040161085c906129f4565b949350505050565b6003546000908152600a602052604090205415611f01576003546000908152600a6020526040812054606490611d82906001906127fe565b611d8c919061282b565b905080600a600060035481526020019081526020016000206000828254611db3919061283f565b90915550506040516001600160a01b037f0000000000000000000000000000000000000000000000000000000000000000169082156108fc029083906000818181858888f19350505050158015611e0e573d6000803e3d6000fd5b506003546000908152600b6020526040812054606490611e30906001906127fe565b611e3a919061282b565b905080600b600060035481526020019081526020016000206000828254611e61919061283f565b9091555050600d5460405163a9059cbb60e01b81526001600160a01b037f000000000000000000000000000000000000000000000000000000000000000081166004830152602482018490529091169063a9059cbb906044016020604051808303816000875af1158015611ed9573d6000803e3d6000fd5b505050506040513d601f19601f82011682018060405250810190611efd91906129d2565b5050505b6003546000908152600960209081526040808320848452909152902054801561219d576003546000908152600a6020526040812054611f4190839061282b565b6003546000908152600b602052604081205491925090611f6290849061282b565b600380546000908152600a6020908152604080832083905592548252600b90529081208190559091505b60035460009081526009602090815260408083208884529091529020548110156121995760035460009081526009602090815260408083208884529091529020805482908110611fde57611fde612909565b60009182526020822001546040516001600160a01b039091169185156108fc02918691818181858888f1935050505015801561201e573d6000803e3d6000fd5b50811561210257600d546003546000908152600960209081526040808320898452909152902080546001600160a01b039092169163a9059cbb91908490811061206957612069612909565b60009182526020909120015460405160e083901b6001600160e01b03191681526001600160a01b039091166004820152602481018590526044016020604051808303816000875af11580156120c2573d6000803e3d6000fd5b505050506040513d601f19601f820116820180604052508101906120e691906129d2565b6121025760405162461bcd60e51b815260040161085c906129f4565b6003546000818152600960209081526040808320898452909152902080547fa7690abde6991f1cc0867efd5b8921cc6665a59a5f771665d8213ff7a75540c79188918590811061215457612154612909565b60009182526020918290200154604080519384526001600160a01b039091169183019190915281018690526060810185905260800160405180910390a2600101611f8c565b5050505b600380546000908152600460205260408082206005908101859055925482529020805460ff1916600183021790555060035460408051848152602081018490527fc5285db7d8a9c3a0ce0e8982ff9a84fe8df355101d9545735558c69efb4aad57910160405180910390a260016003600082825461221b91906126e4565b909155505060038054600090815260046020526040808220805460ff191660019081179091558354835281832043910155915491517f33a701182892fd888ed152ca2ac23771a32e814469b7cd255965471e1af3a6599190a25050565b60607f92fd13387c7fe7befbc38d303d6468778fb9731bc4583f17d92989c6fcfdeaaa826040516024016122b191511515815260200190565b60408051601f198184030181529190526020810180516001600160e01b03166001600160e01b03199093169290921790915292915050565b6000546001600160a01b0316331461233c5760405162461bcd60e51b815260206004820152601660248201527527b7363c9031b0b63630b1363290313c9037bbb732b960511b604482015260640161085c565b565b336001600160a01b038216036123965760405162461bcd60e51b815260206004820152601760248201527f43616e6e6f74207472616e7366657220746f2073656c66000000000000000000604482015260640161085c565b600180546001600160a01b0319166001600160a01b0383811691821790925560008054604051929316917fed8889f560326eb138920d842192f0eb3dd22b4f139c87a2c57538e05bae12789190a350565b6040805161012081018252600080825260208201529081016124396040805160c08101909152806000815260200160008152602001600081526020016000815260200160008152602001600081525090565b81526020016000815260200160008152602001600081526020016000815260200160008152602001600081525090565b60006020828403121561247b57600080fd5b5035919050565b80356001600160a01b0381168114610f2c57600080fd5b600080604083850312156124ac57600080fd5b823591506124bc60208401612482565b90509250929050565b6000806000606084860312156124da57600080fd5b505081359360208301359350604090920135919050565b60008060006040848603121561250657600080fd5b83359250602084013567ffffffffffffffff8082111561252557600080fd5b818601915086601f83011261253957600080fd5b81358181111561254857600080fd5b8760208260051b850101111561255d57600080fd5b6020830194508093505050509250925092565b634e487b7160e01b600052602160045260246000fd5b600681106125a457634e487b7160e01b600052602160045260246000fd5b9052565b60c081016125b68289612586565b602082019690965260408101949094526060840192909252608083015260a090910152919050565b602081016125ec8284612586565b92915050565b60006020828403121561260457600080fd5b61260d82612482565b9392505050565b61261f828251612586565b6020810151602083015260408101516040830152606081015160608301526080810151608083015260a081015160a08301525050565b815181526020808301516101c083019161267190840182612586565b5060408301516126846040840182612614565b50606083015161010083810191909152608084015161012084015260a084015161014084015260c084015161016084015260e0840151610180840152909201516101a09091015290565b634e487b7160e01b600052601160045260246000fd5b808201808211156125ec576125ec6126ce565b60208082526038908201527f5468652063757272656e7420726f756e6420697320656e642c20706c6561736560408201527f207761697420666f7220746865206e65787420726f756e640000000000000000606082015260800190565b6020808252602d908201527f546865207469636b6574206e756d6265722073686f756c64206265206265747760408201526c65656e205b302c36353533355d60981b606082015260800190565b60208082526039908201527f4f6e6c7920454f412845787465726e616c6c79204f776e6564204163636f756e60408201527f74292063616e2063616c6c20746869732066756e6374696f6e00000000000000606082015260800190565b80820281158282048414176125ec576125ec6126ce565b634e487b7160e01b600052601260045260246000fd5b60008261283a5761283a612815565b500490565b818103818111156125ec576125ec6126ce565b60006020808352835160208401526020840151604084015261ffff6040850151166060840152606084015163ffffffff80821660808601528060808701511660a0860152505060a084015160c08085015280518060e086015260005b818110156128cb57828101840151868201610100015283016128ae565b506101009250600083828701015282601f19601f830116860101935050505092915050565b60006020828403121561290257600080fd5b5051919050565b634e487b7160e01b600052603260045260246000fd5b60008261292e5761292e612815565b500690565b60208082526032908201527f5468652062616c616e6365206f66207468697320726f756e64206973206e6f7460408201527108195b9bdd59da08199bdc881c99599d5b9960721b606082015260800190565b6020808252602d908201527f54686520636f6e74726163742062616c616e6365206973206e6f7420656e6f7560408201526c19da08199bdc881c99599d5b99609a1b606082015260800190565b6000602082840312156129e457600080fd5b8151801515811461260d57600080fd5b60208082526021908201527f546865207472616e73666572206f66204368697073546f6b656e206661696c656040820152601960fa1b60608201526080019056fea2646970667358221220a9d3ed6268bee12c33d9160bfd14b5cb00a056af002686b15c155937fd65463964736f6c63430008180033",
  "linkReferences": {},
  "deployedLinkReferences": {}
}