{
  "_format": "hh-sol-artifact-1",
  "contractName": "RefundableLottery",
  "sourceName": "contracts/RefundableLottery.sol",
  "abi": [
    {
      "inputs": [
        {
          "internalType": "uint256",
          "name": "_subscriptionId",
          "type": "uint256"
        },
        {
          "internalType": "address",
          "name": "_vrf",
          "type": "address"
        },
        {
          "internalType": "bytes32",
          "name": "_keyHash",
          "type": "bytes32"
        },
        {
          "internalType": "address",
          "name": "_chipsToken",
          "type": "address"
        }
      ],
      "stateMutability": "nonpayable",
      "type": "constructor"
    },
    {
      "inputs": [
        {
          "internalType": "address",
          "name": "have",
          "type": "address"
        },
        {
          "internalType": "address",
          "name": "want",
          "type": "address"
        }
      ],
      "name": "OnlyCoordinatorCanFulfill",
      "type": "error"
    },
    {
      "inputs": [
        {
          "internalType": "address",
          "name": "have",
          "type": "address"
        },
        {
          "internalType": "address",
          "name": "owner",
          "type": "address"
        },
        {
          "internalType": "address",
          "name": "coordinator",
          "type": "address"
        }
      ],
      "name": "OnlyOwnerOrCoordinator",
      "type": "error"
    },
    {
      "inputs": [],
      "name": "ZeroAddress",
      "type": "error"
    },
    {
      "anonymous": false,
      "inputs": [
        {
          "indexed": true,
          "internalType": "uint256",
          "name": "roundNumber",
          "type": "uint256"
        },
        {
          "indexed": true,
          "internalType": "address",
          "name": "player",
          "type": "address"
        },
        {
          "indexed": false,
          "internalType": "uint256",
          "name": "ticketNumber",
          "type": "uint256"
        },
        {
          "indexed": false,
          "internalType": "uint256",
          "name": "amount",
          "type": "uint256"
        },
        {
          "indexed": false,
          "internalType": "bool",
          "name": "inChips",
          "type": "bool"
        }
      ],
      "name": "BuyTicket",
      "type": "event"
    },
    {
      "anonymous": false,
      "inputs": [
        {
          "indexed": false,
          "internalType": "address",
          "name": "vrfCoordinator",
          "type": "address"
        }
      ],
      "name": "CoordinatorSet",
      "type": "event"
    },
    {
      "anonymous": false,
      "inputs": [
        {
          "indexed": true,
          "internalType": "uint256",
          "name": "roundNumber",
          "type": "uint256"
        },
        {
          "indexed": false,
          "internalType": "uint256",
          "name": "jackpotNumber",
          "type": "uint256"
        },
        {
          "indexed": false,
          "internalType": "address",
          "name": "winner",
          "type": "address"
        },
        {
          "indexed": false,
          "internalType": "uint256",
          "name": "etherAmount",
          "type": "uint256"
        },
        {
          "indexed": false,
          "internalType": "uint256",
          "name": "chipsAmount",
          "type": "uint256"
        }
      ],
      "name": "DrawLottery",
      "type": "event"
    },
    {
      "anonymous": false,
      "inputs": [
        {
          "indexed": true,
          "internalType": "uint256",
          "name": "roundNumber",
          "type": "uint256"
        },
        {
          "indexed": false,
          "internalType": "uint256",
          "name": "requestId",
          "type": "uint256"
        },
        {
          "indexed": false,
          "internalType": "uint256",
          "name": "chainlinkResult",
          "type": "uint256"
        },
        {
          "indexed": false,
          "internalType": "uint256",
          "name": "jackpotNumber",
          "type": "uint256"
        }
      ],
      "name": "LotteryDrawing",
      "type": "event"
    },
    {
      "anonymous": false,
      "inputs": [
        {
          "indexed": true,
          "internalType": "uint256",
          "name": "roundNumber",
          "type": "uint256"
        },
        {
          "indexed": false,
          "internalType": "uint256",
          "name": "requestId",
          "type": "uint256"
        },
        {
          "indexed": false,
          "internalType": "address",
          "name": "roller",
          "type": "address"
        }
      ],
      "name": "LotteryRolling",
      "type": "event"
    },
    {
      "anonymous": false,
      "inputs": [
        {
          "indexed": true,
          "internalType": "address",
          "name": "from",
          "type": "address"
        },
        {
          "indexed": true,
          "internalType": "address",
          "name": "to",
          "type": "address"
        }
      ],
      "name": "OwnershipTransferRequested",
      "type": "event"
    },
    {
      "anonymous": false,
      "inputs": [
        {
          "indexed": true,
          "internalType": "address",
          "name": "from",
          "type": "address"
        },
        {
          "indexed": true,
          "internalType": "address",
          "name": "to",
          "type": "address"
        }
      ],
      "name": "OwnershipTransferred",
      "type": "event"
    },
    {
      "anonymous": false,
      "inputs": [
        {
          "indexed": true,
          "internalType": "uint256",
          "name": "roundNumber",
          "type": "uint256"
        },
        {
          "indexed": true,
          "internalType": "address",
          "name": "player",
          "type": "address"
        },
        {
          "indexed": false,
          "internalType": "uint256",
          "name": "refundEtherAmount",
          "type": "uint256"
        },
        {
          "indexed": false,
          "internalType": "uint256",
          "name": "refundChipsAmount",
          "type": "uint256"
        }
      ],
      "name": "Refund",
      "type": "event"
    },
    {
      "anonymous": false,
      "inputs": [
        {
          "indexed": true,
          "internalType": "uint256",
          "name": "roundNumber",
          "type": "uint256"
        },
        {
          "indexed": false,
          "internalType": "uint256",
          "name": "jackpotNumber",
          "type": "uint256"
        },
        {
          "indexed": false,
          "internalType": "uint256",
          "name": "winnerCount",
          "type": "uint256"
        }
      ],
      "name": "RoundEnded",
      "type": "event"
    },
    {
      "anonymous": false,
      "inputs": [
        {
          "indexed": true,
          "internalType": "uint256",
          "name": "roundNumber",
          "type": "uint256"
        }
      ],
      "name": "RoundStarted",
      "type": "event"
    },
    {
      "inputs": [],
      "name": "CHIPS_PRICE_PER_ETHER",
      "outputs": [
        {
          "internalType": "uint256",
          "name": "",
          "type": "uint256"
        }
      ],
      "stateMutability": "view",
      "type": "function"
    },
    {
      "inputs": [],
      "name": "DISCOUNT_RATE",
      "outputs": [
        {
          "internalType": "uint256",
          "name": "",
          "type": "uint256"
        }
      ],
      "stateMutability": "view",
      "type": "function"
    },
    {
      "inputs": [],
      "name": "MANAGEMENT_FEE_RATE",
      "outputs": [
        {
          "internalType": "uint256",
          "name": "",
          "type": "uint256"
        }
      ],
      "stateMutability": "view",
      "type": "function"
    },
    {
      "inputs": [],
      "name": "MAX_PARTICIPATE_RATE_USING_CHIPS",
      "outputs": [
        {
          "internalType": "uint256",
          "name": "",
          "type": "uint256"
        }
      ],
      "stateMutability": "view",
      "type": "function"
    },
    {
      "inputs": [],
      "name": "REWARD_CHIPS_FOR_OPERATOR",
      "outputs": [
        {
          "internalType": "uint256",
          "name": "",
          "type": "uint256"
        }
      ],
      "stateMutability": "view",
      "type": "function"
    },
    {
      "inputs": [],
      "name": "ROUND_PERIOD",
      "outputs": [
        {
          "internalType": "uint256",
          "name": "",
          "type": "uint256"
        }
      ],
      "stateMutability": "view",
      "type": "function"
    },
    {
      "inputs": [],
      "name": "TICKET_NUMBER_RANGE",
      "outputs": [
        {
          "internalType": "uint256",
          "name": "",
          "type": "uint256"
        }
      ],
      "stateMutability": "view",
      "type": "function"
    },
    {
      "inputs": [],
      "name": "TICKET_PRICE_IN_CHIPS",
      "outputs": [
        {
          "internalType": "uint256",
          "name": "",
          "type": "uint256"
        }
      ],
      "stateMutability": "view",
      "type": "function"
    },
    {
      "inputs": [],
      "name": "TICKET_PRICE_IN_ETHER",
      "outputs": [
        {
          "internalType": "uint256",
          "name": "",
          "type": "uint256"
        }
      ],
      "stateMutability": "view",
      "type": "function"
    },
    {
      "inputs": [],
      "name": "acceptOwnership",
      "outputs": [],
      "stateMutability": "nonpayable",
      "type": "function"
    },
    {
      "inputs": [
        {
          "internalType": "uint256",
          "name": "_ticketNumber",
          "type": "uint256"
        }
      ],
      "name": "buyTicketWithChips",
      "outputs": [],
      "stateMutability": "nonpayable",
      "type": "function"
    },
    {
      "inputs": [
        {
          "internalType": "uint256",
          "name": "_ticketNumber",
          "type": "uint256"
        }
      ],
      "name": "buyTicketWithEther",
      "outputs": [],
      "stateMutability": "payable",
      "type": "function"
    },
    {
      "inputs": [],
      "name": "callbackGasLimit",
      "outputs": [
        {
          "internalType": "uint32",
          "name": "",
          "type": "uint32"
        }
      ],
      "stateMutability": "view",
      "type": "function"
    },
    {
      "inputs": [
        {
          "internalType": "uint256",
          "name": "",
          "type": "uint256"
        }
      ],
      "name": "chipsPurchaseCount",
      "outputs": [
        {
          "internalType": "uint256",
          "name": "",
          "type": "uint256"
        }
      ],
      "stateMutability": "view",
      "type": "function"
    },
    {
      "inputs": [],
      "name": "chipsToken",
      "outputs": [
        {
          "internalType": "contract IChipsToken",
          "name": "",
          "type": "address"
        }
      ],
      "stateMutability": "view",
      "type": "function"
    },
    {
      "inputs": [],
      "name": "drawLottery",
      "outputs": [],
      "stateMutability": "nonpayable",
      "type": "function"
    },
    {
      "inputs": [
        {
          "internalType": "uint256",
          "name": "",
          "type": "uint256"
        }
      ],
      "name": "etherPurchaseCount",
      "outputs": [
        {
          "internalType": "uint256",
          "name": "",
          "type": "uint256"
        }
      ],
      "stateMutability": "view",
      "type": "function"
    },
    {
      "inputs": [],
      "name": "getCurRoundState",
      "outputs": [
        {
          "internalType": "enum RefundableLottery.RoundState",
          "name": "",
          "type": "uint8"
        }
      ],
      "stateMutability": "view",
      "type": "function"
    },
    {
      "inputs": [],
      "name": "getDiscountedPriceInChips",
      "outputs": [
        {
          "internalType": "uint256",
          "name": "",
          "type": "uint256"
        }
      ],
      "stateMutability": "pure",
      "type": "function"
    },
    {
      "inputs": [],
      "name": "getGlobalConfig",
      "outputs": [
        {
          "internalType": "uint256",
          "name": "",
          "type": "uint256"
        },
        {
          "internalType": "uint256",
          "name": "",
          "type": "uint256"
        },
        {
          "internalType": "uint256",
          "name": "",
          "type": "uint256"
        },
        {
          "internalType": "uint256",
          "name": "",
          "type": "uint256"
        },
        {
          "internalType": "uint256",
          "name": "",
          "type": "uint256"
        },
        {
          "internalType": "uint256",
          "name": "",
          "type": "uint256"
        },
        {
          "internalType": "uint256",
          "name": "",
          "type": "uint256"
        },
        {
          "internalType": "uint256",
          "name": "",
          "type": "uint256"
        },
        {
          "internalType": "uint256",
          "name": "",
          "type": "uint256"
        },
        {
          "internalType": "uint256",
          "name": "",
          "type": "uint256"
        }
      ],
      "stateMutability": "pure",
      "type": "function"
    },
    {
      "inputs": [
        {
          "internalType": "uint256",
          "name": "_roundNumber",
          "type": "uint256"
        }
      ],
      "name": "getRoundDetail",
      "outputs": [
        {
          "components": [
            {
              "internalType": "uint256",
              "name": "roundNumber",
              "type": "uint256"
            },
            {
              "internalType": "enum RefundableLottery.RoundState",
              "name": "realtimeState",
              "type": "uint8"
            },
            {
              "components": [
                {
                  "internalType": "enum RefundableLottery.RoundState",
                  "name": "state",
                  "type": "uint8"
                },
                {
                  "internalType": "uint256",
                  "name": "startBlockNumber",
                  "type": "uint256"
                },
                {
                  "internalType": "uint256",
                  "name": "chainlinkResult",
                  "type": "uint256"
                },
                {
                  "internalType": "uint256",
                  "name": "jackpotNumber",
                  "type": "uint256"
                },
                {
                  "internalType": "uint256",
                  "name": "requestId",
                  "type": "uint256"
                },
                {
                  "internalType": "uint256",
                  "name": "winnerCount",
                  "type": "uint256"
                }
              ],
              "internalType": "struct RefundableLottery.RoundInfo",
              "name": "info",
              "type": "tuple"
            },
            {
              "internalType": "uint256",
              "name": "etherPurchaseCount",
              "type": "uint256"
            },
            {
              "internalType": "uint256",
              "name": "chipsPurchaseCount",
              "type": "uint256"
            },
            {
              "internalType": "uint256",
              "name": "playerEtherPurchaseCount",
              "type": "uint256"
            },
            {
              "internalType": "uint256",
              "name": "playerChipsPurchaseCount",
              "type": "uint256"
            },
            {
              "internalType": "uint256",
              "name": "roundEtherBalance",
              "type": "uint256"
            },
            {
              "internalType": "uint256",
              "name": "roundChipsBalance",
              "type": "uint256"
            }
          ],
          "internalType": "struct RefundableLottery.RoundDetail",
          "name": "",
          "type": "tuple"
        }
      ],
      "stateMutability": "view",
      "type": "function"
    },
    {
      "inputs": [],
      "name": "keyHash",
      "outputs": [
        {
          "internalType": "bytes32",
          "name": "",
          "type": "bytes32"
        }
      ],
      "stateMutability": "view",
      "type": "function"
    },
    {
      "inputs": [],
      "name": "manager",
      "outputs": [
        {
          "internalType": "address payable",
          "name": "",
          "type": "address"
        }
      ],
      "stateMutability": "view",
      "type": "function"
    },
    {
      "inputs": [],
      "name": "owner",
      "outputs": [
        {
          "internalType": "address",
          "name": "",
          "type": "address"
        }
      ],
      "stateMutability": "view",
      "type": "function"
    },
    {
      "inputs": [
        {
          "internalType": "uint256",
          "name": "",
          "type": "uint256"
        },
        {
          "internalType": "address",
          "name": "",
          "type": "address"
        }
      ],
      "name": "playerChipsPurchaseCount",
      "outputs": [
        {
          "internalType": "uint256",
          "name": "",
          "type": "uint256"
        }
      ],
      "stateMutability": "view",
      "type": "function"
    },
    {
      "inputs": [
        {
          "internalType": "uint256",
          "name": "",
          "type": "uint256"
        },
        {
          "internalType": "address",
          "name": "",
          "type": "address"
        }
      ],
      "name": "playerEtherPurchaseCount",
      "outputs": [
        {
          "internalType": "uint256",
          "name": "",
          "type": "uint256"
        }
      ],
      "stateMutability": "view",
      "type": "function"
    },
    {
      "inputs": [
        {
          "internalType": "uint256",
          "name": "requestId",
          "type": "uint256"
        },
        {
          "internalType": "uint256[]",
          "name": "randomWords",
          "type": "uint256[]"
        }
      ],
      "name": "rawFulfillRandomWords",
      "outputs": [],
      "stateMutability": "nonpayable",
      "type": "function"
    },
    {
      "inputs": [
        {
          "internalType": "uint256",
          "name": "_previousRoundNumber",
          "type": "uint256"
        }
      ],
      "name": "refund",
      "outputs": [],
      "stateMutability": "nonpayable",
      "type": "function"
    },
    {
      "inputs": [],
      "name": "requestConfirmations",
      "outputs": [
        {
          "internalType": "uint16",
          "name": "",
          "type": "uint16"
        }
      ],
      "stateMutability": "view",
      "type": "function"
    },
    {
      "inputs": [
        {
          "internalType": "uint256",
          "name": "",
          "type": "uint256"
        }
      ],
      "name": "requestIdToRound",
      "outputs": [
        {
          "internalType": "uint256",
          "name": "",
          "type": "uint256"
        }
      ],
      "stateMutability": "view",
      "type": "function"
    },
    {
      "inputs": [],
      "name": "rollTheDice",
      "outputs": [
        {
          "internalType": "uint256",
          "name": "",
          "type": "uint256"
        }
      ],
      "stateMutability": "nonpayable",
      "type": "function"
    },
    {
      "inputs": [
        {
          "internalType": "uint256",
          "name": "",
          "type": "uint256"
        }
      ],
      "name": "roundChipsBalance",
      "outputs": [
        {
          "internalType": "uint256",
          "name": "",
          "type": "uint256"
        }
      ],
      "stateMutability": "view",
      "type": "function"
    },
    {
      "inputs": [
        {
          "internalType": "uint256",
          "name": "",
          "type": "uint256"
        }
      ],
      "name": "roundEtherBalance",
      "outputs": [
        {
          "internalType": "uint256",
          "name": "",
          "type": "uint256"
        }
      ],
      "stateMutability": "view",
      "type": "function"
    },
    {
      "inputs": [
        {
          "internalType": "uint256",
          "name": "",
          "type": "uint256"
        }
      ],
      "name": "roundInfos",
      "outputs": [
        {
          "internalType": "enum RefundableLottery.RoundState",
          "name": "state",
          "type": "uint8"
        },
        {
          "internalType": "uint256",
          "name": "startBlockNumber",
          "type": "uint256"
        },
        {
          "internalType": "uint256",
          "name": "chainlinkResult",
          "type": "uint256"
        },
        {
          "internalType": "uint256",
          "name": "jackpotNumber",
          "type": "uint256"
        },
        {
          "internalType": "uint256",
          "name": "requestId",
          "type": "uint256"
        },
        {
          "internalType": "uint256",
          "name": "winnerCount",
          "type": "uint256"
        }
      ],
      "stateMutability": "view",
      "type": "function"
    },
    {
      "inputs": [],
      "name": "roundNumber",
      "outputs": [
        {
          "internalType": "uint256",
          "name": "",
          "type": "uint256"
        }
      ],
      "stateMutability": "view",
      "type": "function"
    },
    {
      "inputs": [],
      "name": "s_vrfCoordinator",
      "outputs": [
        {
          "internalType": "contract IVRFCoordinatorV2Plus",
          "name": "",
          "type": "address"
        }
      ],
      "stateMutability": "view",
      "type": "function"
    },
    {
      "inputs": [
        {
          "internalType": "address",
          "name": "_vrfCoordinator",
          "type": "address"
        }
      ],
      "name": "setCoordinator",
      "outputs": [],
      "stateMutability": "nonpayable",
      "type": "function"
    },
    {
      "inputs": [],
      "name": "subscriptionId",
      "outputs": [
        {
          "internalType": "uint256",
          "name": "",
          "type": "uint256"
        }
      ],
      "stateMutability": "view",
      "type": "function"
    },
    {
      "inputs": [
        {
          "internalType": "uint256",
          "name": "",
          "type": "uint256"
        },
        {
          "internalType": "uint256",
          "name": "",
          "type": "uint256"
        },
        {
          "internalType": "uint256",
          "name": "",
          "type": "uint256"
        }
      ],
      "name": "ticketHolders",
      "outputs": [
        {
          "internalType": "address",
          "name": "",
          "type": "address"
        }
      ],
      "stateMutability": "view",
      "type": "function"
    },
    {
      "inputs": [
        {
          "internalType": "address",
          "name": "to",
          "type": "address"
        }
      ],
      "name": "transferOwnership",
      "outputs": [],
      "stateMutability": "nonpayable",
      "type": "function"
    }
  ],
  "bytecode": "0x60a0604052600f805465ffffffffffff19166403000186a01790553480156200002757600080fd5b5060405162002d3d38038062002d3d8339810160408190526200004a9162000295565b823380600081620000a25760405162461bcd60e51b815260206004820152601860248201527f43616e6e6f7420736574206f776e657220746f207a65726f000000000000000060448201526064015b60405180910390fd5b600080546001600160a01b0319166001600160a01b0384811691909117909155811615620000d557620000d581620001cd565b5050506001600160a01b038116620001005760405163d92e233d60e01b815260040160405180910390fd5b600280546001600160a01b03199081166001600160a01b0393841617909155600e8490556010869055600d80549091169183169190911790553360805260016003819055600081815260046020527fabd6e7cb50984ff9c2f3e18a2660c3353dadf4e3291deeb275dae2cd1e44fe05805460ff191683179055437fabd6e7cb50984ff9c2f3e18a2660c3353dadf4e3291deeb275dae2cd1e44fe06556040517f33a701182892fd888ed152ca2ac23771a32e814469b7cd255965471e1af3a6599190a250505050620002e0565b336001600160a01b03821603620002275760405162461bcd60e51b815260206004820152601760248201527f43616e6e6f74207472616e7366657220746f2073656c66000000000000000000604482015260640162000099565b600180546001600160a01b0319166001600160a01b0383811691821790925560008054604051929316917fed8889f560326eb138920d842192f0eb3dd22b4f139c87a2c57538e05bae12789190a350565b80516001600160a01b03811681146200029057600080fd5b919050565b60008060008060808587031215620002ac57600080fd5b84519350620002be6020860162000278565b925060408501519150620002d56060860162000278565b905092959194509250565b608051612a336200030a600039600081816104c701528181611e370152611ef20152612a336000f3fe60806040526004361061023b5760003560e01c80636bbf1fb41161012e578063b16b2549116100ab578063cdd853611161006f578063cdd8536114610305578063ce2a29cc14610760578063cf134a1f1461078d578063d7c2a887146107a2578063f2fde38b146107b757600080fd5b8063b16b254914610689578063b510c58914610280578063c82a874e146106b6578063c89fcf03146106ee578063cda92be41461070157600080fd5b806393b1e49d116100f257806393b1e49d146105ca5780639eccacf6146105e6578063a830f47814610606578063a8504c8f14610626578063b0fb162f1461065357600080fd5b80636bbf1fb41461054d57806379ba5097146105625780637d789dee146105775780638da5cb5b1461058c5780638ea98117146105aa57600080fd5b8063278ecde1116101bc578063481c6a7511610180578063481c6a75146104b55780634e2786fb146104e95780634f3ae9f5146104ff57806361728f391461052157806361c5e18e1461053757600080fd5b8063278ecde1146103d257806327e605ec146103f257806328caff91146104075780634077604b1461046d578063443640301461049a57600080fd5b8063139453df11610203578063139453df146103055780631be2963e1461031b5780631fe543e31461035357806323b629b01461037357806324f74697146103a057600080fd5b8063015841e91461024057806303e3c2511461028057806309c1ba2e146102955780630a54211e146102ab5780630ebd676f146102cd575b600080fd5b34801561024c57600080fd5b5061026d61025b3660046124db565b600a6020526000908152604090205481565b6040519081526020015b60405180910390f35b34801561028c57600080fd5b5061026d603281565b3480156102a157600080fd5b5061026d60105481565b3480156102b757600080fd5b506102cb6102c63660046124db565b6107d7565b005b3480156102d957600080fd5b5061026d6102e836600461250b565b600860209081526000928352604080842090915290825290205481565b34801561031157600080fd5b5061026d6103e881565b34801561032757600080fd5b5061033b610336366004612537565b610bdc565b6040516001600160a01b039091168152602001610277565b34801561035f57600080fd5b506102cb61036e366004612563565b610c21565b34801561037f57600080fd5b5061026d61038e3660046124db565b600b6020526000908152604090205481565b3480156103ac57600080fd5b50600f546103bd9063ffffffff1681565b60405163ffffffff9091168152602001610277565b3480156103de57600080fd5b506102cb6103ed3660046124db565b610c71565b3480156103fe57600080fd5b506102cb610e4a565b34801561041357600080fd5b5061045b6104223660046124db565b600460208190526000918252604090912080546001820154600283015460038401549484015460059094015460ff909316949193909286565b6040516102779695949392919061261a565b34801561047957600080fd5b5061026d6104883660046124db565b600c6020526000908152604090205481565b3480156104a657600080fd5b5061026d662386f26fc1000081565b3480156104c157600080fd5b5061033b7f000000000000000000000000000000000000000000000000000000000000000081565b3480156104f557600080fd5b5061026d60035481565b34801561050b57600080fd5b50610514610f5c565b6040516102779190612650565b34801561052d57600080fd5b5061026d600e5481565b34801561054357600080fd5b5061026d61ffff81565b34801561055957600080fd5b5061026d610fc4565b34801561056e57600080fd5b506102cb610fff565b34801561058357600080fd5b5061026d6110a9565b34801561059857600080fd5b506000546001600160a01b031661033b565b3480156105b657600080fd5b506102cb6105c5366004612664565b6112e5565b3480156105d657600080fd5b5061026d670de0b6b3a764000081565b3480156105f257600080fd5b5060025461033b906001600160a01b031681565b34801561061257600080fd5b50600d5461033b906001600160a01b031681565b34801561063257600080fd5b506106466106413660046124db565b6113d7565b60405161027791906126c7565b34801561065f57600080fd5b50600f5461067690640100000000900461ffff1681565b60405161ffff9091168152602001610277565b34801561069557600080fd5b5061026d6106a43660046124db565b60066020526000908152604090205481565b3480156106c257600080fd5b5061026d6106d136600461250b565b600760209081526000928352604080842090915290825290205481565b6102cb6106fc3660046124db565b61152d565b34801561070d57600080fd5b5061071661175e565b604080519a8b5260208b0199909952978901969096526060880194909452608087019290925260a086015260c085015260e084015261010083015261012082015261014001610277565b34801561076c57600080fd5b5061026d61077b3660046124db565b60056020526000908152604090205481565b34801561079957600080fd5b5061026d6117bb565b3480156107ae57600080fd5b5061026d600181565b3480156107c357600080fd5b506102cb6107d2366004612664565b6117d1565b60016107e1610f5c565b60058111156107f2576107f26125e2565b146108445760405162461bcd60e51b815260206004820181905260248201527f5468652063757272656e7420726f756e64206973206e6f7420706c6179696e6760448201526064015b60405180910390fd5b61ffff81111561088e5760405162461bcd60e51b815260206004820152601560248201527424b73b30b634b2103a34b1b5b2ba10373ab6b132b960591b604482015260640161083b565b6000610898610fc4565b600d546040516370a0823160e01b815233600482015291925082916001600160a01b03909116906370a0823190602401602060405180830381865afa1580156108e5573d6000803e3d6000fd5b505050506040513d601f19601f820116820180604052508101906109099190612740565b101561096c5760405162461bcd60e51b815260206004820152602c60248201527f596f7572206163636f756e7420646f6573206e6f74206861766520656e6f756760448201526b341021b434b839aa37b5b2b760a11b606482015260840161083b565b33321461098b5760405162461bcd60e51b815260040161083b90612759565b60035460009081526006602052604081208054600192906109ad9084906127cc565b909155505060035460009081526006602090815260408083205460059092529091205480158015906109fe575060326109e682846127cc565b6109f18460646127df565b6109fb919061280c565b11155b610a8c5760405162461bcd60e51b815260206004820152605360248201527f546865206e756d626572206f6620706c6179657273207573696e67204368697060448201527f73546f6b656e2073686f756c64206265206c657373207468616e20353025206f606482015272662074686520746f74616c20706c617965727360681b608482015260a40161083b565b60035460009081526008602090815260408083203384529091528120805460019290610ab99084906127cc565b9091555050600354600090815260096020908152604080832087845282528083208054600181018255908452919092200180546001600160a01b03191633908117909155600d5491516354390e1760e11b81526004810191909152306024820152604481018590526001600160a01b039091169063a8721c2e90606401600060405180830381600087803b158015610b5057600080fd5b505af1158015610b64573d6000803e3d6000fd5b50506003546000908152600b602052604081208054879450909250610b8a9084906127cc565b9091555050600354604080518681526020810186905260018183015290513392917ff471259fc541585bf572a377eaebdb27bdfa4b06bf84e0b1001daa5712e748bd919081900360600190a350505050565b60096020528260005260406000206020528160005260406000208181548110610c0457600080fd5b6000918252602090912001546001600160a01b0316925083915050565b6002546001600160a01b03163314610c615760025460405163073e64fd60e21b81523360048201526001600160a01b03909116602482015260440161083b565b610c6c8383836117e5565b505050565b600560008281526004602052604090205460ff166005811115610c9657610c966125e2565b14610cfd5760405162461bcd60e51b815260206004820152603160248201527f596f752063616e206e6f7420726566756e64206120726f756e64207768696368604482015270081a5cc81b9bdd0818dbdb5c1b195d1959607a1b606482015260840161083b565b60008181526004602052604090206005015415610d825760405162461bcd60e51b815260206004820152603c60248201527f546865207072697a6520706f6f6c206f66207468697320726f756e642068617360448201527f206265656e2074616b656e206279207468652077696e6e657228732900000000606482015260840161083b565b6000610d8d82611a00565b90506000610d9a83611bc8565b90506000821180610dab5750600081115b610e085760405162461bcd60e51b815260206004820152602860248201527f596f7520646f206e6f74206861766520616e79207469636b657420696e2074686044820152671a5cc81c9bdd5b9960c21b606482015260840161083b565b6040805183815260208101839052339185917faba4210cad11f1112f31ba136a61cdc0f6ab4c2b478da8c93eec1d9769e97a89910160405180910390a3505050565b600460035460009081526004602052604090205460ff166005811115610e7257610e726125e2565b14610ed25760405162461bcd60e51b815260206004820152602a60248201527f5468652063757272656e7420726f756e64207374617465206973206e6f74205260448201526945414459544f4452415760b01b606482015260840161083b565b6003805460009081526004602052604090200154610eef90611dbc565b600d546040516340c10f1960e01b8152336004820152670de0b6b3a764000060248201526001600160a01b03909116906340c10f1990604401600060405180830381600087803b158015610f4257600080fd5b505af1158015610f56573d6000803e3d6000fd5b50505050565b60035460009081526004602052604081205460ff166001816005811115610f8557610f856125e2565b148015610fb25750600354600090815260046020526040902060010154610faf906103e8906127cc565b43115b15610fbf57600291505090565b919050565b60006064610fd3603282612820565b610fe66103e8662386f26fc100006127df565b610ff091906127df565b610ffa919061280c565b905090565b6001546001600160a01b031633146110525760405162461bcd60e51b815260206004820152601660248201527526bab9ba10313290383937b837b9b2b21037bbb732b960511b604482015260640161083b565b60008054336001600160a01b0319808316821784556001805490911690556040516001600160a01b0390921692909183917f8be0079c531659141344cd1fd0a4f28419497f9722a3daafe3b4186f6b6457e091a350565b600060026110b5610f5c565b60058111156110c6576110c66125e2565b146111225760405162461bcd60e51b815260206004820152602660248201527f5468652063757272656e7420726f756e64206973206e6f7420726561647920746044820152651bc81c9bdb1b60d21b606482015260840161083b565b600380546000908152600460209081526040808320805460ff1916909417909355600254835160c081018552600e54815260105481840152600f54640100000000810461ffff168287015263ffffffff16606082015260016080820152845192830190945282825291926001600160a01b0390921691639b1c385e9160a08201906111ac906122ea565b8152506040518263ffffffff1660e01b81526004016111cb9190612833565b6020604051808303816000875af11580156111ea573d6000803e3d6000fd5b505050506040513d601f19601f8201168201806040525081019061120e9190612740565b6003805460009081526004602081815260408084209092018590559254848352600c84529181902082905580518481523393810193909352929350917e5cad569b235bccd21a222b2ca5705e7bcfc283436ec3ac0a0b17076cd5c70e910160405180910390a2600d546040516340c10f1960e01b8152336004820152670de0b6b3a764000060248201526001600160a01b03909116906340c10f1990604401600060405180830381600087803b1580156112c757600080fd5b505af11580156112db573d6000803e3d6000fd5b5092949350505050565b6000546001600160a01b0316331480159061130b57506002546001600160a01b03163314155b1561135c57336113236000546001600160a01b031690565b60025460405163061db9c160e01b81526001600160a01b039384166004820152918316602483015291909116604482015260640161083b565b6001600160a01b0381166113835760405163d92e233d60e01b815260040160405180910390fd5b600280546001600160a01b0319166001600160a01b0383169081179091556040519081527fd1a6a14209a385a964d036e404cb5cfb71f4000cdb03c9366292430787261be69060200160405180910390a150565b6113df612459565b816000036113ed5760035491505b604051806101200160405280838152602001611407610f5c565b6005811115611418576114186125e2565b8152600084815260046020908152604091829020825160c081019093528054919093019290829060ff166005811115611453576114536125e2565b6005811115611464576114646125e2565b8152600182015460208083019190915260028301546040808401919091526003840154606080850191909152600485015460808086019190915260059586015460a09586015295875260008a81529483528185205487840152898552600683528185205487830152898552600783528185203380875290845282862054918801919091528985526008835281852090855282528084205494860194909452878352600a81528383205491850191909152958152600b9095529093205460c0909301929092525090565b6001611537610f5c565b6005811115611548576115486125e2565b146115955760405162461bcd60e51b815260206004820181905260248201527f5468652063757272656e7420726f756e64206973206e6f7420706c6179696e67604482015260640161083b565b662386f26fc1000034146115f75760405162461bcd60e51b8152602060048201526024808201527f54686520707269636520666f722061207469636b657420697320302e303120656044820152633a3432b960e11b606482015260840161083b565b61ffff8111156116415760405162461bcd60e51b815260206004820152601560248201527424b73b30b634b2103a34b1b5b2ba10373ab6b132b960591b604482015260640161083b565b3332146116605760405162461bcd60e51b815260040161083b90612759565b6003546000908152600760209081526040808320338452909152812080546001929061168d9084906127cc565b9091555050600380546000908152600960209081526040808320858452825280832080546001810182559084528284200180546001600160a01b0319163317905592548252600a905290812080543492906116e99084906127cc565b909155505060035460009081526005602052604081208054600192906117109084906127cc565b90915550506003546040805183815234602082015260008183015290513392917ff471259fc541585bf572a377eaebdb27bdfa4b06bf84e0b1001daa5712e748bd919081900360600190a350565b60008080808080808080806001662386f26fc1000061ffff6103e8603261178582856127df565b60326103e8670de0b6b3a764000061179b610fc4565b995099509950995099509950995099509950995090919293949596979899565b6117ce6103e8662386f26fc100006127df565b81565b6117d961235b565b6117e2816123b0565b50565b6003546000848152600c6020526040902054146118575760405162461bcd60e51b815260206004820152602a60248201527f54686520726571756573744964206973206e6f7420666f7220746865206375726044820152691c995b9d081c9bdd5b9960b21b606482015260840161083b565b6003805460009081526004602052604090205460ff16600581111561187e5761187e6125e2565b146118da5760405162461bcd60e51b815260206004820152602660248201527f5468652063757272656e7420726f756e64207374617465206973206e6f7420526044820152654f4c4c494e4760d01b606482015260840161083b565b60035460009081526004602081905260408220805460ff191690911790558290829081611909576119096128d1565b905060200201356004600060035481526020019081526020016000206002018190555061ffff600161193b91906127cc565b8282600081811061194e5761194e6128d1565b9050602002013561195f91906128e7565b600460006003548152602001908152602001600020600301819055506003547f6fa5a1670dd7f8ec3e75741cecdac98c388155b7fda5982a4877c317b23aa4fa84848460008181106119b3576119b36128d1565b90506020020135600460006003548152602001908152602001600020600301546040516119f3939291909283526020830191909152604082015260600190565b60405180910390a2505050565b6000818152600760209081526040808320338452909152812054808203611a2a5750600092915050565b600083815260076020908152604080832033845290915281208190556064611a53600182612820565b611a64662386f26fc10000856127df565b611a6e91906127df565b611a78919061280c565b6000858152600a6020526040902054909150811115611aa95760405162461bcd60e51b815260040161083b906128fb565b80471015611ac95760405162461bcd60e51b815260040161083b9061294d565b6000848152600a602052604081208054839290611ae7908490612820565b9091555050604051339082156108fc029083906000818181858888f19350505050158015611b19573d6000803e3d6000fd5b50600d546001600160a01b03166340c10f193360646103e86001611b44662386f26fc10000896127df565b611b4e91906127df565b611b5891906127df565b611b62919061280c565b6040516001600160e01b031960e085901b1681526001600160a01b0390921660048301526024820152604401600060405180830381600087803b158015611ba857600080fd5b505af1158015611bbc573d6000803e3d6000fd5b50929695505050505050565b6000818152600860209081526040808320338452909152812054808203611bf25750600092915050565b60008381526008602090815260408083203384529091528120819055611c16610fc4565b905060006064611c27600182612820565b611c3184866127df565b611c3b91906127df565b611c45919061280c565b6000868152600b6020526040902054909150811115611c765760405162461bcd60e51b815260040161083b906128fb565b600d546040516370a0823160e01b815230600482015282916001600160a01b0316906370a0823190602401602060405180830381865afa158015611cbe573d6000803e3d6000fd5b505050506040513d601f19601f82011682018060405250810190611ce29190612740565b1015611d005760405162461bcd60e51b815260040161083b9061294d565b6000858152600b602052604081208054839290611d1e908490612820565b9091555050600d5460405163a9059cbb60e01b8152336004820152602481018390526001600160a01b039091169063a9059cbb906044016020604051808303816000875af1158015611d74573d6000803e3d6000fd5b505050506040513d601f19601f82011682018060405250810190611d98919061299a565b611db45760405162461bcd60e51b815260040161083b906129bc565b949350505050565b6003546000908152600a602052604090205415611f73576003546000908152600a6020526040812054606490611df4906001906127df565b611dfe919061280c565b905080600a600060035481526020019081526020016000206000828254611e259190612820565b90915550506040516001600160a01b037f0000000000000000000000000000000000000000000000000000000000000000169082156108fc029083906000818181858888f19350505050158015611e80573d6000803e3d6000fd5b506003546000908152600b6020526040812054606490611ea2906001906127df565b611eac919061280c565b905080600b600060035481526020019081526020016000206000828254611ed39190612820565b9091555050600d5460405163a9059cbb60e01b81526001600160a01b037f000000000000000000000000000000000000000000000000000000000000000081166004830152602482018490529091169063a9059cbb906044016020604051808303816000875af1158015611f4b573d6000803e3d6000fd5b505050506040513d601f19601f82011682018060405250810190611f6f919061299a565b5050505b6003546000908152600960209081526040808320848452909152902054801561220f576003546000908152600a6020526040812054611fb390839061280c565b6003546000908152600b602052604081205491925090611fd490849061280c565b600380546000908152600a6020908152604080832083905592548252600b90529081208190559091505b600354600090815260096020908152604080832088845290915290205481101561220b5760035460009081526009602090815260408083208884529091529020805482908110612050576120506128d1565b60009182526020822001546040516001600160a01b039091169185156108fc02918691818181858888f19350505050158015612090573d6000803e3d6000fd5b50811561217457600d546003546000908152600960209081526040808320898452909152902080546001600160a01b039092169163a9059cbb9190849081106120db576120db6128d1565b60009182526020909120015460405160e083901b6001600160e01b03191681526001600160a01b039091166004820152602481018590526044016020604051808303816000875af1158015612134573d6000803e3d6000fd5b505050506040513d601f19601f82011682018060405250810190612158919061299a565b6121745760405162461bcd60e51b815260040161083b906129bc565b6003546000818152600960209081526040808320898452909152902080547fa7690abde6991f1cc0867efd5b8921cc6665a59a5f771665d8213ff7a75540c7918891859081106121c6576121c66128d1565b60009182526020918290200154604080519384526001600160a01b039091169183019190915281018690526060810185905260800160405180910390a2600101611ffe565b5050505b600380546000908152600460205260408082206005908101859055925482529020805460ff1916600183021790555060035460408051848152602081018490527fc5285db7d8a9c3a0ce0e8982ff9a84fe8df355101d9545735558c69efb4aad57910160405180910390a260016003600082825461228d91906127cc565b909155505060038054600090815260046020526040808220805460ff191660019081179091558354835281832043910155915491517f33a701182892fd888ed152ca2ac23771a32e814469b7cd255965471e1af3a6599190a25050565b60607f92fd13387c7fe7befbc38d303d6468778fb9731bc4583f17d92989c6fcfdeaaa8260405160240161232391511515815260200190565b60408051601f198184030181529190526020810180516001600160e01b03166001600160e01b03199093169290921790915292915050565b6000546001600160a01b031633146123ae5760405162461bcd60e51b815260206004820152601660248201527527b7363c9031b0b63630b1363290313c9037bbb732b960511b604482015260640161083b565b565b336001600160a01b038216036124085760405162461bcd60e51b815260206004820152601760248201527f43616e6e6f74207472616e7366657220746f2073656c66000000000000000000604482015260640161083b565b600180546001600160a01b0319166001600160a01b0383811691821790925560008054604051929316917fed8889f560326eb138920d842192f0eb3dd22b4f139c87a2c57538e05bae12789190a350565b6040805161012081018252600080825260208201529081016124ab6040805160c08101909152806000815260200160008152602001600081526020016000815260200160008152602001600081525090565b81526020016000815260200160008152602001600081526020016000815260200160008152602001600081525090565b6000602082840312156124ed57600080fd5b5035919050565b80356001600160a01b0381168114610fbf57600080fd5b6000806040838503121561251e57600080fd5b8235915061252e602084016124f4565b90509250929050565b60008060006060848603121561254c57600080fd5b505081359360208301359350604090920135919050565b60008060006040848603121561257857600080fd5b83359250602084013567ffffffffffffffff8082111561259757600080fd5b818601915086601f8301126125ab57600080fd5b8135818111156125ba57600080fd5b8760208260051b85010111156125cf57600080fd5b6020830194508093505050509250925092565b634e487b7160e01b600052602160045260246000fd5b6006811061261657634e487b7160e01b600052602160045260246000fd5b9052565b60c0810161262882896125f8565b602082019690965260408101949094526060840192909252608083015260a090910152919050565b6020810161265e82846125f8565b92915050565b60006020828403121561267657600080fd5b61267f826124f4565b9392505050565b6126918282516125f8565b6020810151602083015260408101516040830152606081015160608301526080810151608083015260a081015160a08301525050565b815181526020808301516101c08301916126e3908401826125f8565b5060408301516126f66040840182612686565b50606083015161010083810191909152608084015161012084015260a084015161014084015260c084015161016084015260e0840151610180840152909201516101a09091015290565b60006020828403121561275257600080fd5b5051919050565b60208082526039908201527f4f6e6c7920454f412845787465726e616c6c79204f776e6564204163636f756e60408201527f74292063616e2063616c6c20746869732066756e6374696f6e00000000000000606082015260800190565b634e487b7160e01b600052601160045260246000fd5b8082018082111561265e5761265e6127b6565b808202811582820484141761265e5761265e6127b6565b634e487b7160e01b600052601260045260246000fd5b60008261281b5761281b6127f6565b500490565b8181038181111561265e5761265e6127b6565b60006020808352835160208401526020840151604084015261ffff6040850151166060840152606084015163ffffffff80821660808601528060808701511660a0860152505060a084015160c08085015280518060e086015260005b818110156128ac578281018401518682016101000152830161288f565b506101009250600083828701015282601f19601f830116860101935050505092915050565b634e487b7160e01b600052603260045260246000fd5b6000826128f6576128f66127f6565b500690565b60208082526032908201527f5468652062616c616e6365206f66207468697320726f756e64206973206e6f7460408201527108195b9bdd59da08199bdc881c99599d5b9960721b606082015260800190565b6020808252602d908201527f54686520636f6e74726163742062616c616e6365206973206e6f7420656e6f7560408201526c19da08199bdc881c99599d5b99609a1b606082015260800190565b6000602082840312156129ac57600080fd5b8151801515811461267f57600080fd5b60208082526021908201527f546865207472616e73666572206f66204368697073546f6b656e206661696c656040820152601960fa1b60608201526080019056fea26469706673582212200cbac5ee7eb61c64f27f9f4cc673340fe002df3b5fd5190a2f5d74a70b1d5cbf64736f6c63430008180033",
  "linkReferences": {},
  "deployedLinkReferences": {}
}