{
  "_format": "hh-sol-artifact-1",
  "contractName": "RefundableLottery",
  "sourceName": "contracts/RefundableLottery.sol",
  "abi": [
    {
      "inputs": [
        {
          "internalType": "uint256",
          "name": "_subscriptionId",
          "type": "uint256"
        },
        {
          "internalType": "address",
          "name": "_vrf",
          "type": "address"
        },
        {
          "internalType": "bytes32",
          "name": "_keyHash",
          "type": "bytes32"
        },
        {
          "internalType": "address",
          "name": "_chipsToken",
          "type": "address"
        }
      ],
      "stateMutability": "nonpayable",
      "type": "constructor"
    },
    {
      "inputs": [
        {
          "internalType": "address",
          "name": "have",
          "type": "address"
        },
        {
          "internalType": "address",
          "name": "want",
          "type": "address"
        }
      ],
      "name": "OnlyCoordinatorCanFulfill",
      "type": "error"
    },
    {
      "inputs": [
        {
          "internalType": "address",
          "name": "have",
          "type": "address"
        },
        {
          "internalType": "address",
          "name": "owner",
          "type": "address"
        },
        {
          "internalType": "address",
          "name": "coordinator",
          "type": "address"
        }
      ],
      "name": "OnlyOwnerOrCoordinator",
      "type": "error"
    },
    {
      "inputs": [],
      "name": "ZeroAddress",
      "type": "error"
    },
    {
      "anonymous": false,
      "inputs": [
        {
          "indexed": true,
          "internalType": "address",
          "name": "player",
          "type": "address"
        },
        {
          "indexed": true,
          "internalType": "uint256",
          "name": "roundNumber",
          "type": "uint256"
        },
        {
          "indexed": false,
          "internalType": "uint256",
          "name": "ticketNumber",
          "type": "uint256"
        },
        {
          "indexed": false,
          "internalType": "uint256",
          "name": "amount",
          "type": "uint256"
        },
        {
          "indexed": false,
          "internalType": "bool",
          "name": "inChips",
          "type": "bool"
        }
      ],
      "name": "BuyTicket",
      "type": "event"
    },
    {
      "anonymous": false,
      "inputs": [
        {
          "indexed": false,
          "internalType": "address",
          "name": "vrfCoordinator",
          "type": "address"
        }
      ],
      "name": "CoordinatorSet",
      "type": "event"
    },
    {
      "anonymous": false,
      "inputs": [
        {
          "indexed": true,
          "internalType": "uint256",
          "name": "roundNumber",
          "type": "uint256"
        },
        {
          "indexed": false,
          "internalType": "uint256",
          "name": "jackpotNum",
          "type": "uint256"
        },
        {
          "indexed": false,
          "internalType": "address",
          "name": "winner",
          "type": "address"
        },
        {
          "indexed": false,
          "internalType": "uint256",
          "name": "amount",
          "type": "uint256"
        },
        {
          "indexed": false,
          "internalType": "bool",
          "name": "inChips",
          "type": "bool"
        }
      ],
      "name": "DrawLottory",
      "type": "event"
    },
    {
      "anonymous": false,
      "inputs": [
        {
          "indexed": true,
          "internalType": "uint256",
          "name": "roundNumber",
          "type": "uint256"
        },
        {
          "indexed": false,
          "internalType": "uint256",
          "name": "requestId",
          "type": "uint256"
        },
        {
          "indexed": false,
          "internalType": "uint256",
          "name": "chainlinkResult",
          "type": "uint256"
        },
        {
          "indexed": false,
          "internalType": "uint256",
          "name": "jackpotNumber",
          "type": "uint256"
        }
      ],
      "name": "LotteryDrawing",
      "type": "event"
    },
    {
      "anonymous": false,
      "inputs": [
        {
          "indexed": true,
          "internalType": "uint256",
          "name": "roundNumber",
          "type": "uint256"
        },
        {
          "indexed": false,
          "internalType": "uint256",
          "name": "requestId",
          "type": "uint256"
        },
        {
          "indexed": false,
          "internalType": "address",
          "name": "roller",
          "type": "address"
        }
      ],
      "name": "LotteryRolling",
      "type": "event"
    },
    {
      "anonymous": false,
      "inputs": [
        {
          "indexed": true,
          "internalType": "address",
          "name": "from",
          "type": "address"
        },
        {
          "indexed": true,
          "internalType": "address",
          "name": "to",
          "type": "address"
        }
      ],
      "name": "OwnershipTransferRequested",
      "type": "event"
    },
    {
      "anonymous": false,
      "inputs": [
        {
          "indexed": true,
          "internalType": "address",
          "name": "from",
          "type": "address"
        },
        {
          "indexed": true,
          "internalType": "address",
          "name": "to",
          "type": "address"
        }
      ],
      "name": "OwnershipTransferred",
      "type": "event"
    },
    {
      "anonymous": false,
      "inputs": [
        {
          "indexed": true,
          "internalType": "uint256",
          "name": "roundNumber",
          "type": "uint256"
        },
        {
          "indexed": true,
          "internalType": "address",
          "name": "player",
          "type": "address"
        },
        {
          "indexed": false,
          "internalType": "uint256",
          "name": "refundAmount",
          "type": "uint256"
        },
        {
          "indexed": false,
          "internalType": "bool",
          "name": "inChips",
          "type": "bool"
        }
      ],
      "name": "Refund",
      "type": "event"
    },
    {
      "anonymous": false,
      "inputs": [
        {
          "indexed": true,
          "internalType": "uint256",
          "name": "roundNumber",
          "type": "uint256"
        },
        {
          "indexed": false,
          "internalType": "uint256",
          "name": "jackpotNumber",
          "type": "uint256"
        },
        {
          "indexed": false,
          "internalType": "uint256",
          "name": "winnerCount",
          "type": "uint256"
        }
      ],
      "name": "RoundEnded",
      "type": "event"
    },
    {
      "anonymous": false,
      "inputs": [
        {
          "indexed": true,
          "internalType": "uint256",
          "name": "roundNumber",
          "type": "uint256"
        }
      ],
      "name": "RoundStarted",
      "type": "event"
    },
    {
      "inputs": [],
      "name": "CHIPS_PRICE_PER_ETHER",
      "outputs": [
        {
          "internalType": "uint256",
          "name": "",
          "type": "uint256"
        }
      ],
      "stateMutability": "view",
      "type": "function"
    },
    {
      "inputs": [],
      "name": "DISCOUNT_RATE",
      "outputs": [
        {
          "internalType": "uint256",
          "name": "",
          "type": "uint256"
        }
      ],
      "stateMutability": "view",
      "type": "function"
    },
    {
      "inputs": [],
      "name": "MANAGEMENT_FEE_RATE",
      "outputs": [
        {
          "internalType": "uint256",
          "name": "",
          "type": "uint256"
        }
      ],
      "stateMutability": "view",
      "type": "function"
    },
    {
      "inputs": [],
      "name": "MAX_PARTICIPATE_RATE_USING_CHIPS",
      "outputs": [
        {
          "internalType": "uint256",
          "name": "",
          "type": "uint256"
        }
      ],
      "stateMutability": "view",
      "type": "function"
    },
    {
      "inputs": [],
      "name": "REWARD_CHIPS_FOR_OPERATOR",
      "outputs": [
        {
          "internalType": "uint256",
          "name": "",
          "type": "uint256"
        }
      ],
      "stateMutability": "view",
      "type": "function"
    },
    {
      "inputs": [],
      "name": "ROUND_PERIOD",
      "outputs": [
        {
          "internalType": "uint256",
          "name": "",
          "type": "uint256"
        }
      ],
      "stateMutability": "view",
      "type": "function"
    },
    {
      "inputs": [],
      "name": "TICKET_NUMBER_RANGE",
      "outputs": [
        {
          "internalType": "uint256",
          "name": "",
          "type": "uint256"
        }
      ],
      "stateMutability": "view",
      "type": "function"
    },
    {
      "inputs": [],
      "name": "TICKET_PRICE_IN_CHIPS",
      "outputs": [
        {
          "internalType": "uint256",
          "name": "",
          "type": "uint256"
        }
      ],
      "stateMutability": "view",
      "type": "function"
    },
    {
      "inputs": [],
      "name": "TICKET_PRICE_IN_ETHER",
      "outputs": [
        {
          "internalType": "uint256",
          "name": "",
          "type": "uint256"
        }
      ],
      "stateMutability": "view",
      "type": "function"
    },
    {
      "inputs": [],
      "name": "acceptOwnership",
      "outputs": [],
      "stateMutability": "nonpayable",
      "type": "function"
    },
    {
      "inputs": [
        {
          "internalType": "uint256",
          "name": "_ticketNumber",
          "type": "uint256"
        }
      ],
      "name": "buyTicketWithChips",
      "outputs": [],
      "stateMutability": "nonpayable",
      "type": "function"
    },
    {
      "inputs": [
        {
          "internalType": "uint256",
          "name": "_ticketNumber",
          "type": "uint256"
        }
      ],
      "name": "buyTicketWithEther",
      "outputs": [],
      "stateMutability": "payable",
      "type": "function"
    },
    {
      "inputs": [],
      "name": "callbackGasLimit",
      "outputs": [
        {
          "internalType": "uint32",
          "name": "",
          "type": "uint32"
        }
      ],
      "stateMutability": "view",
      "type": "function"
    },
    {
      "inputs": [
        {
          "internalType": "uint256",
          "name": "",
          "type": "uint256"
        }
      ],
      "name": "chipsPurchaseCount",
      "outputs": [
        {
          "internalType": "uint256",
          "name": "",
          "type": "uint256"
        }
      ],
      "stateMutability": "view",
      "type": "function"
    },
    {
      "inputs": [],
      "name": "chipsToken",
      "outputs": [
        {
          "internalType": "contract IChipsToken",
          "name": "",
          "type": "address"
        }
      ],
      "stateMutability": "view",
      "type": "function"
    },
    {
      "inputs": [],
      "name": "drawLottery",
      "outputs": [],
      "stateMutability": "nonpayable",
      "type": "function"
    },
    {
      "inputs": [
        {
          "internalType": "uint256",
          "name": "",
          "type": "uint256"
        }
      ],
      "name": "etherPurchaseCount",
      "outputs": [
        {
          "internalType": "uint256",
          "name": "",
          "type": "uint256"
        }
      ],
      "stateMutability": "view",
      "type": "function"
    },
    {
      "inputs": [],
      "name": "getCurRoundState",
      "outputs": [
        {
          "internalType": "enum RefundableLottery.RoundState",
          "name": "",
          "type": "uint8"
        }
      ],
      "stateMutability": "view",
      "type": "function"
    },
    {
      "inputs": [],
      "name": "getDiscountedPriceInChips",
      "outputs": [
        {
          "internalType": "uint256",
          "name": "",
          "type": "uint256"
        }
      ],
      "stateMutability": "pure",
      "type": "function"
    },
    {
      "inputs": [
        {
          "internalType": "uint256",
          "name": "",
          "type": "uint256"
        },
        {
          "internalType": "address",
          "name": "",
          "type": "address"
        }
      ],
      "name": "holderChipsPurchaseCount",
      "outputs": [
        {
          "internalType": "uint256",
          "name": "",
          "type": "uint256"
        }
      ],
      "stateMutability": "view",
      "type": "function"
    },
    {
      "inputs": [
        {
          "internalType": "uint256",
          "name": "",
          "type": "uint256"
        },
        {
          "internalType": "address",
          "name": "",
          "type": "address"
        }
      ],
      "name": "holderEtherPurchaseCount",
      "outputs": [
        {
          "internalType": "uint256",
          "name": "",
          "type": "uint256"
        }
      ],
      "stateMutability": "view",
      "type": "function"
    },
    {
      "inputs": [],
      "name": "keyHash",
      "outputs": [
        {
          "internalType": "bytes32",
          "name": "",
          "type": "bytes32"
        }
      ],
      "stateMutability": "view",
      "type": "function"
    },
    {
      "inputs": [],
      "name": "manager",
      "outputs": [
        {
          "internalType": "address payable",
          "name": "",
          "type": "address"
        }
      ],
      "stateMutability": "view",
      "type": "function"
    },
    {
      "inputs": [],
      "name": "owner",
      "outputs": [
        {
          "internalType": "address",
          "name": "",
          "type": "address"
        }
      ],
      "stateMutability": "view",
      "type": "function"
    },
    {
      "inputs": [
        {
          "internalType": "uint256",
          "name": "requestId",
          "type": "uint256"
        },
        {
          "internalType": "uint256[]",
          "name": "randomWords",
          "type": "uint256[]"
        }
      ],
      "name": "rawFulfillRandomWords",
      "outputs": [],
      "stateMutability": "nonpayable",
      "type": "function"
    },
    {
      "inputs": [
        {
          "internalType": "uint256",
          "name": "_previousRoundNumber",
          "type": "uint256"
        }
      ],
      "name": "refund",
      "outputs": [],
      "stateMutability": "nonpayable",
      "type": "function"
    },
    {
      "inputs": [
        {
          "internalType": "uint256",
          "name": "_previousRoundNumber",
          "type": "uint256"
        }
      ],
      "name": "refundChips",
      "outputs": [],
      "stateMutability": "nonpayable",
      "type": "function"
    },
    {
      "inputs": [
        {
          "internalType": "uint256",
          "name": "_previousRoundNumber",
          "type": "uint256"
        }
      ],
      "name": "refundEther",
      "outputs": [],
      "stateMutability": "nonpayable",
      "type": "function"
    },
    {
      "inputs": [],
      "name": "requestConfirmations",
      "outputs": [
        {
          "internalType": "uint16",
          "name": "",
          "type": "uint16"
        }
      ],
      "stateMutability": "view",
      "type": "function"
    },
    {
      "inputs": [
        {
          "internalType": "uint256",
          "name": "",
          "type": "uint256"
        }
      ],
      "name": "requestIdToRound",
      "outputs": [
        {
          "internalType": "uint256",
          "name": "",
          "type": "uint256"
        }
      ],
      "stateMutability": "view",
      "type": "function"
    },
    {
      "inputs": [],
      "name": "rollTheDice",
      "outputs": [
        {
          "internalType": "uint256",
          "name": "",
          "type": "uint256"
        }
      ],
      "stateMutability": "nonpayable",
      "type": "function"
    },
    {
      "inputs": [
        {
          "internalType": "uint256",
          "name": "",
          "type": "uint256"
        }
      ],
      "name": "roundChipsBalance",
      "outputs": [
        {
          "internalType": "uint256",
          "name": "",
          "type": "uint256"
        }
      ],
      "stateMutability": "view",
      "type": "function"
    },
    {
      "inputs": [
        {
          "internalType": "uint256",
          "name": "",
          "type": "uint256"
        }
      ],
      "name": "roundEtherBalance",
      "outputs": [
        {
          "internalType": "uint256",
          "name": "",
          "type": "uint256"
        }
      ],
      "stateMutability": "view",
      "type": "function"
    },
    {
      "inputs": [
        {
          "internalType": "uint256",
          "name": "",
          "type": "uint256"
        }
      ],
      "name": "roundInfos",
      "outputs": [
        {
          "internalType": "enum RefundableLottery.RoundState",
          "name": "state",
          "type": "uint8"
        },
        {
          "internalType": "uint256",
          "name": "startBlockNumber",
          "type": "uint256"
        },
        {
          "internalType": "uint256",
          "name": "chainlinkResult",
          "type": "uint256"
        },
        {
          "internalType": "uint256",
          "name": "jackpotNumber",
          "type": "uint256"
        },
        {
          "internalType": "uint256",
          "name": "requestId",
          "type": "uint256"
        },
        {
          "internalType": "uint256",
          "name": "winnerCount",
          "type": "uint256"
        }
      ],
      "stateMutability": "view",
      "type": "function"
    },
    {
      "inputs": [],
      "name": "roundNumber",
      "outputs": [
        {
          "internalType": "uint256",
          "name": "",
          "type": "uint256"
        }
      ],
      "stateMutability": "view",
      "type": "function"
    },
    {
      "inputs": [],
      "name": "s_vrfCoordinator",
      "outputs": [
        {
          "internalType": "contract IVRFCoordinatorV2Plus",
          "name": "",
          "type": "address"
        }
      ],
      "stateMutability": "view",
      "type": "function"
    },
    {
      "inputs": [
        {
          "internalType": "address",
          "name": "_vrfCoordinator",
          "type": "address"
        }
      ],
      "name": "setCoordinator",
      "outputs": [],
      "stateMutability": "nonpayable",
      "type": "function"
    },
    {
      "inputs": [],
      "name": "subscriptionId",
      "outputs": [
        {
          "internalType": "uint256",
          "name": "",
          "type": "uint256"
        }
      ],
      "stateMutability": "view",
      "type": "function"
    },
    {
      "inputs": [
        {
          "internalType": "uint256",
          "name": "",
          "type": "uint256"
        },
        {
          "internalType": "uint256",
          "name": "",
          "type": "uint256"
        },
        {
          "internalType": "uint256",
          "name": "",
          "type": "uint256"
        }
      ],
      "name": "ticketHolders",
      "outputs": [
        {
          "internalType": "address",
          "name": "",
          "type": "address"
        }
      ],
      "stateMutability": "view",
      "type": "function"
    },
    {
      "inputs": [
        {
          "internalType": "address",
          "name": "to",
          "type": "address"
        }
      ],
      "name": "transferOwnership",
      "outputs": [],
      "stateMutability": "nonpayable",
      "type": "function"
    }
  ],
  "bytecode": "0x60a0604052600f805465ffffffffffff19166403000186a01790553480156200002757600080fd5b5060405162002b5b38038062002b5b8339810160408190526200004a9162000295565b823380600081620000a25760405162461bcd60e51b815260206004820152601860248201527f43616e6e6f7420736574206f776e657220746f207a65726f000000000000000060448201526064015b60405180910390fd5b600080546001600160a01b0319166001600160a01b0384811691909117909155811615620000d557620000d581620001cd565b5050506001600160a01b038116620001005760405163d92e233d60e01b815260040160405180910390fd5b600280546001600160a01b03199081166001600160a01b0393841617909155600e8490556010869055600d80549091169183169190911790553360805260016003819055600081815260046020527fabd6e7cb50984ff9c2f3e18a2660c3353dadf4e3291deeb275dae2cd1e44fe05805460ff191683179055437fabd6e7cb50984ff9c2f3e18a2660c3353dadf4e3291deeb275dae2cd1e44fe06556040517f33a701182892fd888ed152ca2ac23771a32e814469b7cd255965471e1af3a6599190a250505050620002e0565b336001600160a01b03821603620002275760405162461bcd60e51b815260206004820152601760248201527f43616e6e6f74207472616e7366657220746f2073656c66000000000000000000604482015260640162000099565b600180546001600160a01b0319166001600160a01b0383811691821790925560008054604051929316917fed8889f560326eb138920d842192f0eb3dd22b4f139c87a2c57538e05bae12789190a350565b80516001600160a01b03811681146200029057600080fd5b919050565b60008060008060808587031215620002ac57600080fd5b84519350620002be6020860162000278565b925060408501519150620002d56060860162000278565b905092959194509250565b6080516128516200030a6000396000818161048f01528181611baa0152611c6501526128516000f3fe60806040526004361061023b5760003560e01c80636bbf1fb41161012e578063b510c589116100ab578063d7c2a8871161006f578063d7c2a887146106c6578063e5a6bc41146106db578063efe102fe14610713578063f2fde38b1461074b578063fd5352031461076b57600080fd5b8063b510c58914610280578063c89fcf0314610671578063cdd85361146102cd578063ce2a29cc14610684578063cf134a1f146106b157600080fd5b806393b1e49d116100f257806393b1e49d146105b25780639eccacf6146105ce578063a830f478146105ee578063b0fb162f1461060e578063b16b25491461064457600080fd5b80636bbf1fb41461053557806379ba50971461054a5780637d789dee1461055f5780638da5cb5b146105745780638ea981171461059257600080fd5b806327e605ec116101bc5780634e2786fb116101805780634e2786fb146104b15780634f3ae9f5146104c75780635e3693b7146104e957806361728f391461050957806361c5e18e1461051f57600080fd5b806327e605ec146103ba57806328caff91146103cf5780634077604b146104355780634436403014610462578063481c6a751461047d57600080fd5b80631be2963e116102035780631be2963e146102e35780631fe543e31461031b57806323b629b01461033b57806324f7469714610368578063278ecde11461039a57600080fd5b8063015841e91461024057806303e3c2511461028057806309c1ba2e146102955780630a54211e146102ab578063139453df146102cd575b600080fd5b34801561024c57600080fd5b5061026d61025b36600461225b565b600a6020526000908152604090205481565b6040519081526020015b60405180910390f35b34801561028c57600080fd5b5061026d603281565b3480156102a157600080fd5b5061026d60105481565b3480156102b757600080fd5b506102cb6102c636600461225b565b61078b565b005b3480156102d957600080fd5b5061026d6103e881565b3480156102ef57600080fd5b506103036102fe366004612274565b610b5a565b6040516001600160a01b039091168152602001610277565b34801561032757600080fd5b506102cb6103363660046122a0565b610b9f565b34801561034757600080fd5b5061026d61035636600461225b565b600b6020526000908152604090205481565b34801561037457600080fd5b50600f546103859063ffffffff1681565b60405163ffffffff9091168152602001610277565b3480156103a657600080fd5b506102cb6103b536600461225b565b610bef565b3480156103c657600080fd5b506102cb610c04565b3480156103db57600080fd5b506104236103ea36600461225b565b600460208190526000918252604090912080546001820154600283015460038401549484015460059094015460ff909316949193909286565b60405161027796959493929190612357565b34801561044157600080fd5b5061026d61045036600461225b565b600c6020526000908152604090205481565b34801561046e57600080fd5b5061026d662386f26fc1000081565b34801561048957600080fd5b506103037f000000000000000000000000000000000000000000000000000000000000000081565b3480156104bd57600080fd5b5061026d60035481565b3480156104d357600080fd5b506104dc610d16565b604051610277919061238d565b3480156104f557600080fd5b506102cb61050436600461225b565b610d7e565b34801561051557600080fd5b5061026d600e5481565b34801561052b57600080fd5b5061026d61ffff81565b34801561054157600080fd5b5061026d611011565b34801561055657600080fd5b506102cb61104c565b34801561056b57600080fd5b5061026d6110f6565b34801561058057600080fd5b506000546001600160a01b0316610303565b34801561059e57600080fd5b506102cb6105ad3660046123b8565b611332565b3480156105be57600080fd5b5061026d670de0b6b3a764000081565b3480156105da57600080fd5b50600254610303906001600160a01b031681565b3480156105fa57600080fd5b50600d54610303906001600160a01b031681565b34801561061a57600080fd5b50600f5461063190640100000000900461ffff1681565b60405161ffff9091168152602001610277565b34801561065057600080fd5b5061026d61065f36600461225b565b60066020526000908152604090205481565b6102cb61067f36600461225b565b611424565b34801561069057600080fd5b5061026d61069f36600461225b565b60056020526000908152604090205481565b3480156106bd57600080fd5b5061026d61167a565b3480156106d257600080fd5b5061026d600181565b3480156106e757600080fd5b5061026d6106f63660046123da565b600760209081526000928352604080842090915290825290205481565b34801561071f57600080fd5b5061026d61072e3660046123da565b600860209081526000928352604080842090915290825290205481565b34801561075757600080fd5b506102cb6107663660046123b8565b611690565b34801561077757600080fd5b506102cb61078636600461225b565b6116a1565b600160035460009081526004602052604090205460ff1660058111156107b3576107b361231f565b146108055760405162461bcd60e51b815260206004820181905260248201527f5468652063757272656e7420726f756e64206973206e6f7420706c6179696e6760448201526064015b60405180910390fd5b6003546000908152600460205260409020600101544390610829906103e89061241c565b116108465760405162461bcd60e51b81526004016107fc9061242f565b61ffff8111156108685760405162461bcd60e51b81526004016107fc9061248c565b3332146108875760405162461bcd60e51b81526004016107fc906124d9565b60035460009081526006602052604081208054600192906108a990849061241c565b9091555050600354600090815260066020908152604080832054600590925290912054806109535760405162461bcd60e51b815260206004820152604b60248201527f5468657265206973206e6f20706c61796572207573696e67204574686572206960448201527f6e207468697320726f756e642c20736f20796f752063616e206e6f742075736560648201526a1021b434b839aa37b5b2b760a91b608482015260a4016107fc565b603261095f828461241c565b61096a846064612536565b6109749190612563565b1115610a045760405162461bcd60e51b815260206004820152605360248201527f546865206e756d626572206f6620706c6179657273207573696e67204368697060448201527f73546f6b656e2073686f756c64206265206c657373207468616e20353025206f606482015272662074686520746f74616c20706c617965727360681b608482015260a4016107fc565b60035460009081526008602090815260408083203384529091528120805460019290610a3190849061241c565b909155505060035460009081526009602090815260408083208684528252822080546001810182559083529082200180546001600160a01b03191633179055610a78611011565b600d546040516354390e1760e11b8152336004820152306024820152604481018390529192506001600160a01b03169063a8721c2e90606401600060405180830381600087803b158015610acb57600080fd5b505af1158015610adf573d6000803e3d6000fd5b50506003546000908152600b602052604081208054859450909250610b0590849061241c565b9091555050600354604080518681526020810184905260019181019190915233907fb6a18b04ede75f6b800e79a1454ea686b9c4aa5b7f2d6afa3d0f7a5c90b5303f906060015b60405180910390a350505050565b60096020528260005260406000206020528160005260406000208181548110610b8257600080fd5b6000918252602090912001546001600160a01b0316925083915050565b6002546001600160a01b03163314610bdf5760025460405163073e64fd60e21b81523360048201526001600160a01b0390911660248201526044016107fc565b610bea838383611910565b505050565b610bf8816116a1565b610c0181610d7e565b50565b600460035460009081526004602052604090205460ff166005811115610c2c57610c2c61231f565b14610c8c5760405162461bcd60e51b815260206004820152602a60248201527f5468652063757272656e7420726f756e64207374617465206973206e6f74205260448201526945414459544f4452415760b01b60648201526084016107fc565b6003805460009081526004602052604090200154610ca990611b2b565b600d546040516340c10f1960e01b8152336004820152670de0b6b3a764000060248201526001600160a01b03909116906340c10f1990604401600060405180830381600087803b158015610cfc57600080fd5b505af1158015610d10573d6000803e3d6000fd5b50505050565b60035460009081526004602052604081205460ff166001816005811115610d3f57610d3f61231f565b148015610d6c5750600354600090815260046020526040902060010154610d69906103e89061241c565b43115b15610d7957600291505090565b919050565b600560008281526004602052604090205460ff166005811115610da357610da361231f565b14610dc05760405162461bcd60e51b81526004016107fc90612577565b60008181526004602052604090206005015415610def5760405162461bcd60e51b81526004016107fc906125c8565b600081815260086020908152604080832033845290915281205490819003610e15575050565b60008281526008602090815260408083203384529091528120819055610e39611011565b905060006064610e4a600182612625565b610e548486612536565b610e5e9190612536565b610e689190612563565b6000858152600b6020526040902054909150811115610e995760405162461bcd60e51b81526004016107fc90612638565b600d546040516370a0823160e01b815230600482015282916001600160a01b0316906370a0823190602401602060405180830381865afa158015610ee1573d6000803e3d6000fd5b505050506040513d601f19601f82011682018060405250810190610f05919061268a565b1015610f235760405162461bcd60e51b81526004016107fc906126a3565b6000848152600b602052604081208054839290610f41908490612625565b9091555050600d5460405163a9059cbb60e01b8152336004820152602481018390526001600160a01b039091169063a9059cbb906044016020604051808303816000875af1158015610f97573d6000803e3d6000fd5b505050506040513d601f19601f82011682018060405250810190610fbb91906126f0565b610fd75760405162461bcd60e51b81526004016107fc90612712565b6040805182815260016020820152339186917f811127de540712b4d1c4732ad8504f669e0703bab0b1ea8c980c11c361c4a13b9101610b4c565b60006064611020603282612625565b6110336103e8662386f26fc10000612536565b61103d9190612536565b6110479190612563565b905090565b6001546001600160a01b0316331461109f5760405162461bcd60e51b815260206004820152601660248201527526bab9ba10313290383937b837b9b2b21037bbb732b960511b60448201526064016107fc565b60008054336001600160a01b0319808316821784556001805490911690556040516001600160a01b0390921692909183917f8be0079c531659141344cd1fd0a4f28419497f9722a3daafe3b4186f6b6457e091a350565b60006002611102610d16565b60058111156111135761111361231f565b1461116f5760405162461bcd60e51b815260206004820152602660248201527f5468652063757272656e7420726f756e64206973206e6f7420726561647920746044820152651bc81c9bdb1b60d21b60648201526084016107fc565b600380546000908152600460209081526040808320805460ff1916909417909355600254835160c081018552600e54815260105481840152600f54640100000000810461ffff168287015263ffffffff16606082015260016080820152845192830190945282825291926001600160a01b0390921691639b1c385e9160a08201906111f9906120ec565b8152506040518263ffffffff1660e01b81526004016112189190612753565b6020604051808303816000875af1158015611237573d6000803e3d6000fd5b505050506040513d601f19601f8201168201806040525081019061125b919061268a565b6003805460009081526004602081815260408084209092018590559254848352600c84529181902082905580518481523393810193909352929350917e5cad569b235bccd21a222b2ca5705e7bcfc283436ec3ac0a0b17076cd5c70e910160405180910390a2600d546040516340c10f1960e01b8152336004820152670de0b6b3a764000060248201526001600160a01b03909116906340c10f1990604401600060405180830381600087803b15801561131457600080fd5b505af1158015611328573d6000803e3d6000fd5b5092949350505050565b6000546001600160a01b0316331480159061135857506002546001600160a01b03163314155b156113a957336113706000546001600160a01b031690565b60025460405163061db9c160e01b81526001600160a01b03938416600482015291831660248301529190911660448201526064016107fc565b6001600160a01b0381166113d05760405163d92e233d60e01b815260040160405180910390fd5b600280546001600160a01b0319166001600160a01b0383169081179091556040519081527fd1a6a14209a385a964d036e404cb5cfb71f4000cdb03c9366292430787261be69060200160405180910390a150565b600160035460009081526004602052604090205460ff16600581111561144c5761144c61231f565b146114995760405162461bcd60e51b815260206004820181905260248201527f5468652063757272656e7420726f756e64206973206e6f7420706c6179696e6760448201526064016107fc565b60035460009081526004602052604090206001015443906114bd906103e89061241c565b116114da5760405162461bcd60e51b81526004016107fc9061242f565b662386f26fc10000341461153c5760405162461bcd60e51b8152602060048201526024808201527f54686520707269636520666f722061207469636b657420697320302e303120656044820152633a3432b960e11b60648201526084016107fc565b61ffff81111561155e5760405162461bcd60e51b81526004016107fc9061248c565b33321461157d5760405162461bcd60e51b81526004016107fc906124d9565b600354600090815260076020908152604080832033845290915281208054600192906115aa90849061241c565b9091555050600380546000908152600960209081526040808320858452825280832080546001810182559084528284200180546001600160a01b0319163317905592548252600a9052908120805434929061160690849061241c565b9091555050600354600090815260056020526040812080546001929061162d90849061241c565b909155505060035460408051838152346020820152600081830152905133917fb6a18b04ede75f6b800e79a1454ea686b9c4aa5b7f2d6afa3d0f7a5c90b5303f919081900360600190a350565b61168d6103e8662386f26fc10000612536565b81565b61169861215d565b610c01816121b2565b600560008281526004602052604090205460ff1660058111156116c6576116c661231f565b146116e35760405162461bcd60e51b81526004016107fc90612577565b600081815260046020526040902060050154156117125760405162461bcd60e51b81526004016107fc906125c8565b600081815260076020908152604080832033845290915281205490819003611738575050565b600082815260076020908152604080832033845290915281208190556064611761600182612625565b611772662386f26fc1000085612536565b61177c9190612536565b6117869190612563565b6000848152600a60205260409020549091508111156117b75760405162461bcd60e51b81526004016107fc90612638565b804710156117d75760405162461bcd60e51b81526004016107fc906126a3565b6000838152600a6020526040812080548392906117f5908490612625565b9091555050604051339082156108fc029083906000818181858888f19350505050158015611827573d6000803e3d6000fd5b506040805182815260006020820152339185917f811127de540712b4d1c4732ad8504f669e0703bab0b1ea8c980c11c361c4a13b910160405180910390a3600d546001600160a01b03166340c10f193360646103e8600161188f662386f26fc1000089612536565b6118999190612536565b6118a39190612536565b6118ad9190612563565b6040516001600160e01b031960e085901b1681526001600160a01b0390921660048301526024820152604401600060405180830381600087803b1580156118f357600080fd5b505af1158015611907573d6000803e3d6000fd5b50505050505050565b6003546000848152600c6020526040902054146119825760405162461bcd60e51b815260206004820152602a60248201527f54686520726571756573744964206973206e6f7420666f7220746865206375726044820152691c995b9d081c9bdd5b9960b21b60648201526084016107fc565b6003805460009081526004602052604090205460ff1660058111156119a9576119a961231f565b14611a055760405162461bcd60e51b815260206004820152602660248201527f5468652063757272656e7420726f756e64207374617465206973206e6f7420526044820152654f4c4c494e4760d01b60648201526084016107fc565b60035460009081526004602081905260408220805460ff191690911790558290829081611a3457611a346127f1565b905060200201356004600060035481526020019081526020016000206002018190555061ffff6001611a66919061241c565b82826000818110611a7957611a796127f1565b90506020020135611a8a9190612807565b600460006003548152602001908152602001600020600301819055506003547f6fa5a1670dd7f8ec3e75741cecdac98c388155b7fda5982a4877c317b23aa4fa8484846000818110611ade57611ade6127f1565b9050602002013560046000600354815260200190815260200160002060030154604051611b1e939291909283526020830191909152604082015260600190565b60405180910390a2505050565b6003546000908152600a60205260408120549003611b465750565b6003546000908152600a6020526040812054606490611b6790600190612536565b611b719190612563565b905080600a600060035481526020019081526020016000206000828254611b989190612625565b90915550506040516001600160a01b037f0000000000000000000000000000000000000000000000000000000000000000169082156108fc029083906000818181858888f19350505050158015611bf3573d6000803e3d6000fd5b506003546000908152600b6020526040812054606490611c1590600190612536565b611c1f9190612563565b905080600b600060035481526020019081526020016000206000828254611c469190612625565b9091555050600d5460405163a9059cbb60e01b81526001600160a01b037f000000000000000000000000000000000000000000000000000000000000000081166004830152602482018490529091169063a9059cbb906044016020604051808303816000875af1158015611cbe573d6000803e3d6000fd5b505050506040513d601f19601f82011682018060405250810190611ce291906126f0565b506003546000908152600960209081526040808320868452909152902054801561200f576003546000908152600a6020526040812054611d23908390612563565b6003546000908152600b602052604081205491925090611d44908490612563565b600380546000908152600a6020908152604080832083905592548252600b90529081208190559091505b60035460009081526009602090815260408083208a845290915290205481101561200b5760035460009081526009602090815260408083208a84529091529020805482908110611dc057611dc06127f1565b60009182526020822001546040516001600160a01b039091169185156108fc02918691818181858888f19350505050158015611e00573d6000803e3d6000fd5b5060035460008181526009602090815260408083208b8452909152902080547f7aef43e41bfad82808c7eca2371d51d81c3c0b1921e4aac934497357b82c4aeb918a9185908110611e5357611e536127f1565b600091825260208083209190910154604080519485526001600160a01b03909116918401919091528201879052606082015260800160405180910390a2811561200357600d5460035460009081526009602090815260408083208b8452909152902080546001600160a01b039092169163a9059cbb919084908110611eda57611eda6127f1565b60009182526020909120015460405160e083901b6001600160e01b03191681526001600160a01b039091166004820152602481018590526044016020604051808303816000875af1158015611f33573d6000803e3d6000fd5b505050506040513d601f19601f82011682018060405250810190611f5791906126f0565b611f735760405162461bcd60e51b81526004016107fc90612712565b60035460008181526009602090815260408083208b8452909152902080547f7aef43e41bfad82808c7eca2371d51d81c3c0b1921e4aac934497357b82c4aeb918a9185908110611fc557611fc56127f1565b60009182526020918290200154604080519384526001600160a01b039091169183019190915281018590526001606082015260800160405180910390a25b600101611d6e565b5050505b600380546000908152600460205260408082206005908101859055925482529020805460ff1916600183021790555060035460408051868152602081018490527fc5285db7d8a9c3a0ce0e8982ff9a84fe8df355101d9545735558c69efb4aad57910160405180910390a260016003600082825461208d919061241c565b909155505060038054600090815260046020526040808220805460ff191660019081179091558354835281832043910155915491517f33a701182892fd888ed152ca2ac23771a32e814469b7cd255965471e1af3a6599190a250505050565b60607f92fd13387c7fe7befbc38d303d6468778fb9731bc4583f17d92989c6fcfdeaaa8260405160240161212591511515815260200190565b60408051601f198184030181529190526020810180516001600160e01b03166001600160e01b03199093169290921790915292915050565b6000546001600160a01b031633146121b05760405162461bcd60e51b815260206004820152601660248201527527b7363c9031b0b63630b1363290313c9037bbb732b960511b60448201526064016107fc565b565b336001600160a01b0382160361220a5760405162461bcd60e51b815260206004820152601760248201527f43616e6e6f74207472616e7366657220746f2073656c6600000000000000000060448201526064016107fc565b600180546001600160a01b0319166001600160a01b0383811691821790925560008054604051929316917fed8889f560326eb138920d842192f0eb3dd22b4f139c87a2c57538e05bae12789190a350565b60006020828403121561226d57600080fd5b5035919050565b60008060006060848603121561228957600080fd5b505081359360208301359350604090920135919050565b6000806000604084860312156122b557600080fd5b83359250602084013567ffffffffffffffff808211156122d457600080fd5b818601915086601f8301126122e857600080fd5b8135818111156122f757600080fd5b8760208260051b850101111561230c57600080fd5b6020830194508093505050509250925092565b634e487b7160e01b600052602160045260246000fd5b6006811061235357634e487b7160e01b600052602160045260246000fd5b9052565b60c081016123658289612335565b602082019690965260408101949094526060840192909252608083015260a090910152919050565b6020810161239b8284612335565b92915050565b80356001600160a01b0381168114610d7957600080fd5b6000602082840312156123ca57600080fd5b6123d3826123a1565b9392505050565b600080604083850312156123ed57600080fd5b823591506123fd602084016123a1565b90509250929050565b634e487b7160e01b600052601160045260246000fd5b8082018082111561239b5761239b612406565b60208082526038908201527f5468652063757272656e7420726f756e6420697320656e642c20706c6561736560408201527f207761697420666f7220746865206e65787420726f756e640000000000000000606082015260800190565b6020808252602d908201527f546865207469636b6574206e756d6265722073686f756c64206265206265747760408201526c65656e205b302c36353533355d60981b606082015260800190565b60208082526039908201527f4f6e6c7920454f412845787465726e616c6c79204f776e6564204163636f756e60408201527f74292063616e2063616c6c20746869732066756e6374696f6e00000000000000606082015260800190565b808202811582820484141761239b5761239b612406565b634e487b7160e01b600052601260045260246000fd5b6000826125725761257261254d565b500490565b60208082526031908201527f596f752063616e206e6f7420726566756e64206120726f756e64207768696368604082015270081a5cc81b9bdd0818dbdb5c1b195d1959607a1b606082015260800190565b6020808252603c908201527f546865207072697a6520706f6f6c206f66207468697320726f756e642068617360408201527f206265656e2074616b656e206279207468652077696e6e657228732900000000606082015260800190565b8181038181111561239b5761239b612406565b60208082526032908201527f5468652062616c616e6365206f66207468697320726f756e64206973206e6f7460408201527108195b9bdd59da08199bdc881c99599d5b9960721b606082015260800190565b60006020828403121561269c57600080fd5b5051919050565b6020808252602d908201527f54686520636f6e74726163742062616c616e6365206973206e6f7420656e6f7560408201526c19da08199bdc881c99599d5b99609a1b606082015260800190565b60006020828403121561270257600080fd5b815180151581146123d357600080fd5b60208082526021908201527f546865207472616e73666572206f66204368697073546f6b656e206661696c656040820152601960fa1b606082015260800190565b60006020808352835160208401526020840151604084015261ffff6040850151166060840152606084015163ffffffff80821660808601528060808701511660a0860152505060a084015160c08085015280518060e086015260005b818110156127cc57828101840151868201610100015283016127af565b506101009250600083828701015282601f19601f830116860101935050505092915050565b634e487b7160e01b600052603260045260246000fd5b6000826128165761281661254d565b50069056fea264697066735822122087cbc669666e13b26c0e9904a18a3a39565410ea5394a2a5d2f4da25cb89e78264736f6c63430008180033",
  "linkReferences": {},
  "deployedLinkReferences": {}
}