{
  "_format": "hh-sol-artifact-1",
  "contractName": "RefundableLottery",
  "sourceName": "contracts/RefundableLottery.sol",
  "abi": [
    {
      "inputs": [
        {
          "internalType": "uint256",
          "name": "_subscriptionId",
          "type": "uint256"
        },
        {
          "internalType": "address",
          "name": "_vrf",
          "type": "address"
        },
        {
          "internalType": "bytes32",
          "name": "_keyHash",
          "type": "bytes32"
        },
        {
          "internalType": "address",
          "name": "_chipsToken",
          "type": "address"
        }
      ],
      "stateMutability": "nonpayable",
      "type": "constructor"
    },
    {
      "inputs": [
        {
          "internalType": "address",
          "name": "have",
          "type": "address"
        },
        {
          "internalType": "address",
          "name": "want",
          "type": "address"
        }
      ],
      "name": "OnlyCoordinatorCanFulfill",
      "type": "error"
    },
    {
      "inputs": [
        {
          "internalType": "address",
          "name": "have",
          "type": "address"
        },
        {
          "internalType": "address",
          "name": "owner",
          "type": "address"
        },
        {
          "internalType": "address",
          "name": "coordinator",
          "type": "address"
        }
      ],
      "name": "OnlyOwnerOrCoordinator",
      "type": "error"
    },
    {
      "inputs": [],
      "name": "ZeroAddress",
      "type": "error"
    },
    {
      "anonymous": false,
      "inputs": [
        {
          "indexed": true,
          "internalType": "uint256",
          "name": "roundNumber",
          "type": "uint256"
        },
        {
          "indexed": true,
          "internalType": "address",
          "name": "player",
          "type": "address"
        },
        {
          "indexed": false,
          "internalType": "uint256",
          "name": "ticketNumber",
          "type": "uint256"
        },
        {
          "indexed": false,
          "internalType": "uint256",
          "name": "amount",
          "type": "uint256"
        },
        {
          "indexed": false,
          "internalType": "bool",
          "name": "inChips",
          "type": "bool"
        }
      ],
      "name": "BuyTicket",
      "type": "event"
    },
    {
      "anonymous": false,
      "inputs": [
        {
          "indexed": false,
          "internalType": "address",
          "name": "vrfCoordinator",
          "type": "address"
        }
      ],
      "name": "CoordinatorSet",
      "type": "event"
    },
    {
      "anonymous": false,
      "inputs": [
        {
          "indexed": true,
          "internalType": "uint256",
          "name": "roundNumber",
          "type": "uint256"
        },
        {
          "indexed": false,
          "internalType": "uint256",
          "name": "jackpotNumber",
          "type": "uint256"
        },
        {
          "indexed": false,
          "internalType": "address",
          "name": "winner",
          "type": "address"
        },
        {
          "indexed": false,
          "internalType": "uint256",
          "name": "etherAmount",
          "type": "uint256"
        },
        {
          "indexed": false,
          "internalType": "uint256",
          "name": "chipsAmount",
          "type": "uint256"
        }
      ],
      "name": "DrawLottery",
      "type": "event"
    },
    {
      "anonymous": false,
      "inputs": [
        {
          "indexed": true,
          "internalType": "uint256",
          "name": "roundNumber",
          "type": "uint256"
        },
        {
          "indexed": false,
          "internalType": "uint256",
          "name": "requestId",
          "type": "uint256"
        },
        {
          "indexed": false,
          "internalType": "uint256",
          "name": "chainlinkResult",
          "type": "uint256"
        },
        {
          "indexed": false,
          "internalType": "uint256",
          "name": "jackpotNumber",
          "type": "uint256"
        }
      ],
      "name": "LotteryDrawing",
      "type": "event"
    },
    {
      "anonymous": false,
      "inputs": [
        {
          "indexed": true,
          "internalType": "uint256",
          "name": "roundNumber",
          "type": "uint256"
        },
        {
          "indexed": false,
          "internalType": "uint256",
          "name": "requestId",
          "type": "uint256"
        },
        {
          "indexed": false,
          "internalType": "address",
          "name": "roller",
          "type": "address"
        }
      ],
      "name": "LotteryRolling",
      "type": "event"
    },
    {
      "anonymous": false,
      "inputs": [
        {
          "indexed": true,
          "internalType": "address",
          "name": "from",
          "type": "address"
        },
        {
          "indexed": true,
          "internalType": "address",
          "name": "to",
          "type": "address"
        }
      ],
      "name": "OwnershipTransferRequested",
      "type": "event"
    },
    {
      "anonymous": false,
      "inputs": [
        {
          "indexed": true,
          "internalType": "address",
          "name": "from",
          "type": "address"
        },
        {
          "indexed": true,
          "internalType": "address",
          "name": "to",
          "type": "address"
        }
      ],
      "name": "OwnershipTransferred",
      "type": "event"
    },
    {
      "anonymous": false,
      "inputs": [
        {
          "indexed": true,
          "internalType": "uint256",
          "name": "roundNumber",
          "type": "uint256"
        },
        {
          "indexed": true,
          "internalType": "address",
          "name": "player",
          "type": "address"
        },
        {
          "indexed": false,
          "internalType": "uint256",
          "name": "refundAmount",
          "type": "uint256"
        },
        {
          "indexed": false,
          "internalType": "bool",
          "name": "inChips",
          "type": "bool"
        }
      ],
      "name": "Refund",
      "type": "event"
    },
    {
      "anonymous": false,
      "inputs": [
        {
          "indexed": true,
          "internalType": "uint256",
          "name": "roundNumber",
          "type": "uint256"
        },
        {
          "indexed": false,
          "internalType": "uint256",
          "name": "jackpotNumber",
          "type": "uint256"
        },
        {
          "indexed": false,
          "internalType": "uint256",
          "name": "winnerCount",
          "type": "uint256"
        }
      ],
      "name": "RoundEnded",
      "type": "event"
    },
    {
      "anonymous": false,
      "inputs": [
        {
          "indexed": true,
          "internalType": "uint256",
          "name": "roundNumber",
          "type": "uint256"
        }
      ],
      "name": "RoundStarted",
      "type": "event"
    },
    {
      "inputs": [],
      "name": "CHIPS_PRICE_PER_ETHER",
      "outputs": [
        {
          "internalType": "uint256",
          "name": "",
          "type": "uint256"
        }
      ],
      "stateMutability": "view",
      "type": "function"
    },
    {
      "inputs": [],
      "name": "DISCOUNT_RATE",
      "outputs": [
        {
          "internalType": "uint256",
          "name": "",
          "type": "uint256"
        }
      ],
      "stateMutability": "view",
      "type": "function"
    },
    {
      "inputs": [],
      "name": "MANAGEMENT_FEE_RATE",
      "outputs": [
        {
          "internalType": "uint256",
          "name": "",
          "type": "uint256"
        }
      ],
      "stateMutability": "view",
      "type": "function"
    },
    {
      "inputs": [],
      "name": "MAX_PARTICIPATE_RATE_USING_CHIPS",
      "outputs": [
        {
          "internalType": "uint256",
          "name": "",
          "type": "uint256"
        }
      ],
      "stateMutability": "view",
      "type": "function"
    },
    {
      "inputs": [],
      "name": "REWARD_CHIPS_FOR_OPERATOR",
      "outputs": [
        {
          "internalType": "uint256",
          "name": "",
          "type": "uint256"
        }
      ],
      "stateMutability": "view",
      "type": "function"
    },
    {
      "inputs": [],
      "name": "ROUND_PERIOD",
      "outputs": [
        {
          "internalType": "uint256",
          "name": "",
          "type": "uint256"
        }
      ],
      "stateMutability": "view",
      "type": "function"
    },
    {
      "inputs": [],
      "name": "TICKET_NUMBER_RANGE",
      "outputs": [
        {
          "internalType": "uint256",
          "name": "",
          "type": "uint256"
        }
      ],
      "stateMutability": "view",
      "type": "function"
    },
    {
      "inputs": [],
      "name": "TICKET_PRICE_IN_CHIPS",
      "outputs": [
        {
          "internalType": "uint256",
          "name": "",
          "type": "uint256"
        }
      ],
      "stateMutability": "view",
      "type": "function"
    },
    {
      "inputs": [],
      "name": "TICKET_PRICE_IN_ETHER",
      "outputs": [
        {
          "internalType": "uint256",
          "name": "",
          "type": "uint256"
        }
      ],
      "stateMutability": "view",
      "type": "function"
    },
    {
      "inputs": [],
      "name": "acceptOwnership",
      "outputs": [],
      "stateMutability": "nonpayable",
      "type": "function"
    },
    {
      "inputs": [
        {
          "internalType": "uint256",
          "name": "_ticketNumber",
          "type": "uint256"
        }
      ],
      "name": "buyTicketWithChips",
      "outputs": [],
      "stateMutability": "nonpayable",
      "type": "function"
    },
    {
      "inputs": [
        {
          "internalType": "uint256",
          "name": "_ticketNumber",
          "type": "uint256"
        }
      ],
      "name": "buyTicketWithEther",
      "outputs": [],
      "stateMutability": "payable",
      "type": "function"
    },
    {
      "inputs": [],
      "name": "callbackGasLimit",
      "outputs": [
        {
          "internalType": "uint32",
          "name": "",
          "type": "uint32"
        }
      ],
      "stateMutability": "view",
      "type": "function"
    },
    {
      "inputs": [
        {
          "internalType": "uint256",
          "name": "",
          "type": "uint256"
        }
      ],
      "name": "chipsPurchaseCount",
      "outputs": [
        {
          "internalType": "uint256",
          "name": "",
          "type": "uint256"
        }
      ],
      "stateMutability": "view",
      "type": "function"
    },
    {
      "inputs": [],
      "name": "chipsToken",
      "outputs": [
        {
          "internalType": "contract IChipsToken",
          "name": "",
          "type": "address"
        }
      ],
      "stateMutability": "view",
      "type": "function"
    },
    {
      "inputs": [],
      "name": "drawLottery",
      "outputs": [],
      "stateMutability": "nonpayable",
      "type": "function"
    },
    {
      "inputs": [
        {
          "internalType": "uint256",
          "name": "",
          "type": "uint256"
        }
      ],
      "name": "etherPurchaseCount",
      "outputs": [
        {
          "internalType": "uint256",
          "name": "",
          "type": "uint256"
        }
      ],
      "stateMutability": "view",
      "type": "function"
    },
    {
      "inputs": [],
      "name": "getCurRoundState",
      "outputs": [
        {
          "internalType": "enum RefundableLottery.RoundState",
          "name": "",
          "type": "uint8"
        }
      ],
      "stateMutability": "view",
      "type": "function"
    },
    {
      "inputs": [],
      "name": "getDiscountedPriceInChips",
      "outputs": [
        {
          "internalType": "uint256",
          "name": "",
          "type": "uint256"
        }
      ],
      "stateMutability": "pure",
      "type": "function"
    },
    {
      "inputs": [],
      "name": "getGlobalConfig",
      "outputs": [
        {
          "internalType": "uint256",
          "name": "",
          "type": "uint256"
        },
        {
          "internalType": "uint256",
          "name": "",
          "type": "uint256"
        },
        {
          "internalType": "uint256",
          "name": "",
          "type": "uint256"
        },
        {
          "internalType": "uint256",
          "name": "",
          "type": "uint256"
        },
        {
          "internalType": "uint256",
          "name": "",
          "type": "uint256"
        },
        {
          "internalType": "uint256",
          "name": "",
          "type": "uint256"
        },
        {
          "internalType": "uint256",
          "name": "",
          "type": "uint256"
        },
        {
          "internalType": "uint256",
          "name": "",
          "type": "uint256"
        },
        {
          "internalType": "uint256",
          "name": "",
          "type": "uint256"
        },
        {
          "internalType": "uint256",
          "name": "",
          "type": "uint256"
        }
      ],
      "stateMutability": "pure",
      "type": "function"
    },
    {
      "inputs": [
        {
          "internalType": "uint256",
          "name": "_roundNumber",
          "type": "uint256"
        }
      ],
      "name": "getRoundDetail",
      "outputs": [
        {
          "components": [
            {
              "internalType": "uint256",
              "name": "roundNumber",
              "type": "uint256"
            },
            {
              "internalType": "enum RefundableLottery.RoundState",
              "name": "realtimeState",
              "type": "uint8"
            },
            {
              "components": [
                {
                  "internalType": "enum RefundableLottery.RoundState",
                  "name": "state",
                  "type": "uint8"
                },
                {
                  "internalType": "uint256",
                  "name": "startBlockNumber",
                  "type": "uint256"
                },
                {
                  "internalType": "uint256",
                  "name": "chainlinkResult",
                  "type": "uint256"
                },
                {
                  "internalType": "uint256",
                  "name": "jackpotNumber",
                  "type": "uint256"
                },
                {
                  "internalType": "uint256",
                  "name": "requestId",
                  "type": "uint256"
                },
                {
                  "internalType": "uint256",
                  "name": "winnerCount",
                  "type": "uint256"
                }
              ],
              "internalType": "struct RefundableLottery.RoundInfo",
              "name": "info",
              "type": "tuple"
            },
            {
              "internalType": "uint256",
              "name": "etherPurchaseCount",
              "type": "uint256"
            },
            {
              "internalType": "uint256",
              "name": "chipsPurchaseCount",
              "type": "uint256"
            },
            {
              "internalType": "uint256",
              "name": "playerEtherPurchaseCount",
              "type": "uint256"
            },
            {
              "internalType": "uint256",
              "name": "playerChipsPurchaseCount",
              "type": "uint256"
            },
            {
              "internalType": "uint256",
              "name": "roundEtherBalance",
              "type": "uint256"
            },
            {
              "internalType": "uint256",
              "name": "roundChipsBalance",
              "type": "uint256"
            }
          ],
          "internalType": "struct RefundableLottery.RoundDetail",
          "name": "",
          "type": "tuple"
        }
      ],
      "stateMutability": "view",
      "type": "function"
    },
    {
      "inputs": [],
      "name": "keyHash",
      "outputs": [
        {
          "internalType": "bytes32",
          "name": "",
          "type": "bytes32"
        }
      ],
      "stateMutability": "view",
      "type": "function"
    },
    {
      "inputs": [],
      "name": "manager",
      "outputs": [
        {
          "internalType": "address payable",
          "name": "",
          "type": "address"
        }
      ],
      "stateMutability": "view",
      "type": "function"
    },
    {
      "inputs": [],
      "name": "owner",
      "outputs": [
        {
          "internalType": "address",
          "name": "",
          "type": "address"
        }
      ],
      "stateMutability": "view",
      "type": "function"
    },
    {
      "inputs": [
        {
          "internalType": "uint256",
          "name": "",
          "type": "uint256"
        },
        {
          "internalType": "address",
          "name": "",
          "type": "address"
        }
      ],
      "name": "playerChipsPurchaseCount",
      "outputs": [
        {
          "internalType": "uint256",
          "name": "",
          "type": "uint256"
        }
      ],
      "stateMutability": "view",
      "type": "function"
    },
    {
      "inputs": [
        {
          "internalType": "uint256",
          "name": "",
          "type": "uint256"
        },
        {
          "internalType": "address",
          "name": "",
          "type": "address"
        }
      ],
      "name": "playerEtherPurchaseCount",
      "outputs": [
        {
          "internalType": "uint256",
          "name": "",
          "type": "uint256"
        }
      ],
      "stateMutability": "view",
      "type": "function"
    },
    {
      "inputs": [
        {
          "internalType": "uint256",
          "name": "requestId",
          "type": "uint256"
        },
        {
          "internalType": "uint256[]",
          "name": "randomWords",
          "type": "uint256[]"
        }
      ],
      "name": "rawFulfillRandomWords",
      "outputs": [],
      "stateMutability": "nonpayable",
      "type": "function"
    },
    {
      "inputs": [
        {
          "internalType": "uint256",
          "name": "_previousRoundNumber",
          "type": "uint256"
        }
      ],
      "name": "refund",
      "outputs": [],
      "stateMutability": "nonpayable",
      "type": "function"
    },
    {
      "inputs": [
        {
          "internalType": "uint256",
          "name": "_previousRoundNumber",
          "type": "uint256"
        }
      ],
      "name": "refundChips",
      "outputs": [],
      "stateMutability": "nonpayable",
      "type": "function"
    },
    {
      "inputs": [
        {
          "internalType": "uint256",
          "name": "_previousRoundNumber",
          "type": "uint256"
        }
      ],
      "name": "refundEther",
      "outputs": [],
      "stateMutability": "nonpayable",
      "type": "function"
    },
    {
      "inputs": [],
      "name": "requestConfirmations",
      "outputs": [
        {
          "internalType": "uint16",
          "name": "",
          "type": "uint16"
        }
      ],
      "stateMutability": "view",
      "type": "function"
    },
    {
      "inputs": [
        {
          "internalType": "uint256",
          "name": "",
          "type": "uint256"
        }
      ],
      "name": "requestIdToRound",
      "outputs": [
        {
          "internalType": "uint256",
          "name": "",
          "type": "uint256"
        }
      ],
      "stateMutability": "view",
      "type": "function"
    },
    {
      "inputs": [],
      "name": "rollTheDice",
      "outputs": [
        {
          "internalType": "uint256",
          "name": "",
          "type": "uint256"
        }
      ],
      "stateMutability": "nonpayable",
      "type": "function"
    },
    {
      "inputs": [
        {
          "internalType": "uint256",
          "name": "",
          "type": "uint256"
        }
      ],
      "name": "roundChipsBalance",
      "outputs": [
        {
          "internalType": "uint256",
          "name": "",
          "type": "uint256"
        }
      ],
      "stateMutability": "view",
      "type": "function"
    },
    {
      "inputs": [
        {
          "internalType": "uint256",
          "name": "",
          "type": "uint256"
        }
      ],
      "name": "roundEtherBalance",
      "outputs": [
        {
          "internalType": "uint256",
          "name": "",
          "type": "uint256"
        }
      ],
      "stateMutability": "view",
      "type": "function"
    },
    {
      "inputs": [
        {
          "internalType": "uint256",
          "name": "",
          "type": "uint256"
        }
      ],
      "name": "roundInfos",
      "outputs": [
        {
          "internalType": "enum RefundableLottery.RoundState",
          "name": "state",
          "type": "uint8"
        },
        {
          "internalType": "uint256",
          "name": "startBlockNumber",
          "type": "uint256"
        },
        {
          "internalType": "uint256",
          "name": "chainlinkResult",
          "type": "uint256"
        },
        {
          "internalType": "uint256",
          "name": "jackpotNumber",
          "type": "uint256"
        },
        {
          "internalType": "uint256",
          "name": "requestId",
          "type": "uint256"
        },
        {
          "internalType": "uint256",
          "name": "winnerCount",
          "type": "uint256"
        }
      ],
      "stateMutability": "view",
      "type": "function"
    },
    {
      "inputs": [],
      "name": "roundNumber",
      "outputs": [
        {
          "internalType": "uint256",
          "name": "",
          "type": "uint256"
        }
      ],
      "stateMutability": "view",
      "type": "function"
    },
    {
      "inputs": [],
      "name": "s_vrfCoordinator",
      "outputs": [
        {
          "internalType": "contract IVRFCoordinatorV2Plus",
          "name": "",
          "type": "address"
        }
      ],
      "stateMutability": "view",
      "type": "function"
    },
    {
      "inputs": [
        {
          "internalType": "address",
          "name": "_vrfCoordinator",
          "type": "address"
        }
      ],
      "name": "setCoordinator",
      "outputs": [],
      "stateMutability": "nonpayable",
      "type": "function"
    },
    {
      "inputs": [],
      "name": "subscriptionId",
      "outputs": [
        {
          "internalType": "uint256",
          "name": "",
          "type": "uint256"
        }
      ],
      "stateMutability": "view",
      "type": "function"
    },
    {
      "inputs": [
        {
          "internalType": "uint256",
          "name": "",
          "type": "uint256"
        },
        {
          "internalType": "uint256",
          "name": "",
          "type": "uint256"
        },
        {
          "internalType": "uint256",
          "name": "",
          "type": "uint256"
        }
      ],
      "name": "ticketHolders",
      "outputs": [
        {
          "internalType": "address",
          "name": "",
          "type": "address"
        }
      ],
      "stateMutability": "view",
      "type": "function"
    },
    {
      "inputs": [
        {
          "internalType": "address",
          "name": "to",
          "type": "address"
        }
      ],
      "name": "transferOwnership",
      "outputs": [],
      "stateMutability": "nonpayable",
      "type": "function"
    }
  ],
  "bytecode": "0x60a0604052600f805465ffffffffffff19166403000186a01790553480156200002757600080fd5b5060405162002e6a38038062002e6a8339810160408190526200004a9162000295565b823380600081620000a25760405162461bcd60e51b815260206004820152601860248201527f43616e6e6f7420736574206f776e657220746f207a65726f000000000000000060448201526064015b60405180910390fd5b600080546001600160a01b0319166001600160a01b0384811691909117909155811615620000d557620000d581620001cd565b5050506001600160a01b038116620001005760405163d92e233d60e01b815260040160405180910390fd5b600280546001600160a01b03199081166001600160a01b0393841617909155600e8490556010869055600d80549091169183169190911790553360805260016003819055600081815260046020527fabd6e7cb50984ff9c2f3e18a2660c3353dadf4e3291deeb275dae2cd1e44fe05805460ff191683179055437fabd6e7cb50984ff9c2f3e18a2660c3353dadf4e3291deeb275dae2cd1e44fe06556040517f33a701182892fd888ed152ca2ac23771a32e814469b7cd255965471e1af3a6599190a250505050620002e0565b336001600160a01b03821603620002275760405162461bcd60e51b815260206004820152601760248201527f43616e6e6f74207472616e7366657220746f2073656c66000000000000000000604482015260640162000099565b600180546001600160a01b0319166001600160a01b0383811691821790925560008054604051929316917fed8889f560326eb138920d842192f0eb3dd22b4f139c87a2c57538e05bae12789190a350565b80516001600160a01b03811681146200029057600080fd5b919050565b60008060008060808587031215620002ac57600080fd5b84519350620002be6020860162000278565b925060408501519150620002d56060860162000278565b905092959194509250565b608051612b606200030a600039600081816104dd01528181611e0d0152611ec80152612b606000f3fe6080604052600436106102515760003560e01c80636bbf1fb411610139578063b16b2549116100b6578063cdd853611161007a578063cdd8536114610795578063ce2a29cc146107aa578063cf134a1f146107d7578063d7c2a887146107ec578063f2fde38b14610801578063fd5352031461082157600080fd5b8063b16b2549146106be578063b510c58914610296578063c82a874e146106eb578063c89fcf0314610723578063cda92be41461073657600080fd5b806393b1e49d116100fd57806393b1e49d146105ff5780639eccacf61461061b578063a830f4781461063b578063a8504c8f1461065b578063b0fb162f1461068857600080fd5b80636bbf1fb41461058257806379ba5097146105975780637d789dee146105ac5780638da5cb5b146105c15780638ea98117146105df57600080fd5b8063278ecde1116101d2578063481c6a7511610196578063481c6a75146104cb5780634e2786fb146104ff5780634f3ae9f5146105155780635e3693b71461053757806361728f391461055757806361c5e18e1461056d57600080fd5b8063278ecde1146103e857806327e605ec1461040857806328caff911461041d5780634077604b1461048357806344364030146104b057600080fd5b8063139453df11610219578063139453df1461031b5780631be2963e146103315780631fe543e31461036957806323b629b01461038957806324f74697146103b657600080fd5b8063015841e91461025657806303e3c2511461029657806309c1ba2e146102ab5780630a54211e146102c15780630ebd676f146102e3575b600080fd5b34801561026257600080fd5b506102836102713660046124b0565b600a6020526000908152604090205481565b6040519081526020015b60405180910390f35b3480156102a257600080fd5b50610283603281565b3480156102b757600080fd5b5061028360105481565b3480156102cd57600080fd5b506102e16102dc3660046124b0565b610841565b005b3480156102ef57600080fd5b506102836102fe3660046124e0565b600860209081526000928352604080842090915290825290205481565b34801561032757600080fd5b506102836103e881565b34801561033d57600080fd5b5061035161034c36600461250c565b610c0f565b6040516001600160a01b03909116815260200161028d565b34801561037557600080fd5b506102e1610384366004612538565b610c54565b34801561039557600080fd5b506102836103a43660046124b0565b600b6020526000908152604090205481565b3480156103c257600080fd5b50600f546103d39063ffffffff1681565b60405163ffffffff909116815260200161028d565b3480156103f457600080fd5b506102e16104033660046124b0565b610ca4565b34801561041457600080fd5b506102e1610cb9565b34801561042957600080fd5b506104716104383660046124b0565b600460208190526000918252604090912080546001820154600283015460038401549484015460059094015460ff909316949193909286565b60405161028d969594939291906125ef565b34801561048f57600080fd5b5061028361049e3660046124b0565b600c6020526000908152604090205481565b3480156104bc57600080fd5b50610283662386f26fc1000081565b3480156104d757600080fd5b506103517f000000000000000000000000000000000000000000000000000000000000000081565b34801561050b57600080fd5b5061028360035481565b34801561052157600080fd5b5061052a610dcb565b60405161028d9190612625565b34801561054357600080fd5b506102e16105523660046124b0565b610e32565b34801561056357600080fd5b50610283600e5481565b34801561057957600080fd5b50610283600f81565b34801561058e57600080fd5b506102836110c5565b3480156105a357600080fd5b506102e1611100565b3480156105b857600080fd5b506102836111aa565b3480156105cd57600080fd5b506000546001600160a01b0316610351565b3480156105eb57600080fd5b506102e16105fa366004612639565b6113e6565b34801561060b57600080fd5b50610283670de0b6b3a764000081565b34801561062757600080fd5b50600254610351906001600160a01b031681565b34801561064757600080fd5b50600d54610351906001600160a01b031681565b34801561066757600080fd5b5061067b6106763660046124b0565b6114d8565b60405161028d919061269c565b34801561069457600080fd5b50600f546106ab90640100000000900461ffff1681565b60405161ffff909116815260200161028d565b3480156106ca57600080fd5b506102836106d93660046124b0565b60066020526000908152604090205481565b3480156106f757600080fd5b506102836107063660046124e0565b600760209081526000928352604080842090915290825290205481565b6102e16107313660046124b0565b61162e565b34801561074257600080fd5b5061074b611883565b604080519a8b5260208b0199909952978901969096526060880194909452608087019290925260a086015260c085015260e08401526101008301526101208201526101400161028d565b3480156107a157600080fd5b50610283606481565b3480156107b657600080fd5b506102836107c53660046124b0565b60056020526000908152604090205481565b3480156107e357600080fd5b506102836118de565b3480156107f857600080fd5b50610283600181565b34801561080d57600080fd5b506102e161081c366004612639565b6118f4565b34801561082d57600080fd5b506102e161083c3660046124b0565b611905565b600160035460009081526004602052604090205460ff166005811115610869576108696125b7565b146108bb5760405162461bcd60e51b815260206004820181905260248201527f5468652063757272656e7420726f756e64206973206e6f7420706c6179696e6760448201526064015b60405180910390fd5b60035460009081526004602052604090206001015443906108de9060649061272b565b116108fb5760405162461bcd60e51b81526004016108b29061273e565b600f81111561091c5760405162461bcd60e51b81526004016108b29061279b565b33321461093b5760405162461bcd60e51b81526004016108b2906127e8565b600354600090815260066020526040812080546001929061095d90849061272b565b909155505060035460009081526006602090815260408083205460059092529091205480610a075760405162461bcd60e51b815260206004820152604b60248201527f5468657265206973206e6f20706c61796572207573696e67204574686572206960448201527f6e207468697320726f756e642c20736f20796f752063616e206e6f742075736560648201526a1021b434b839aa37b5b2b760a91b608482015260a4016108b2565b6032610a13828461272b565b610a1e846064612845565b610a289190612872565b1115610ab85760405162461bcd60e51b815260206004820152605360248201527f546865206e756d626572206f6620706c6179657273207573696e67204368697060448201527f73546f6b656e2073686f756c64206265206c657373207468616e20353025206f606482015272662074686520746f74616c20706c617965727360681b608482015260a4016108b2565b60035460009081526008602090815260408083203384529091528120805460019290610ae590849061272b565b909155505060035460009081526009602090815260408083208684528252822080546001810182559083529082200180546001600160a01b03191633179055610b2c6110c5565b600d546040516354390e1760e11b8152336004820152306024820152604481018390529192506001600160a01b03169063a8721c2e90606401600060405180830381600087803b158015610b7f57600080fd5b505af1158015610b93573d6000803e3d6000fd5b50506003546000908152600b602052604081208054859450909250610bb990849061272b565b909155505060035460408051868152602081018490526001918101919091523391907ff471259fc541585bf572a377eaebdb27bdfa4b06bf84e0b1001daa5712e748bd906060015b60405180910390a350505050565b60096020528260005260406000206020528160005260406000208181548110610c3757600080fd5b6000918252602090912001546001600160a01b0316925083915050565b6002546001600160a01b03163314610c945760025460405163073e64fd60e21b81523360048201526001600160a01b0390911660248201526044016108b2565b610c9f838383611b74565b505050565b610cad81611905565b610cb681610e32565b50565b600460035460009081526004602052604090205460ff166005811115610ce157610ce16125b7565b14610d415760405162461bcd60e51b815260206004820152602a60248201527f5468652063757272656e7420726f756e64207374617465206973206e6f74205260448201526945414459544f4452415760b01b60648201526084016108b2565b6003805460009081526004602052604090200154610d5e90611d8e565b600d546040516340c10f1960e01b8152336004820152670de0b6b3a764000060248201526001600160a01b03909116906340c10f1990604401600060405180830381600087803b158015610db157600080fd5b505af1158015610dc5573d6000803e3d6000fd5b50505050565b60035460009081526004602052604081205460ff166001816005811115610df457610df46125b7565b148015610e205750600354600090815260046020526040902060010154610e1d9060649061272b565b43115b15610e2d57600291505090565b919050565b600560008281526004602052604090205460ff166005811115610e5757610e576125b7565b14610e745760405162461bcd60e51b81526004016108b290612886565b60008181526004602052604090206005015415610ea35760405162461bcd60e51b81526004016108b2906128d7565b600081815260086020908152604080832033845290915281205490819003610ec9575050565b60008281526008602090815260408083203384529091528120819055610eed6110c5565b905060006064610efe600182612934565b610f088486612845565b610f129190612845565b610f1c9190612872565b6000858152600b6020526040902054909150811115610f4d5760405162461bcd60e51b81526004016108b290612947565b600d546040516370a0823160e01b815230600482015282916001600160a01b0316906370a0823190602401602060405180830381865afa158015610f95573d6000803e3d6000fd5b505050506040513d601f19601f82011682018060405250810190610fb99190612999565b1015610fd75760405162461bcd60e51b81526004016108b2906129b2565b6000848152600b602052604081208054839290610ff5908490612934565b9091555050600d5460405163a9059cbb60e01b8152336004820152602481018390526001600160a01b039091169063a9059cbb906044016020604051808303816000875af115801561104b573d6000803e3d6000fd5b505050506040513d601f19601f8201168201806040525081019061106f91906129ff565b61108b5760405162461bcd60e51b81526004016108b290612a21565b6040805182815260016020820152339186917f811127de540712b4d1c4732ad8504f669e0703bab0b1ea8c980c11c361c4a13b9101610c01565b600060646110d4603282612934565b6110e76103e8662386f26fc10000612845565b6110f19190612845565b6110fb9190612872565b905090565b6001546001600160a01b031633146111535760405162461bcd60e51b815260206004820152601660248201527526bab9ba10313290383937b837b9b2b21037bbb732b960511b60448201526064016108b2565b60008054336001600160a01b0319808316821784556001805490911690556040516001600160a01b0390921692909183917f8be0079c531659141344cd1fd0a4f28419497f9722a3daafe3b4186f6b6457e091a350565b600060026111b6610dcb565b60058111156111c7576111c76125b7565b146112235760405162461bcd60e51b815260206004820152602660248201527f5468652063757272656e7420726f756e64206973206e6f7420726561647920746044820152651bc81c9bdb1b60d21b60648201526084016108b2565b600380546000908152600460209081526040808320805460ff1916909417909355600254835160c081018552600e54815260105481840152600f54640100000000810461ffff168287015263ffffffff16606082015260016080820152845192830190945282825291926001600160a01b0390921691639b1c385e9160a08201906112ad906122bf565b8152506040518263ffffffff1660e01b81526004016112cc9190612a62565b6020604051808303816000875af11580156112eb573d6000803e3d6000fd5b505050506040513d601f19601f8201168201806040525081019061130f9190612999565b6003805460009081526004602081815260408084209092018590559254848352600c84529181902082905580518481523393810193909352929350917e5cad569b235bccd21a222b2ca5705e7bcfc283436ec3ac0a0b17076cd5c70e910160405180910390a2600d546040516340c10f1960e01b8152336004820152670de0b6b3a764000060248201526001600160a01b03909116906340c10f1990604401600060405180830381600087803b1580156113c857600080fd5b505af11580156113dc573d6000803e3d6000fd5b5092949350505050565b6000546001600160a01b0316331480159061140c57506002546001600160a01b03163314155b1561145d57336114246000546001600160a01b031690565b60025460405163061db9c160e01b81526001600160a01b03938416600482015291831660248301529190911660448201526064016108b2565b6001600160a01b0381166114845760405163d92e233d60e01b815260040160405180910390fd5b600280546001600160a01b0319166001600160a01b0383169081179091556040519081527fd1a6a14209a385a964d036e404cb5cfb71f4000cdb03c9366292430787261be69060200160405180910390a150565b6114e061242e565b816000036114ee5760035491505b604051806101200160405280838152602001611508610dcb565b6005811115611519576115196125b7565b8152600084815260046020908152604091829020825160c081019093528054919093019290829060ff166005811115611554576115546125b7565b6005811115611565576115656125b7565b8152600182015460208083019190915260028301546040808401919091526003840154606080850191909152600485015460808086019190915260059586015460a09586015295875260008a81529483528185205487840152898552600683528185205487830152898552600783528185203380875290845282862054918801919091528985526008835281852090855282528084205494860194909452878352600a81528383205491850191909152958152600b9095529093205460c0909301929092525090565b600160035460009081526004602052604090205460ff166005811115611656576116566125b7565b146116a35760405162461bcd60e51b815260206004820181905260248201527f5468652063757272656e7420726f756e64206973206e6f7420706c6179696e6760448201526064016108b2565b60035460009081526004602052604090206001015443906116c69060649061272b565b116116e35760405162461bcd60e51b81526004016108b29061273e565b662386f26fc1000034146117455760405162461bcd60e51b8152602060048201526024808201527f54686520707269636520666f722061207469636b657420697320302e303120656044820152633a3432b960e11b60648201526084016108b2565b600f8111156117665760405162461bcd60e51b81526004016108b29061279b565b3332146117855760405162461bcd60e51b81526004016108b2906127e8565b600354600090815260076020908152604080832033845290915281208054600192906117b290849061272b565b9091555050600380546000908152600960209081526040808320858452825280832080546001810182559084528284200180546001600160a01b0319163317905592548252600a9052908120805434929061180e90849061272b565b9091555050600354600090815260056020526040812080546001929061183590849061272b565b90915550506003546040805183815234602082015260008183015290513392917ff471259fc541585bf572a377eaebdb27bdfa4b06bf84e0b1001daa5712e748bd919081900360600190a350565b60008080808080808080806001662386f26fc10000600f6103e860326118a98285612845565b60326064670de0b6b3a76400006118be6110c5565b995099509950995099509950995099509950995090919293949596979899565b6118f16103e8662386f26fc10000612845565b81565b6118fc612330565b610cb681612385565b600560008281526004602052604090205460ff16600581111561192a5761192a6125b7565b146119475760405162461bcd60e51b81526004016108b290612886565b600081815260046020526040902060050154156119765760405162461bcd60e51b81526004016108b2906128d7565b60008181526007602090815260408083203384529091528120549081900361199c575050565b6000828152600760209081526040808320338452909152812081905560646119c5600182612934565b6119d6662386f26fc1000085612845565b6119e09190612845565b6119ea9190612872565b6000848152600a6020526040902054909150811115611a1b5760405162461bcd60e51b81526004016108b290612947565b80471015611a3b5760405162461bcd60e51b81526004016108b2906129b2565b6000838152600a602052604081208054839290611a59908490612934565b9091555050604051339082156108fc029083906000818181858888f19350505050158015611a8b573d6000803e3d6000fd5b506040805182815260006020820152339185917f811127de540712b4d1c4732ad8504f669e0703bab0b1ea8c980c11c361c4a13b910160405180910390a3600d546001600160a01b03166340c10f193360646103e86001611af3662386f26fc1000089612845565b611afd9190612845565b611b079190612845565b611b119190612872565b6040516001600160e01b031960e085901b1681526001600160a01b0390921660048301526024820152604401600060405180830381600087803b158015611b5757600080fd5b505af1158015611b6b573d6000803e3d6000fd5b50505050505050565b6003546000848152600c602052604090205414611be65760405162461bcd60e51b815260206004820152602a60248201527f54686520726571756573744964206973206e6f7420666f7220746865206375726044820152691c995b9d081c9bdd5b9960b21b60648201526084016108b2565b6003805460009081526004602052604090205460ff166005811115611c0d57611c0d6125b7565b14611c695760405162461bcd60e51b815260206004820152602660248201527f5468652063757272656e7420726f756e64207374617465206973206e6f7420526044820152654f4c4c494e4760d01b60648201526084016108b2565b60035460009081526004602081905260408220805460ff191690911790558290829081611c9857611c98612b00565b9050602002013560046000600354815260200190815260200160002060020181905550600f6001611cc9919061272b565b82826000818110611cdc57611cdc612b00565b90506020020135611ced9190612b16565b600460006003548152602001908152602001600020600301819055506003547f6fa5a1670dd7f8ec3e75741cecdac98c388155b7fda5982a4877c317b23aa4fa8484846000818110611d4157611d41612b00565b9050602002013560046000600354815260200190815260200160002060030154604051611d81939291909283526020830191909152604082015260600190565b60405180910390a2505050565b6003546000908152600a60205260408120549003611da95750565b6003546000908152600a6020526040812054606490611dca90600190612845565b611dd49190612872565b905080600a600060035481526020019081526020016000206000828254611dfb9190612934565b90915550506040516001600160a01b037f0000000000000000000000000000000000000000000000000000000000000000169082156108fc029083906000818181858888f19350505050158015611e56573d6000803e3d6000fd5b506003546000908152600b6020526040812054606490611e7890600190612845565b611e829190612872565b905080600b600060035481526020019081526020016000206000828254611ea99190612934565b9091555050600d5460405163a9059cbb60e01b81526001600160a01b037f000000000000000000000000000000000000000000000000000000000000000081166004830152602482018490529091169063a9059cbb906044016020604051808303816000875af1158015611f21573d6000803e3d6000fd5b505050506040513d601f19601f82011682018060405250810190611f4591906129ff565b50600354600090815260096020908152604080832086845290915290205480156121e2576003546000908152600a6020526040812054611f86908390612872565b6003546000908152600b602052604081205491925090611fa7908490612872565b600380546000908152600a6020908152604080832083905592548252600b90529081208190559091505b60035460009081526009602090815260408083208a84529091529020548110156121de5760035460009081526009602090815260408083208a8452909152902080548290811061202357612023612b00565b60009182526020822001546040516001600160a01b039091169185156108fc02918691818181858888f19350505050158015612063573d6000803e3d6000fd5b50811561214757600d5460035460009081526009602090815260408083208b8452909152902080546001600160a01b039092169163a9059cbb9190849081106120ae576120ae612b00565b60009182526020909120015460405160e083901b6001600160e01b03191681526001600160a01b039091166004820152602481018590526044016020604051808303816000875af1158015612107573d6000803e3d6000fd5b505050506040513d601f19601f8201168201806040525081019061212b91906129ff565b6121475760405162461bcd60e51b81526004016108b290612a21565b60035460008181526009602090815260408083208b8452909152902080547fa7690abde6991f1cc0867efd5b8921cc6665a59a5f771665d8213ff7a75540c7918a918590811061219957612199612b00565b60009182526020918290200154604080519384526001600160a01b039091169183019190915281018690526060810185905260800160405180910390a2600101611fd1565b5050505b600380546000908152600460205260408082206005908101859055925482529020805460ff1916600183021790555060035460408051868152602081018490527fc5285db7d8a9c3a0ce0e8982ff9a84fe8df355101d9545735558c69efb4aad57910160405180910390a2600160036000828254612260919061272b565b909155505060038054600090815260046020526040808220805460ff191660019081179091558354835281832043910155915491517f33a701182892fd888ed152ca2ac23771a32e814469b7cd255965471e1af3a6599190a250505050565b60607f92fd13387c7fe7befbc38d303d6468778fb9731bc4583f17d92989c6fcfdeaaa826040516024016122f891511515815260200190565b60408051601f198184030181529190526020810180516001600160e01b03166001600160e01b03199093169290921790915292915050565b6000546001600160a01b031633146123835760405162461bcd60e51b815260206004820152601660248201527527b7363c9031b0b63630b1363290313c9037bbb732b960511b60448201526064016108b2565b565b336001600160a01b038216036123dd5760405162461bcd60e51b815260206004820152601760248201527f43616e6e6f74207472616e7366657220746f2073656c6600000000000000000060448201526064016108b2565b600180546001600160a01b0319166001600160a01b0383811691821790925560008054604051929316917fed8889f560326eb138920d842192f0eb3dd22b4f139c87a2c57538e05bae12789190a350565b6040805161012081018252600080825260208201529081016124806040805160c08101909152806000815260200160008152602001600081526020016000815260200160008152602001600081525090565b81526020016000815260200160008152602001600081526020016000815260200160008152602001600081525090565b6000602082840312156124c257600080fd5b5035919050565b80356001600160a01b0381168114610e2d57600080fd5b600080604083850312156124f357600080fd5b82359150612503602084016124c9565b90509250929050565b60008060006060848603121561252157600080fd5b505081359360208301359350604090920135919050565b60008060006040848603121561254d57600080fd5b83359250602084013567ffffffffffffffff8082111561256c57600080fd5b818601915086601f83011261258057600080fd5b81358181111561258f57600080fd5b8760208260051b85010111156125a457600080fd5b6020830194508093505050509250925092565b634e487b7160e01b600052602160045260246000fd5b600681106125eb57634e487b7160e01b600052602160045260246000fd5b9052565b60c081016125fd82896125cd565b602082019690965260408101949094526060840192909252608083015260a090910152919050565b6020810161263382846125cd565b92915050565b60006020828403121561264b57600080fd5b612654826124c9565b9392505050565b6126668282516125cd565b6020810151602083015260408101516040830152606081015160608301526080810151608083015260a081015160a08301525050565b815181526020808301516101c08301916126b8908401826125cd565b5060408301516126cb604084018261265b565b50606083015161010083810191909152608084015161012084015260a084015161014084015260c084015161016084015260e0840151610180840152909201516101a09091015290565b634e487b7160e01b600052601160045260246000fd5b8082018082111561263357612633612715565b60208082526038908201527f5468652063757272656e7420726f756e6420697320656e642c20706c6561736560408201527f207761697420666f7220746865206e65787420726f756e640000000000000000606082015260800190565b6020808252602d908201527f546865207469636b6574206e756d6265722073686f756c64206265206265747760408201526c65656e205b302c36353533355d60981b606082015260800190565b60208082526039908201527f4f6e6c7920454f412845787465726e616c6c79204f776e6564204163636f756e60408201527f74292063616e2063616c6c20746869732066756e6374696f6e00000000000000606082015260800190565b808202811582820484141761263357612633612715565b634e487b7160e01b600052601260045260246000fd5b6000826128815761288161285c565b500490565b60208082526031908201527f596f752063616e206e6f7420726566756e64206120726f756e64207768696368604082015270081a5cc81b9bdd0818dbdb5c1b195d1959607a1b606082015260800190565b6020808252603c908201527f546865207072697a6520706f6f6c206f66207468697320726f756e642068617360408201527f206265656e2074616b656e206279207468652077696e6e657228732900000000606082015260800190565b8181038181111561263357612633612715565b60208082526032908201527f5468652062616c616e6365206f66207468697320726f756e64206973206e6f7460408201527108195b9bdd59da08199bdc881c99599d5b9960721b606082015260800190565b6000602082840312156129ab57600080fd5b5051919050565b6020808252602d908201527f54686520636f6e74726163742062616c616e6365206973206e6f7420656e6f7560408201526c19da08199bdc881c99599d5b99609a1b606082015260800190565b600060208284031215612a1157600080fd5b8151801515811461265457600080fd5b60208082526021908201527f546865207472616e73666572206f66204368697073546f6b656e206661696c656040820152601960fa1b606082015260800190565b60006020808352835160208401526020840151604084015261ffff6040850151166060840152606084015163ffffffff80821660808601528060808701511660a0860152505060a084015160c08085015280518060e086015260005b81811015612adb5782810184015186820161010001528301612abe565b506101009250600083828701015282601f19601f830116860101935050505092915050565b634e487b7160e01b600052603260045260246000fd5b600082612b2557612b2561285c565b50069056fea2646970667358221220870c7b5aa8d2b23c9c9f7f5787a7ada62777a03fdcbcf6530285ef50f3385e7a64736f6c63430008180033",
  "linkReferences": {},
  "deployedLinkReferences": {}
}