{
  "_format": "hh-sol-artifact-1",
  "contractName": "RefundableLottery",
  "sourceName": "contracts/RefundableLottery.sol",
  "abi": [
    {
      "inputs": [
        {
          "internalType": "uint256",
          "name": "_subscriptionId",
          "type": "uint256"
        },
        {
          "internalType": "address",
          "name": "_vrf",
          "type": "address"
        },
        {
          "internalType": "bytes32",
          "name": "_keyHash",
          "type": "bytes32"
        },
        {
          "internalType": "address",
          "name": "_chipsToken",
          "type": "address"
        }
      ],
      "stateMutability": "nonpayable",
      "type": "constructor"
    },
    {
      "inputs": [
        {
          "internalType": "address",
          "name": "have",
          "type": "address"
        },
        {
          "internalType": "address",
          "name": "want",
          "type": "address"
        }
      ],
      "name": "OnlyCoordinatorCanFulfill",
      "type": "error"
    },
    {
      "inputs": [
        {
          "internalType": "address",
          "name": "have",
          "type": "address"
        },
        {
          "internalType": "address",
          "name": "owner",
          "type": "address"
        },
        {
          "internalType": "address",
          "name": "coordinator",
          "type": "address"
        }
      ],
      "name": "OnlyOwnerOrCoordinator",
      "type": "error"
    },
    {
      "inputs": [],
      "name": "ZeroAddress",
      "type": "error"
    },
    {
      "anonymous": false,
      "inputs": [
        {
          "indexed": true,
          "internalType": "uint256",
          "name": "roundNumber",
          "type": "uint256"
        },
        {
          "indexed": true,
          "internalType": "address",
          "name": "player",
          "type": "address"
        },
        {
          "indexed": false,
          "internalType": "uint256",
          "name": "ticketNumber",
          "type": "uint256"
        },
        {
          "indexed": false,
          "internalType": "uint256",
          "name": "amount",
          "type": "uint256"
        },
        {
          "indexed": false,
          "internalType": "bool",
          "name": "inChips",
          "type": "bool"
        }
      ],
      "name": "BuyTicket",
      "type": "event"
    },
    {
      "anonymous": false,
      "inputs": [
        {
          "indexed": false,
          "internalType": "address",
          "name": "vrfCoordinator",
          "type": "address"
        }
      ],
      "name": "CoordinatorSet",
      "type": "event"
    },
    {
      "anonymous": false,
      "inputs": [
        {
          "indexed": true,
          "internalType": "uint256",
          "name": "roundNumber",
          "type": "uint256"
        },
        {
          "indexed": false,
          "internalType": "uint256",
          "name": "jackpotNumber",
          "type": "uint256"
        },
        {
          "indexed": false,
          "internalType": "address",
          "name": "winner",
          "type": "address"
        },
        {
          "indexed": false,
          "internalType": "uint256",
          "name": "amount",
          "type": "uint256"
        },
        {
          "indexed": false,
          "internalType": "bool",
          "name": "inChips",
          "type": "bool"
        }
      ],
      "name": "DrawLottery",
      "type": "event"
    },
    {
      "anonymous": false,
      "inputs": [
        {
          "indexed": true,
          "internalType": "uint256",
          "name": "roundNumber",
          "type": "uint256"
        },
        {
          "indexed": false,
          "internalType": "uint256",
          "name": "requestId",
          "type": "uint256"
        },
        {
          "indexed": false,
          "internalType": "uint256",
          "name": "chainlinkResult",
          "type": "uint256"
        },
        {
          "indexed": false,
          "internalType": "uint256",
          "name": "jackpotNumber",
          "type": "uint256"
        }
      ],
      "name": "LotteryDrawing",
      "type": "event"
    },
    {
      "anonymous": false,
      "inputs": [
        {
          "indexed": true,
          "internalType": "uint256",
          "name": "roundNumber",
          "type": "uint256"
        },
        {
          "indexed": false,
          "internalType": "uint256",
          "name": "requestId",
          "type": "uint256"
        },
        {
          "indexed": false,
          "internalType": "address",
          "name": "roller",
          "type": "address"
        }
      ],
      "name": "LotteryRolling",
      "type": "event"
    },
    {
      "anonymous": false,
      "inputs": [
        {
          "indexed": true,
          "internalType": "address",
          "name": "from",
          "type": "address"
        },
        {
          "indexed": true,
          "internalType": "address",
          "name": "to",
          "type": "address"
        }
      ],
      "name": "OwnershipTransferRequested",
      "type": "event"
    },
    {
      "anonymous": false,
      "inputs": [
        {
          "indexed": true,
          "internalType": "address",
          "name": "from",
          "type": "address"
        },
        {
          "indexed": true,
          "internalType": "address",
          "name": "to",
          "type": "address"
        }
      ],
      "name": "OwnershipTransferred",
      "type": "event"
    },
    {
      "anonymous": false,
      "inputs": [
        {
          "indexed": true,
          "internalType": "uint256",
          "name": "roundNumber",
          "type": "uint256"
        },
        {
          "indexed": true,
          "internalType": "address",
          "name": "player",
          "type": "address"
        },
        {
          "indexed": false,
          "internalType": "uint256",
          "name": "refundAmount",
          "type": "uint256"
        },
        {
          "indexed": false,
          "internalType": "bool",
          "name": "inChips",
          "type": "bool"
        }
      ],
      "name": "Refund",
      "type": "event"
    },
    {
      "anonymous": false,
      "inputs": [
        {
          "indexed": true,
          "internalType": "uint256",
          "name": "roundNumber",
          "type": "uint256"
        },
        {
          "indexed": false,
          "internalType": "uint256",
          "name": "jackpotNumber",
          "type": "uint256"
        },
        {
          "indexed": false,
          "internalType": "uint256",
          "name": "winnerCount",
          "type": "uint256"
        }
      ],
      "name": "RoundEnded",
      "type": "event"
    },
    {
      "anonymous": false,
      "inputs": [
        {
          "indexed": true,
          "internalType": "uint256",
          "name": "roundNumber",
          "type": "uint256"
        }
      ],
      "name": "RoundStarted",
      "type": "event"
    },
    {
      "inputs": [],
      "name": "CHIPS_PRICE_PER_ETHER",
      "outputs": [
        {
          "internalType": "uint256",
          "name": "",
          "type": "uint256"
        }
      ],
      "stateMutability": "view",
      "type": "function"
    },
    {
      "inputs": [],
      "name": "DISCOUNT_RATE",
      "outputs": [
        {
          "internalType": "uint256",
          "name": "",
          "type": "uint256"
        }
      ],
      "stateMutability": "view",
      "type": "function"
    },
    {
      "inputs": [],
      "name": "MANAGEMENT_FEE_RATE",
      "outputs": [
        {
          "internalType": "uint256",
          "name": "",
          "type": "uint256"
        }
      ],
      "stateMutability": "view",
      "type": "function"
    },
    {
      "inputs": [],
      "name": "MAX_PARTICIPATE_RATE_USING_CHIPS",
      "outputs": [
        {
          "internalType": "uint256",
          "name": "",
          "type": "uint256"
        }
      ],
      "stateMutability": "view",
      "type": "function"
    },
    {
      "inputs": [],
      "name": "REWARD_CHIPS_FOR_OPERATOR",
      "outputs": [
        {
          "internalType": "uint256",
          "name": "",
          "type": "uint256"
        }
      ],
      "stateMutability": "view",
      "type": "function"
    },
    {
      "inputs": [],
      "name": "ROUND_PERIOD",
      "outputs": [
        {
          "internalType": "uint256",
          "name": "",
          "type": "uint256"
        }
      ],
      "stateMutability": "view",
      "type": "function"
    },
    {
      "inputs": [],
      "name": "TICKET_NUMBER_RANGE",
      "outputs": [
        {
          "internalType": "uint256",
          "name": "",
          "type": "uint256"
        }
      ],
      "stateMutability": "view",
      "type": "function"
    },
    {
      "inputs": [],
      "name": "TICKET_PRICE_IN_CHIPS",
      "outputs": [
        {
          "internalType": "uint256",
          "name": "",
          "type": "uint256"
        }
      ],
      "stateMutability": "view",
      "type": "function"
    },
    {
      "inputs": [],
      "name": "TICKET_PRICE_IN_ETHER",
      "outputs": [
        {
          "internalType": "uint256",
          "name": "",
          "type": "uint256"
        }
      ],
      "stateMutability": "view",
      "type": "function"
    },
    {
      "inputs": [],
      "name": "acceptOwnership",
      "outputs": [],
      "stateMutability": "nonpayable",
      "type": "function"
    },
    {
      "inputs": [
        {
          "internalType": "uint256",
          "name": "_ticketNumber",
          "type": "uint256"
        }
      ],
      "name": "buyTicketWithChips",
      "outputs": [],
      "stateMutability": "nonpayable",
      "type": "function"
    },
    {
      "inputs": [
        {
          "internalType": "uint256",
          "name": "_ticketNumber",
          "type": "uint256"
        }
      ],
      "name": "buyTicketWithEther",
      "outputs": [],
      "stateMutability": "payable",
      "type": "function"
    },
    {
      "inputs": [],
      "name": "callbackGasLimit",
      "outputs": [
        {
          "internalType": "uint32",
          "name": "",
          "type": "uint32"
        }
      ],
      "stateMutability": "view",
      "type": "function"
    },
    {
      "inputs": [
        {
          "internalType": "uint256",
          "name": "",
          "type": "uint256"
        }
      ],
      "name": "chipsPurchaseCount",
      "outputs": [
        {
          "internalType": "uint256",
          "name": "",
          "type": "uint256"
        }
      ],
      "stateMutability": "view",
      "type": "function"
    },
    {
      "inputs": [],
      "name": "chipsToken",
      "outputs": [
        {
          "internalType": "contract IChipsToken",
          "name": "",
          "type": "address"
        }
      ],
      "stateMutability": "view",
      "type": "function"
    },
    {
      "inputs": [],
      "name": "drawLottery",
      "outputs": [],
      "stateMutability": "nonpayable",
      "type": "function"
    },
    {
      "inputs": [
        {
          "internalType": "uint256",
          "name": "",
          "type": "uint256"
        }
      ],
      "name": "etherPurchaseCount",
      "outputs": [
        {
          "internalType": "uint256",
          "name": "",
          "type": "uint256"
        }
      ],
      "stateMutability": "view",
      "type": "function"
    },
    {
      "inputs": [],
      "name": "getCurRoundState",
      "outputs": [
        {
          "internalType": "enum RefundableLottery.RoundState",
          "name": "",
          "type": "uint8"
        }
      ],
      "stateMutability": "view",
      "type": "function"
    },
    {
      "inputs": [],
      "name": "getDiscountedPriceInChips",
      "outputs": [
        {
          "internalType": "uint256",
          "name": "",
          "type": "uint256"
        }
      ],
      "stateMutability": "pure",
      "type": "function"
    },
    {
      "inputs": [],
      "name": "getGlobalConfig",
      "outputs": [
        {
          "internalType": "uint256",
          "name": "",
          "type": "uint256"
        },
        {
          "internalType": "uint256",
          "name": "",
          "type": "uint256"
        },
        {
          "internalType": "uint256",
          "name": "",
          "type": "uint256"
        },
        {
          "internalType": "uint256",
          "name": "",
          "type": "uint256"
        },
        {
          "internalType": "uint256",
          "name": "",
          "type": "uint256"
        },
        {
          "internalType": "uint256",
          "name": "",
          "type": "uint256"
        },
        {
          "internalType": "uint256",
          "name": "",
          "type": "uint256"
        },
        {
          "internalType": "uint256",
          "name": "",
          "type": "uint256"
        },
        {
          "internalType": "uint256",
          "name": "",
          "type": "uint256"
        },
        {
          "internalType": "uint256",
          "name": "",
          "type": "uint256"
        }
      ],
      "stateMutability": "pure",
      "type": "function"
    },
    {
      "inputs": [
        {
          "internalType": "uint256",
          "name": "_roundNumber",
          "type": "uint256"
        }
      ],
      "name": "getRoundDetail",
      "outputs": [
        {
          "components": [
            {
              "internalType": "enum RefundableLottery.RoundState",
              "name": "state",
              "type": "uint8"
            },
            {
              "internalType": "uint256",
              "name": "startBlockNumber",
              "type": "uint256"
            },
            {
              "internalType": "uint256",
              "name": "chainlinkResult",
              "type": "uint256"
            },
            {
              "internalType": "uint256",
              "name": "jackpotNumber",
              "type": "uint256"
            },
            {
              "internalType": "uint256",
              "name": "requestId",
              "type": "uint256"
            },
            {
              "internalType": "uint256",
              "name": "winnerCount",
              "type": "uint256"
            }
          ],
          "internalType": "struct RefundableLottery.RoundInfo",
          "name": "",
          "type": "tuple"
        },
        {
          "internalType": "uint256",
          "name": "",
          "type": "uint256"
        },
        {
          "internalType": "uint256",
          "name": "",
          "type": "uint256"
        },
        {
          "internalType": "uint256",
          "name": "",
          "type": "uint256"
        },
        {
          "internalType": "uint256",
          "name": "",
          "type": "uint256"
        },
        {
          "internalType": "uint256",
          "name": "",
          "type": "uint256"
        },
        {
          "internalType": "uint256",
          "name": "",
          "type": "uint256"
        }
      ],
      "stateMutability": "view",
      "type": "function"
    },
    {
      "inputs": [
        {
          "internalType": "uint256",
          "name": "",
          "type": "uint256"
        },
        {
          "internalType": "address",
          "name": "",
          "type": "address"
        }
      ],
      "name": "holderChipsPurchaseCount",
      "outputs": [
        {
          "internalType": "uint256",
          "name": "",
          "type": "uint256"
        }
      ],
      "stateMutability": "view",
      "type": "function"
    },
    {
      "inputs": [
        {
          "internalType": "uint256",
          "name": "",
          "type": "uint256"
        },
        {
          "internalType": "address",
          "name": "",
          "type": "address"
        }
      ],
      "name": "holderEtherPurchaseCount",
      "outputs": [
        {
          "internalType": "uint256",
          "name": "",
          "type": "uint256"
        }
      ],
      "stateMutability": "view",
      "type": "function"
    },
    {
      "inputs": [],
      "name": "keyHash",
      "outputs": [
        {
          "internalType": "bytes32",
          "name": "",
          "type": "bytes32"
        }
      ],
      "stateMutability": "view",
      "type": "function"
    },
    {
      "inputs": [],
      "name": "manager",
      "outputs": [
        {
          "internalType": "address payable",
          "name": "",
          "type": "address"
        }
      ],
      "stateMutability": "view",
      "type": "function"
    },
    {
      "inputs": [],
      "name": "owner",
      "outputs": [
        {
          "internalType": "address",
          "name": "",
          "type": "address"
        }
      ],
      "stateMutability": "view",
      "type": "function"
    },
    {
      "inputs": [
        {
          "internalType": "uint256",
          "name": "requestId",
          "type": "uint256"
        },
        {
          "internalType": "uint256[]",
          "name": "randomWords",
          "type": "uint256[]"
        }
      ],
      "name": "rawFulfillRandomWords",
      "outputs": [],
      "stateMutability": "nonpayable",
      "type": "function"
    },
    {
      "inputs": [
        {
          "internalType": "uint256",
          "name": "_previousRoundNumber",
          "type": "uint256"
        }
      ],
      "name": "refund",
      "outputs": [],
      "stateMutability": "nonpayable",
      "type": "function"
    },
    {
      "inputs": [
        {
          "internalType": "uint256",
          "name": "_previousRoundNumber",
          "type": "uint256"
        }
      ],
      "name": "refundChips",
      "outputs": [],
      "stateMutability": "nonpayable",
      "type": "function"
    },
    {
      "inputs": [
        {
          "internalType": "uint256",
          "name": "_previousRoundNumber",
          "type": "uint256"
        }
      ],
      "name": "refundEther",
      "outputs": [],
      "stateMutability": "nonpayable",
      "type": "function"
    },
    {
      "inputs": [],
      "name": "requestConfirmations",
      "outputs": [
        {
          "internalType": "uint16",
          "name": "",
          "type": "uint16"
        }
      ],
      "stateMutability": "view",
      "type": "function"
    },
    {
      "inputs": [
        {
          "internalType": "uint256",
          "name": "",
          "type": "uint256"
        }
      ],
      "name": "requestIdToRound",
      "outputs": [
        {
          "internalType": "uint256",
          "name": "",
          "type": "uint256"
        }
      ],
      "stateMutability": "view",
      "type": "function"
    },
    {
      "inputs": [],
      "name": "rollTheDice",
      "outputs": [
        {
          "internalType": "uint256",
          "name": "",
          "type": "uint256"
        }
      ],
      "stateMutability": "nonpayable",
      "type": "function"
    },
    {
      "inputs": [
        {
          "internalType": "uint256",
          "name": "",
          "type": "uint256"
        }
      ],
      "name": "roundChipsBalance",
      "outputs": [
        {
          "internalType": "uint256",
          "name": "",
          "type": "uint256"
        }
      ],
      "stateMutability": "view",
      "type": "function"
    },
    {
      "inputs": [
        {
          "internalType": "uint256",
          "name": "",
          "type": "uint256"
        }
      ],
      "name": "roundEtherBalance",
      "outputs": [
        {
          "internalType": "uint256",
          "name": "",
          "type": "uint256"
        }
      ],
      "stateMutability": "view",
      "type": "function"
    },
    {
      "inputs": [
        {
          "internalType": "uint256",
          "name": "",
          "type": "uint256"
        }
      ],
      "name": "roundInfos",
      "outputs": [
        {
          "internalType": "enum RefundableLottery.RoundState",
          "name": "state",
          "type": "uint8"
        },
        {
          "internalType": "uint256",
          "name": "startBlockNumber",
          "type": "uint256"
        },
        {
          "internalType": "uint256",
          "name": "chainlinkResult",
          "type": "uint256"
        },
        {
          "internalType": "uint256",
          "name": "jackpotNumber",
          "type": "uint256"
        },
        {
          "internalType": "uint256",
          "name": "requestId",
          "type": "uint256"
        },
        {
          "internalType": "uint256",
          "name": "winnerCount",
          "type": "uint256"
        }
      ],
      "stateMutability": "view",
      "type": "function"
    },
    {
      "inputs": [],
      "name": "roundNumber",
      "outputs": [
        {
          "internalType": "uint256",
          "name": "",
          "type": "uint256"
        }
      ],
      "stateMutability": "view",
      "type": "function"
    },
    {
      "inputs": [],
      "name": "s_vrfCoordinator",
      "outputs": [
        {
          "internalType": "contract IVRFCoordinatorV2Plus",
          "name": "",
          "type": "address"
        }
      ],
      "stateMutability": "view",
      "type": "function"
    },
    {
      "inputs": [
        {
          "internalType": "address",
          "name": "_vrfCoordinator",
          "type": "address"
        }
      ],
      "name": "setCoordinator",
      "outputs": [],
      "stateMutability": "nonpayable",
      "type": "function"
    },
    {
      "inputs": [],
      "name": "subscriptionId",
      "outputs": [
        {
          "internalType": "uint256",
          "name": "",
          "type": "uint256"
        }
      ],
      "stateMutability": "view",
      "type": "function"
    },
    {
      "inputs": [
        {
          "internalType": "uint256",
          "name": "",
          "type": "uint256"
        },
        {
          "internalType": "uint256",
          "name": "",
          "type": "uint256"
        },
        {
          "internalType": "uint256",
          "name": "",
          "type": "uint256"
        }
      ],
      "name": "ticketHolders",
      "outputs": [
        {
          "internalType": "address",
          "name": "",
          "type": "address"
        }
      ],
      "stateMutability": "view",
      "type": "function"
    },
    {
      "inputs": [
        {
          "internalType": "address",
          "name": "to",
          "type": "address"
        }
      ],
      "name": "transferOwnership",
      "outputs": [],
      "stateMutability": "nonpayable",
      "type": "function"
    }
  ],
  "bytecode": "0x60a0604052600f805465ffffffffffff19166403000186a01790553480156200002757600080fd5b5060405162002e9738038062002e978339810160408190526200004a9162000295565b823380600081620000a25760405162461bcd60e51b815260206004820152601860248201527f43616e6e6f7420736574206f776e657220746f207a65726f000000000000000060448201526064015b60405180910390fd5b600080546001600160a01b0319166001600160a01b0384811691909117909155811615620000d557620000d581620001cd565b5050506001600160a01b038116620001005760405163d92e233d60e01b815260040160405180910390fd5b600280546001600160a01b03199081166001600160a01b0393841617909155600e8490556010869055600d80549091169183169190911790553360805260016003819055600081815260046020527fabd6e7cb50984ff9c2f3e18a2660c3353dadf4e3291deeb275dae2cd1e44fe05805460ff191683179055437fabd6e7cb50984ff9c2f3e18a2660c3353dadf4e3291deeb275dae2cd1e44fe06556040517f33a701182892fd888ed152ca2ac23771a32e814469b7cd255965471e1af3a6599190a250505050620002e0565b336001600160a01b03821603620002275760405162461bcd60e51b815260206004820152601760248201527f43616e6e6f74207472616e7366657220746f2073656c66000000000000000000604482015260640162000099565b600180546001600160a01b0319166001600160a01b0383811691821790925560008054604051929316917fed8889f560326eb138920d842192f0eb3dd22b4f139c87a2c57538e05bae12789190a350565b80516001600160a01b03811681146200029057600080fd5b919050565b60008060008060808587031215620002ac57600080fd5b84519350620002be6020860162000278565b925060408501519150620002d56060860162000278565b905092959194509250565b608051612b8d6200030a600039600081816104a501528181611e6c0152611f270152612b8d6000f3fe6080604052600436106102515760003560e01c806379ba509711610139578063b510c589116100b6578063cf134a1f1161007a578063cf134a1f1461076d578063d7c2a88714610782578063e5a6bc4114610797578063efe102fe146107cf578063f2fde38b14610807578063fd5352031461082757600080fd5b8063b510c58914610296578063c89fcf03146106b9578063cda92be4146106cc578063cdd853611461072b578063ce2a29cc1461074057600080fd5b80639eccacf6116100fd5780639eccacf6146105e3578063a830f47814610603578063a8504c8f14610623578063b0fb162f14610656578063b16b25491461068c57600080fd5b806379ba50971461055f5780637d789dee146105745780638da5cb5b146105895780638ea98117146105a757806393b1e49d146105c757600080fd5b806327e605ec116101d25780634e2786fb116101965780634e2786fb146104c75780634f3ae9f5146104dd5780635e3693b7146104ff57806361728f391461051f57806361c5e18e146105355780636bbf1fb41461054a57600080fd5b806327e605ec146103d057806328caff91146103e55780634077604b1461044b5780634436403014610478578063481c6a751461049357600080fd5b80631be2963e116102195780631be2963e146102f95780631fe543e31461033157806323b629b01461035157806324f746971461037e578063278ecde1146103b057600080fd5b8063015841e91461025657806303e3c2511461029657806309c1ba2e146102ab5780630a54211e146102c1578063139453df146102e3575b600080fd5b34801561026257600080fd5b5061028361027136600461251d565b600a6020526000908152604090205481565b6040519081526020015b60405180910390f35b3480156102a257600080fd5b50610283603281565b3480156102b757600080fd5b5061028360105481565b3480156102cd57600080fd5b506102e16102dc36600461251d565b610847565b005b3480156102ef57600080fd5b506102836103e881565b34801561030557600080fd5b50610319610314366004612536565b610c15565b6040516001600160a01b03909116815260200161028d565b34801561033d57600080fd5b506102e161034c366004612562565b610c5a565b34801561035d57600080fd5b5061028361036c36600461251d565b600b6020526000908152604090205481565b34801561038a57600080fd5b50600f5461039b9063ffffffff1681565b60405163ffffffff909116815260200161028d565b3480156103bc57600080fd5b506102e16103cb36600461251d565b610caa565b3480156103dc57600080fd5b506102e1610cbf565b3480156103f157600080fd5b5061043961040036600461251d565b600460208190526000918252604090912080546001820154600283015460038401549484015460059094015460ff909316949193909286565b60405161028d96959493929190612619565b34801561045757600080fd5b5061028361046636600461251d565b600c6020526000908152604090205481565b34801561048457600080fd5b50610283662386f26fc1000081565b34801561049f57600080fd5b506103197f000000000000000000000000000000000000000000000000000000000000000081565b3480156104d357600080fd5b5061028360035481565b3480156104e957600080fd5b506104f2610dd1565b60405161028d919061264f565b34801561050b57600080fd5b506102e161051a36600461251d565b610e38565b34801561052b57600080fd5b50610283600e5481565b34801561054157600080fd5b50610283600f81565b34801561055657600080fd5b506102836110cb565b34801561056b57600080fd5b506102e1611106565b34801561058057600080fd5b506102836111b0565b34801561059557600080fd5b506000546001600160a01b0316610319565b3480156105b357600080fd5b506102e16105c236600461267a565b6113ec565b3480156105d357600080fd5b50610283670de0b6b3a764000081565b3480156105ef57600080fd5b50600254610319906001600160a01b031681565b34801561060f57600080fd5b50600d54610319906001600160a01b031681565b34801561062f57600080fd5b5061064361063e36600461251d565b6114de565b60405161028d979695949392919061269c565b34801561066257600080fd5b50600f5461067990640100000000900461ffff1681565b60405161ffff909116815260200161028d565b34801561069857600080fd5b506102836106a736600461251d565b60066020526000908152604090205481565b6102e16106c736600461251d565b61168d565b3480156106d857600080fd5b506106e16118e2565b604080519a8b5260208b0199909952978901969096526060880194909452608087019290925260a086015260c085015260e08401526101008301526101208201526101400161028d565b34801561073757600080fd5b50610283606481565b34801561074c57600080fd5b5061028361075b36600461251d565b60056020526000908152604090205481565b34801561077957600080fd5b5061028361193d565b34801561078e57600080fd5b50610283600181565b3480156107a357600080fd5b506102836107b2366004612716565b600760209081526000928352604080842090915290825290205481565b3480156107db57600080fd5b506102836107ea366004612716565b600860209081526000928352604080842090915290825290205481565b34801561081357600080fd5b506102e161082236600461267a565b611953565b34801561083357600080fd5b506102e161084236600461251d565b611964565b600160035460009081526004602052604090205460ff16600581111561086f5761086f6125e1565b146108c15760405162461bcd60e51b815260206004820181905260248201527f5468652063757272656e7420726f756e64206973206e6f7420706c6179696e6760448201526064015b60405180910390fd5b60035460009081526004602052604090206001015443906108e490606490612758565b116109015760405162461bcd60e51b81526004016108b89061276b565b600f8111156109225760405162461bcd60e51b81526004016108b8906127c8565b3332146109415760405162461bcd60e51b81526004016108b890612815565b6003546000908152600660205260408120805460019290610963908490612758565b909155505060035460009081526006602090815260408083205460059092529091205480610a0d5760405162461bcd60e51b815260206004820152604b60248201527f5468657265206973206e6f20706c61796572207573696e67204574686572206960448201527f6e207468697320726f756e642c20736f20796f752063616e206e6f742075736560648201526a1021b434b839aa37b5b2b760a91b608482015260a4016108b8565b6032610a198284612758565b610a24846064612872565b610a2e919061289f565b1115610abe5760405162461bcd60e51b815260206004820152605360248201527f546865206e756d626572206f6620706c6179657273207573696e67204368697060448201527f73546f6b656e2073686f756c64206265206c657373207468616e20353025206f606482015272662074686520746f74616c20706c617965727360681b608482015260a4016108b8565b60035460009081526008602090815260408083203384529091528120805460019290610aeb908490612758565b909155505060035460009081526009602090815260408083208684528252822080546001810182559083529082200180546001600160a01b03191633179055610b326110cb565b600d546040516354390e1760e11b8152336004820152306024820152604481018390529192506001600160a01b03169063a8721c2e90606401600060405180830381600087803b158015610b8557600080fd5b505af1158015610b99573d6000803e3d6000fd5b50506003546000908152600b602052604081208054859450909250610bbf908490612758565b909155505060035460408051868152602081018490526001918101919091523391907ff471259fc541585bf572a377eaebdb27bdfa4b06bf84e0b1001daa5712e748bd906060015b60405180910390a350505050565b60096020528260005260406000206020528160005260406000208181548110610c3d57600080fd5b6000918252602090912001546001600160a01b0316925083915050565b6002546001600160a01b03163314610c9a5760025460405163073e64fd60e21b81523360048201526001600160a01b0390911660248201526044016108b8565b610ca5838383611bd3565b505050565b610cb381611964565b610cbc81610e38565b50565b600460035460009081526004602052604090205460ff166005811115610ce757610ce76125e1565b14610d475760405162461bcd60e51b815260206004820152602a60248201527f5468652063757272656e7420726f756e64207374617465206973206e6f74205260448201526945414459544f4452415760b01b60648201526084016108b8565b6003805460009081526004602052604090200154610d6490611ded565b600d546040516340c10f1960e01b8152336004820152670de0b6b3a764000060248201526001600160a01b03909116906340c10f1990604401600060405180830381600087803b158015610db757600080fd5b505af1158015610dcb573d6000803e3d6000fd5b50505050565b60035460009081526004602052604081205460ff166001816005811115610dfa57610dfa6125e1565b148015610e265750600354600090815260046020526040902060010154610e2390606490612758565b43115b15610e3357600291505090565b919050565b600560008281526004602052604090205460ff166005811115610e5d57610e5d6125e1565b14610e7a5760405162461bcd60e51b81526004016108b8906128b3565b60008181526004602052604090206005015415610ea95760405162461bcd60e51b81526004016108b890612904565b600081815260086020908152604080832033845290915281205490819003610ecf575050565b60008281526008602090815260408083203384529091528120819055610ef36110cb565b905060006064610f04600182612961565b610f0e8486612872565b610f189190612872565b610f22919061289f565b6000858152600b6020526040902054909150811115610f535760405162461bcd60e51b81526004016108b890612974565b600d546040516370a0823160e01b815230600482015282916001600160a01b0316906370a0823190602401602060405180830381865afa158015610f9b573d6000803e3d6000fd5b505050506040513d601f19601f82011682018060405250810190610fbf91906129c6565b1015610fdd5760405162461bcd60e51b81526004016108b8906129df565b6000848152600b602052604081208054839290610ffb908490612961565b9091555050600d5460405163a9059cbb60e01b8152336004820152602481018390526001600160a01b039091169063a9059cbb906044016020604051808303816000875af1158015611051573d6000803e3d6000fd5b505050506040513d601f19601f820116820180604052508101906110759190612a2c565b6110915760405162461bcd60e51b81526004016108b890612a4e565b6040805182815260016020820152339186917f811127de540712b4d1c4732ad8504f669e0703bab0b1ea8c980c11c361c4a13b9101610c07565b600060646110da603282612961565b6110ed6103e8662386f26fc10000612872565b6110f79190612872565b611101919061289f565b905090565b6001546001600160a01b031633146111595760405162461bcd60e51b815260206004820152601660248201527526bab9ba10313290383937b837b9b2b21037bbb732b960511b60448201526064016108b8565b60008054336001600160a01b0319808316821784556001805490911690556040516001600160a01b0390921692909183917f8be0079c531659141344cd1fd0a4f28419497f9722a3daafe3b4186f6b6457e091a350565b600060026111bc610dd1565b60058111156111cd576111cd6125e1565b146112295760405162461bcd60e51b815260206004820152602660248201527f5468652063757272656e7420726f756e64206973206e6f7420726561647920746044820152651bc81c9bdb1b60d21b60648201526084016108b8565b600380546000908152600460209081526040808320805460ff1916909417909355600254835160c081018552600e54815260105481840152600f54640100000000810461ffff168287015263ffffffff16606082015260016080820152845192830190945282825291926001600160a01b0390921691639b1c385e9160a08201906112b3906123ae565b8152506040518263ffffffff1660e01b81526004016112d29190612a8f565b6020604051808303816000875af11580156112f1573d6000803e3d6000fd5b505050506040513d601f19601f8201168201806040525081019061131591906129c6565b6003805460009081526004602081815260408084209092018590559254848352600c84529181902082905580518481523393810193909352929350917e5cad569b235bccd21a222b2ca5705e7bcfc283436ec3ac0a0b17076cd5c70e910160405180910390a2600d546040516340c10f1960e01b8152336004820152670de0b6b3a764000060248201526001600160a01b03909116906340c10f1990604401600060405180830381600087803b1580156113ce57600080fd5b505af11580156113e2573d6000803e3d6000fd5b5092949350505050565b6000546001600160a01b0316331480159061141257506002546001600160a01b03163314155b15611463573361142a6000546001600160a01b031690565b60025460405163061db9c160e01b81526001600160a01b03938416600482015291831660248301529190911660448201526064016108b8565b6001600160a01b03811661148a5760405163d92e233d60e01b815260040160405180910390fd5b600280546001600160a01b0319166001600160a01b0383169081179091556040519081527fd1a6a14209a385a964d036e404cb5cfb71f4000cdb03c9366292430787261be69060200160405180910390a150565b6115186040805160c08101909152806000815260200160008152602001600081526020016000815260200160008152602001600081525090565b6000806000806000808760000361152f5760035497505b60046000898152602001908152602001600020600560008a815260200190815260200160002054600660008b815260200190815260200160002054600760008c81526020019081526020016000206000336001600160a01b03166001600160a01b0316815260200190815260200160002054600860008d81526020019081526020016000206000336001600160a01b03166001600160a01b0316815260200190815260200160002054600a60008e815260200190815260200160002054600b60008f815260200190815260200160002054866040518060c00160405290816000820160009054906101000a900460ff166005811115611630576116306125e1565b6005811115611641576116416125e1565b81526001820154602082015260028201546040820152600382015460608201526004820154608082015260059091015460a0909101529f959e50939c50919a5098509650945092505050565b600160035460009081526004602052604090205460ff1660058111156116b5576116b56125e1565b146117025760405162461bcd60e51b815260206004820181905260248201527f5468652063757272656e7420726f756e64206973206e6f7420706c6179696e6760448201526064016108b8565b600354600090815260046020526040902060010154439061172590606490612758565b116117425760405162461bcd60e51b81526004016108b89061276b565b662386f26fc1000034146117a45760405162461bcd60e51b8152602060048201526024808201527f54686520707269636520666f722061207469636b657420697320302e303120656044820152633a3432b960e11b60648201526084016108b8565b600f8111156117c55760405162461bcd60e51b81526004016108b8906127c8565b3332146117e45760405162461bcd60e51b81526004016108b890612815565b60035460009081526007602090815260408083203384529091528120805460019290611811908490612758565b9091555050600380546000908152600960209081526040808320858452825280832080546001810182559084528284200180546001600160a01b0319163317905592548252600a9052908120805434929061186d908490612758565b90915550506003546000908152600560205260408120805460019290611894908490612758565b90915550506003546040805183815234602082015260008183015290513392917ff471259fc541585bf572a377eaebdb27bdfa4b06bf84e0b1001daa5712e748bd919081900360600190a350565b60008080808080808080806001662386f26fc10000600f6103e860326119088285612872565b60326064670de0b6b3a764000061191d6110cb565b995099509950995099509950995099509950995090919293949596979899565b6119506103e8662386f26fc10000612872565b81565b61195b61241f565b610cbc81612474565b600560008281526004602052604090205460ff166005811115611989576119896125e1565b146119a65760405162461bcd60e51b81526004016108b8906128b3565b600081815260046020526040902060050154156119d55760405162461bcd60e51b81526004016108b890612904565b6000818152600760209081526040808320338452909152812054908190036119fb575050565b600082815260076020908152604080832033845290915281208190556064611a24600182612961565b611a35662386f26fc1000085612872565b611a3f9190612872565b611a49919061289f565b6000848152600a6020526040902054909150811115611a7a5760405162461bcd60e51b81526004016108b890612974565b80471015611a9a5760405162461bcd60e51b81526004016108b8906129df565b6000838152600a602052604081208054839290611ab8908490612961565b9091555050604051339082156108fc029083906000818181858888f19350505050158015611aea573d6000803e3d6000fd5b506040805182815260006020820152339185917f811127de540712b4d1c4732ad8504f669e0703bab0b1ea8c980c11c361c4a13b910160405180910390a3600d546001600160a01b03166340c10f193360646103e86001611b52662386f26fc1000089612872565b611b5c9190612872565b611b669190612872565b611b70919061289f565b6040516001600160e01b031960e085901b1681526001600160a01b0390921660048301526024820152604401600060405180830381600087803b158015611bb657600080fd5b505af1158015611bca573d6000803e3d6000fd5b50505050505050565b6003546000848152600c602052604090205414611c455760405162461bcd60e51b815260206004820152602a60248201527f54686520726571756573744964206973206e6f7420666f7220746865206375726044820152691c995b9d081c9bdd5b9960b21b60648201526084016108b8565b6003805460009081526004602052604090205460ff166005811115611c6c57611c6c6125e1565b14611cc85760405162461bcd60e51b815260206004820152602660248201527f5468652063757272656e7420726f756e64207374617465206973206e6f7420526044820152654f4c4c494e4760d01b60648201526084016108b8565b60035460009081526004602081905260408220805460ff191690911790558290829081611cf757611cf7612b2d565b9050602002013560046000600354815260200190815260200160002060020181905550600f6001611d289190612758565b82826000818110611d3b57611d3b612b2d565b90506020020135611d4c9190612b43565b600460006003548152602001908152602001600020600301819055506003547f6fa5a1670dd7f8ec3e75741cecdac98c388155b7fda5982a4877c317b23aa4fa8484846000818110611da057611da0612b2d565b9050602002013560046000600354815260200190815260200160002060030154604051611de0939291909283526020830191909152604082015260600190565b60405180910390a2505050565b6003546000908152600a60205260408120549003611e085750565b6003546000908152600a6020526040812054606490611e2990600190612872565b611e33919061289f565b905080600a600060035481526020019081526020016000206000828254611e5a9190612961565b90915550506040516001600160a01b037f0000000000000000000000000000000000000000000000000000000000000000169082156108fc029083906000818181858888f19350505050158015611eb5573d6000803e3d6000fd5b506003546000908152600b6020526040812054606490611ed790600190612872565b611ee1919061289f565b905080600b600060035481526020019081526020016000206000828254611f089190612961565b9091555050600d5460405163a9059cbb60e01b81526001600160a01b037f000000000000000000000000000000000000000000000000000000000000000081166004830152602482018490529091169063a9059cbb906044016020604051808303816000875af1158015611f80573d6000803e3d6000fd5b505050506040513d601f19601f82011682018060405250810190611fa49190612a2c565b50600354600090815260096020908152604080832086845290915290205480156122d1576003546000908152600a6020526040812054611fe590839061289f565b6003546000908152600b60205260408120549192509061200690849061289f565b600380546000908152600a6020908152604080832083905592548252600b90529081208190559091505b60035460009081526009602090815260408083208a84529091529020548110156122cd5760035460009081526009602090815260408083208a8452909152902080548290811061208257612082612b2d565b60009182526020822001546040516001600160a01b039091169185156108fc02918691818181858888f193505050501580156120c2573d6000803e3d6000fd5b5060035460008181526009602090815260408083208b8452909152902080547f7146dad03b25040d3634b238b65c0315d94da88156a77039566eab226ac7541d918a918590811061211557612115612b2d565b600091825260208083209190910154604080519485526001600160a01b03909116918401919091528201879052606082015260800160405180910390a281156122c557600d5460035460009081526009602090815260408083208b8452909152902080546001600160a01b039092169163a9059cbb91908490811061219c5761219c612b2d565b60009182526020909120015460405160e083901b6001600160e01b03191681526001600160a01b039091166004820152602481018590526044016020604051808303816000875af11580156121f5573d6000803e3d6000fd5b505050506040513d601f19601f820116820180604052508101906122199190612a2c565b6122355760405162461bcd60e51b81526004016108b890612a4e565b60035460008181526009602090815260408083208b8452909152902080547f7146dad03b25040d3634b238b65c0315d94da88156a77039566eab226ac7541d918a918590811061228757612287612b2d565b60009182526020918290200154604080519384526001600160a01b039091169183019190915281018590526001606082015260800160405180910390a25b600101612030565b5050505b600380546000908152600460205260408082206005908101859055925482529020805460ff1916600183021790555060035460408051868152602081018490527fc5285db7d8a9c3a0ce0e8982ff9a84fe8df355101d9545735558c69efb4aad57910160405180910390a260016003600082825461234f9190612758565b909155505060038054600090815260046020526040808220805460ff191660019081179091558354835281832043910155915491517f33a701182892fd888ed152ca2ac23771a32e814469b7cd255965471e1af3a6599190a250505050565b60607f92fd13387c7fe7befbc38d303d6468778fb9731bc4583f17d92989c6fcfdeaaa826040516024016123e791511515815260200190565b60408051601f198184030181529190526020810180516001600160e01b03166001600160e01b03199093169290921790915292915050565b6000546001600160a01b031633146124725760405162461bcd60e51b815260206004820152601660248201527527b7363c9031b0b63630b1363290313c9037bbb732b960511b60448201526064016108b8565b565b336001600160a01b038216036124cc5760405162461bcd60e51b815260206004820152601760248201527f43616e6e6f74207472616e7366657220746f2073656c6600000000000000000060448201526064016108b8565b600180546001600160a01b0319166001600160a01b0383811691821790925560008054604051929316917fed8889f560326eb138920d842192f0eb3dd22b4f139c87a2c57538e05bae12789190a350565b60006020828403121561252f57600080fd5b5035919050565b60008060006060848603121561254b57600080fd5b505081359360208301359350604090920135919050565b60008060006040848603121561257757600080fd5b83359250602084013567ffffffffffffffff8082111561259657600080fd5b818601915086601f8301126125aa57600080fd5b8135818111156125b957600080fd5b8760208260051b85010111156125ce57600080fd5b6020830194508093505050509250925092565b634e487b7160e01b600052602160045260246000fd5b6006811061261557634e487b7160e01b600052602160045260246000fd5b9052565b60c0810161262782896125f7565b602082019690965260408101949094526060840192909252608083015260a090910152919050565b6020810161265d82846125f7565b92915050565b80356001600160a01b0381168114610e3357600080fd5b60006020828403121561268c57600080fd5b61269582612663565b9392505050565b6000610180820190506126b0828a516125f7565b6020890151602083015260408901516040830152606089015160608301526080890151608083015260a089015160a08301528760c08301528660e08301528561010083015284610120830152836101408301528261016083015298975050505050505050565b6000806040838503121561272957600080fd5b8235915061273960208401612663565b90509250929050565b634e487b7160e01b600052601160045260246000fd5b8082018082111561265d5761265d612742565b60208082526038908201527f5468652063757272656e7420726f756e6420697320656e642c20706c6561736560408201527f207761697420666f7220746865206e65787420726f756e640000000000000000606082015260800190565b6020808252602d908201527f546865207469636b6574206e756d6265722073686f756c64206265206265747760408201526c65656e205b302c36353533355d60981b606082015260800190565b60208082526039908201527f4f6e6c7920454f412845787465726e616c6c79204f776e6564204163636f756e60408201527f74292063616e2063616c6c20746869732066756e6374696f6e00000000000000606082015260800190565b808202811582820484141761265d5761265d612742565b634e487b7160e01b600052601260045260246000fd5b6000826128ae576128ae612889565b500490565b60208082526031908201527f596f752063616e206e6f7420726566756e64206120726f756e64207768696368604082015270081a5cc81b9bdd0818dbdb5c1b195d1959607a1b606082015260800190565b6020808252603c908201527f546865207072697a6520706f6f6c206f66207468697320726f756e642068617360408201527f206265656e2074616b656e206279207468652077696e6e657228732900000000606082015260800190565b8181038181111561265d5761265d612742565b60208082526032908201527f5468652062616c616e6365206f66207468697320726f756e64206973206e6f7460408201527108195b9bdd59da08199bdc881c99599d5b9960721b606082015260800190565b6000602082840312156129d857600080fd5b5051919050565b6020808252602d908201527f54686520636f6e74726163742062616c616e6365206973206e6f7420656e6f7560408201526c19da08199bdc881c99599d5b99609a1b606082015260800190565b600060208284031215612a3e57600080fd5b8151801515811461269557600080fd5b60208082526021908201527f546865207472616e73666572206f66204368697073546f6b656e206661696c656040820152601960fa1b606082015260800190565b60006020808352835160208401526020840151604084015261ffff6040850151166060840152606084015163ffffffff80821660808601528060808701511660a0860152505060a084015160c08085015280518060e086015260005b81811015612b085782810184015186820161010001528301612aeb565b506101009250600083828701015282601f19601f830116860101935050505092915050565b634e487b7160e01b600052603260045260246000fd5b600082612b5257612b52612889565b50069056fea26469706673582212205bdd1620c319fbe5acc77cefcc22216a324e16ecd897d715396926c3c58e094064736f6c63430008180033",
  "linkReferences": {},
  "deployedLinkReferences": {}
}